{
  "address": "0x5FbDB2315678afecb367f032d93F642f64180aa3",
  "abi": [
    {
      "inputs": [],
      "stateMutability": "nonpayable",
      "type": "constructor"
    },
    {
      "inputs": [],
      "name": "BLockSocial_TokenIdNotExist",
      "type": "error"
    },
    {
      "inputs": [],
      "name": "BlockSocial_AlreadyLiked",
      "type": "error"
    },
    {
      "inputs": [],
      "name": "BlockSocial_DidNotEvenLiked",
      "type": "error"
    },
    {
      "anonymous": false,
      "inputs": [
        {
          "indexed": true,
          "internalType": "address",
          "name": "owner",
          "type": "address"
        },
        {
          "indexed": true,
          "internalType": "address",
          "name": "approved",
          "type": "address"
        },
        {
          "indexed": true,
          "internalType": "uint256",
          "name": "tokenId",
          "type": "uint256"
        }
      ],
      "name": "Approval",
      "type": "event"
    },
    {
      "anonymous": false,
      "inputs": [
        {
          "indexed": true,
          "internalType": "address",
          "name": "owner",
          "type": "address"
        },
        {
          "indexed": true,
          "internalType": "address",
          "name": "operator",
          "type": "address"
        },
        {
          "indexed": false,
          "internalType": "bool",
          "name": "approved",
          "type": "bool"
        }
      ],
      "name": "ApprovalForAll",
      "type": "event"
    },
    {
      "anonymous": false,
      "inputs": [
        {
          "indexed": true,
          "internalType": "uint256",
          "name": "commentToTokenId",
          "type": "uint256"
        },
        {
          "indexed": true,
          "internalType": "address",
          "name": "from",
          "type": "address"
        },
        {
          "indexed": true,
          "internalType": "uint256",
          "name": "commentTokenId",
          "type": "uint256"
        }
      ],
      "name": "CommentMinted",
      "type": "event"
    },
    {
      "anonymous": false,
      "inputs": [
        {
          "indexed": true,
          "internalType": "address",
          "name": "whoDidLike",
          "type": "address"
        },
        {
          "indexed": true,
          "internalType": "uint256",
          "name": "whichPostLiked",
          "type": "uint256"
        },
        {
          "indexed": true,
          "internalType": "uint256",
          "name": "overallLikeCountOfPost",
          "type": "uint256"
        }
      ],
      "name": "Liked",
      "type": "event"
    },
    {
      "anonymous": false,
      "inputs": [
        {
          "indexed": true,
          "internalType": "address",
          "name": "from",
          "type": "address"
        },
        {
          "indexed": true,
          "internalType": "uint256",
          "name": "tokenId",
          "type": "uint256"
        },
        {
          "indexed": true,
          "internalType": "uint256",
          "name": "postNumber",
          "type": "uint256"
        }
      ],
      "name": "PostMinted",
      "type": "event"
    },
    {
      "anonymous": false,
      "inputs": [
        {
          "indexed": true,
          "internalType": "address",
          "name": "from",
          "type": "address"
        },
        {
          "indexed": true,
          "internalType": "address",
          "name": "to",
          "type": "address"
        },
        {
          "indexed": true,
          "internalType": "uint256",
          "name": "tokenId",
          "type": "uint256"
        }
      ],
      "name": "Transfer",
      "type": "event"
    },
    {
      "anonymous": false,
      "inputs": [
        {
          "indexed": true,
          "internalType": "address",
          "name": "whoDidUnLike",
          "type": "address"
        },
        {
          "indexed": true,
          "internalType": "uint256",
          "name": "whichPostUnLiked",
          "type": "uint256"
        },
        {
          "indexed": true,
          "internalType": "uint256",
          "name": "overallLikeCountOfPost",
          "type": "uint256"
        }
      ],
      "name": "UnLiked",
      "type": "event"
    },
    {
      "inputs": [
        {
          "internalType": "address",
          "name": "to",
          "type": "address"
        },
        {
          "internalType": "uint256",
          "name": "tokenId",
          "type": "uint256"
        }
      ],
      "name": "approve",
      "outputs": [],
      "stateMutability": "nonpayable",
      "type": "function"
    },
    {
      "inputs": [
        {
          "internalType": "address",
          "name": "owner",
          "type": "address"
        }
      ],
      "name": "balanceOf",
      "outputs": [
        {
          "internalType": "uint256",
          "name": "",
          "type": "uint256"
        }
      ],
      "stateMutability": "view",
      "type": "function"
    },
    {
      "inputs": [
        {
          "internalType": "uint256",
          "name": "tokenId",
          "type": "uint256"
        }
      ],
      "name": "getApproved",
      "outputs": [
        {
          "internalType": "address",
          "name": "",
          "type": "address"
        }
      ],
      "stateMutability": "view",
      "type": "function"
    },
    {
      "inputs": [
        {
          "internalType": "uint256",
          "name": "_tokenId",
          "type": "uint256"
        },
        {
          "internalType": "address",
          "name": "_personAddress",
          "type": "address"
        }
      ],
      "name": "getIsThisPersonLikedThisPost",
      "outputs": [
        {
          "internalType": "bool",
          "name": "",
          "type": "bool"
        }
      ],
      "stateMutability": "view",
      "type": "function"
    },
    {
      "inputs": [
        {
          "internalType": "uint256",
          "name": "_tokenId",
          "type": "uint256"
        }
      ],
      "name": "getLikeCount",
      "outputs": [
        {
          "internalType": "uint256",
          "name": "likeCount",
          "type": "uint256"
        }
      ],
      "stateMutability": "view",
      "type": "function"
    },
    {
      "inputs": [],
      "name": "getTokenCount",
      "outputs": [
        {
          "internalType": "uint256",
          "name": "tokenCount",
          "type": "uint256"
        }
      ],
      "stateMutability": "view",
      "type": "function"
    },
    {
      "inputs": [
        {
          "internalType": "address",
          "name": "owner",
          "type": "address"
        },
        {
          "internalType": "address",
          "name": "operator",
          "type": "address"
        }
      ],
      "name": "isApprovedForAll",
      "outputs": [
        {
          "internalType": "bool",
          "name": "",
          "type": "bool"
        }
      ],
      "stateMutability": "view",
      "type": "function"
    },
    {
      "inputs": [
        {
          "internalType": "uint256",
          "name": "_tokenId",
          "type": "uint256"
        }
      ],
      "name": "like",
      "outputs": [],
      "stateMutability": "nonpayable",
      "type": "function"
    },
    {
      "inputs": [
        {
          "internalType": "uint256",
          "name": "_tokenIdToComment",
          "type": "uint256"
        },
        {
          "internalType": "string",
          "name": "_uri",
          "type": "string"
        }
      ],
      "name": "mintComment",
      "outputs": [],
      "stateMutability": "nonpayable",
      "type": "function"
    },
    {
      "inputs": [
        {
          "internalType": "string",
          "name": "_uri",
          "type": "string"
        }
      ],
      "name": "mintingPost",
      "outputs": [],
      "stateMutability": "nonpayable",
      "type": "function"
    },
    {
      "inputs": [],
      "name": "name",
      "outputs": [
        {
          "internalType": "string",
          "name": "",
          "type": "string"
        }
      ],
      "stateMutability": "view",
      "type": "function"
    },
    {
      "inputs": [
        {
          "internalType": "uint256",
          "name": "tokenId",
          "type": "uint256"
        }
      ],
      "name": "ownerOf",
      "outputs": [
        {
          "internalType": "address",
          "name": "",
          "type": "address"
        }
      ],
      "stateMutability": "view",
      "type": "function"
    },
    {
      "inputs": [],
      "name": "s_postCounter",
      "outputs": [
        {
          "internalType": "uint256",
          "name": "",
          "type": "uint256"
        }
      ],
      "stateMutability": "view",
      "type": "function"
    },
    {
      "inputs": [],
      "name": "s_tokenCounter",
      "outputs": [
        {
          "internalType": "uint256",
          "name": "",
          "type": "uint256"
        }
      ],
      "stateMutability": "view",
      "type": "function"
    },
    {
      "inputs": [
        {
          "internalType": "uint256",
          "name": "",
          "type": "uint256"
        }
      ],
      "name": "s_tokenIdToLikeCount",
      "outputs": [
        {
          "internalType": "uint256",
          "name": "",
          "type": "uint256"
        }
      ],
      "stateMutability": "view",
      "type": "function"
    },
    {
      "inputs": [
        {
          "internalType": "uint256",
          "name": "",
          "type": "uint256"
        },
        {
          "internalType": "address",
          "name": "",
          "type": "address"
        }
      ],
      "name": "s_tokenIdToWhoLiked",
      "outputs": [
        {
          "internalType": "bool",
          "name": "",
          "type": "bool"
        }
      ],
      "stateMutability": "view",
      "type": "function"
    },
    {
      "inputs": [
        {
          "internalType": "address",
          "name": "from",
          "type": "address"
        },
        {
          "internalType": "address",
          "name": "to",
          "type": "address"
        },
        {
          "internalType": "uint256",
          "name": "tokenId",
          "type": "uint256"
        }
      ],
      "name": "safeTransferFrom",
      "outputs": [],
      "stateMutability": "nonpayable",
      "type": "function"
    },
    {
      "inputs": [
        {
          "internalType": "address",
          "name": "from",
          "type": "address"
        },
        {
          "internalType": "address",
          "name": "to",
          "type": "address"
        },
        {
          "internalType": "uint256",
          "name": "tokenId",
          "type": "uint256"
        },
        {
          "internalType": "bytes",
          "name": "data",
          "type": "bytes"
        }
      ],
      "name": "safeTransferFrom",
      "outputs": [],
      "stateMutability": "nonpayable",
      "type": "function"
    },
    {
      "inputs": [
        {
          "internalType": "address",
          "name": "operator",
          "type": "address"
        },
        {
          "internalType": "bool",
          "name": "approved",
          "type": "bool"
        }
      ],
      "name": "setApprovalForAll",
      "outputs": [],
      "stateMutability": "nonpayable",
      "type": "function"
    },
    {
      "inputs": [
        {
          "internalType": "bytes4",
          "name": "interfaceId",
          "type": "bytes4"
        }
      ],
      "name": "supportsInterface",
      "outputs": [
        {
          "internalType": "bool",
          "name": "",
          "type": "bool"
        }
      ],
      "stateMutability": "view",
      "type": "function"
    },
    {
      "inputs": [],
      "name": "symbol",
      "outputs": [
        {
          "internalType": "string",
          "name": "",
          "type": "string"
        }
      ],
      "stateMutability": "view",
      "type": "function"
    },
    {
      "inputs": [
        {
          "internalType": "uint256",
          "name": "tokenId",
          "type": "uint256"
        }
      ],
      "name": "tokenURI",
      "outputs": [
        {
          "internalType": "string",
          "name": "",
          "type": "string"
        }
      ],
      "stateMutability": "view",
      "type": "function"
    },
    {
      "inputs": [
        {
          "internalType": "address",
          "name": "from",
          "type": "address"
        },
        {
          "internalType": "address",
          "name": "to",
          "type": "address"
        },
        {
          "internalType": "uint256",
          "name": "tokenId",
          "type": "uint256"
        }
      ],
      "name": "transferFrom",
      "outputs": [],
      "stateMutability": "nonpayable",
      "type": "function"
    },
    {
      "inputs": [
        {
          "internalType": "uint256",
          "name": "_tokenId",
          "type": "uint256"
        }
      ],
      "name": "unLike",
      "outputs": [],
      "stateMutability": "nonpayable",
      "type": "function"
    }
  ],
  "transactionHash": "0x5a91606f7146c242add8f432d972fe86e30bea0c39e9cca91ef5851e26c89731",
  "args": [],
  "numDeployments": 1,
  "solcInputHash": "0eac99e88df580684c5ef2e3d15ecff7",
  "bytecode": "0x60806040523480156200001157600080fd5b506040518060400160405280600b81526020017f426c6f636b536f6369616c0000000000000000000000000000000000000000008152506040518060400160405280600281526020017f4253000000000000000000000000000000000000000000000000000000000000815250816000908051906020019062000096929190620000c8565b508060019080519060200190620000af929190620000c8565b50505060006007819055506000600881905550620001dd565b828054620000d690620001a7565b90600052602060002090601f016020900481019282620000fa576000855562000146565b82601f106200011557805160ff191683800117855562000146565b8280016001018555821562000146579182015b828111156200014557825182559160200191906001019062000128565b5b50905062000155919062000159565b5090565b5b80821115620001745760008160009055506001016200015a565b5090565b7f4e487b7100000000000000000000000000000000000000000000000000000000600052602260045260246000fd5b60006002820490506001821680620001c057607f821691505b60208210811415620001d757620001d662000178565b5b50919050565b61331d80620001ed6000396000f3fe608060405234801561001057600080fd5b50600436106101585760003560e01c806395d89b41116100c3578063db8461c01161007c578063db8461c0146103e9578063dc5d042c14610405578063e1920e3a14610435578063e82935da14610465578063e985e9c514610481578063fc705b11146104b157610158565b806395d89b411461032b5780639687195314610349578063988de00b14610365578063a22cb46514610381578063b88d4fde1461039d578063c87b56dd146103b957610158565b806342842e0e1161011557806342842e0e146102315780634ef576ad1461024d5780636352211e1461027d57806365413b54146102ad57806370a08231146102dd57806378a895671461030d57610158565b806301ffc9a71461015d57806306fdde031461018d578063081812fc146101ab578063095ea7b3146101db5780630b21a83b146101f757806323b872dd14610215575b600080fd5b6101776004803603810190610172919061233e565b6104cf565b6040516101849190612386565b60405180910390f35b6101956105b1565b6040516101a2919061243a565b60405180910390f35b6101c560048036038101906101c09190612492565b610643565b6040516101d29190612500565b60405180910390f35b6101f560048036038101906101f09190612547565b610689565b005b6101ff6107a1565b60405161020c9190612596565b60405180910390f35b61022f600480360381019061022a91906125b1565b6107a7565b005b61024b600480360381019061024691906125b1565b610807565b005b61026760048036038101906102629190612492565b610827565b6040516102749190612596565b60405180910390f35b61029760048036038101906102929190612492565b610844565b6040516102a49190612500565b60405180910390f35b6102c760048036038101906102c29190612604565b6108cb565b6040516102d49190612386565b60405180910390f35b6102f760048036038101906102f29190612644565b6108fa565b6040516103049190612596565b60405180910390f35b6103156109b2565b6040516103229190612596565b60405180910390f35b6103336109bc565b604051610340919061243a565b60405180910390f35b610363600480360381019061035e91906127a6565b610a4e565b005b61037f600480360381019061037a91906127ef565b610ae6565b005b61039b60048036038101906103969190612877565b610bab565b005b6103b760048036038101906103b29190612958565b610bc1565b005b6103d360048036038101906103ce9190612492565b610c23565b6040516103e0919061243a565b60405180910390f35b61040360048036038101906103fe9190612492565b610d36565b005b61041f600480360381019061041a9190612492565b610f0e565b60405161042c9190612596565b60405180910390f35b61044f600480360381019061044a9190612604565b610f26565b60405161045c9190612386565b60405180910390f35b61047f600480360381019061047a9190612492565b610fd6565b005b61049b600480360381019061049691906129db565b6111ae565b6040516104a89190612386565b60405180910390f35b6104b9611242565b6040516104c69190612596565b60405180910390f35b60007f80ac58cd000000000000000000000000000000000000000000000000000000007bffffffffffffffffffffffffffffffffffffffffffffffffffffffff1916827bffffffffffffffffffffffffffffffffffffffffffffffffffffffff1916148061059a57507f5b5e139f000000000000000000000000000000000000000000000000000000007bffffffffffffffffffffffffffffffffffffffffffffffffffffffff1916827bffffffffffffffffffffffffffffffffffffffffffffffffffffffff1916145b806105aa57506105a982611248565b5b9050919050565b6060600080546105c090612a4a565b80601f01602080910402602001604051908101604052809291908181526020018280546105ec90612a4a565b80156106395780601f1061060e57610100808354040283529160200191610639565b820191906000526020600020905b81548152906001019060200180831161061c57829003601f168201915b5050505050905090565b600061064e826112b2565b6004600083815260200190815260200160002060009054906101000a900473ffffffffffffffffffffffffffffffffffffffff169050919050565b600061069482610844565b90508073ffffffffffffffffffffffffffffffffffffffff168373ffffffffffffffffffffffffffffffffffffffff161415610705576040517f08c379a00000000000000000000000000000000000000000000000000000000081526004016106fc90612aee565b60405180910390fd5b8073ffffffffffffffffffffffffffffffffffffffff166107246112fd565b73ffffffffffffffffffffffffffffffffffffffff16148061075357506107528161074d6112fd565b6111ae565b5b610792576040517f08c379a000000000000000000000000000000000000000000000000000000000815260040161078990612b80565b60405180910390fd5b61079c8383611305565b505050565b60075481565b6107b86107b26112fd565b826113be565b6107f7576040517f08c379a00000000000000000000000000000000000000000000000000000000081526004016107ee90612c12565b60405180910390fd5b610802838383611453565b505050565b61082283838360405180602001604052806000815250610bc1565b505050565b600060096000838152602001908152602001600020549050919050565b6000806108508361174d565b9050600073ffffffffffffffffffffffffffffffffffffffff168173ffffffffffffffffffffffffffffffffffffffff1614156108c2576040517f08c379a00000000000000000000000000000000000000000000000000000000081526004016108b990612c7e565b60405180910390fd5b80915050919050565b600a6020528160005260406000206020528060005260406000206000915091509054906101000a900460ff1681565b60008073ffffffffffffffffffffffffffffffffffffffff168273ffffffffffffffffffffffffffffffffffffffff16141561096b576040517f08c379a000000000000000000000000000000000000000000000000000000000815260040161096290612d10565b60405180910390fd5b600360008373ffffffffffffffffffffffffffffffffffffffff1673ffffffffffffffffffffffffffffffffffffffff168152602001908152602001600020549050919050565b6000600754905090565b6060600180546109cb90612a4a565b80601f01602080910402602001604051908101604052809291908181526020018280546109f790612a4a565b8015610a445780601f10610a1957610100808354040283529160200191610a44565b820191906000526020600020905b815481529060010190602001808311610a2757829003601f168201915b5050505050905090565b610a5a3360075461178a565b610a66600754826117a8565b6008546007543373ffffffffffffffffffffffffffffffffffffffff167fba08d4a420ec7368989fc99a229ac75118557f6df7a06e35120821f8eddaa07360405160405180910390a4600160076000828254610ac29190612d5f565b92505081905550600160086000828254610adc9190612d5f565b9250508190555050565b6001600754610af59190612db5565b821115610b2e576040517fbc10bcea00000000000000000000000000000000000000000000000000000000815260040160405180910390fd5b610b3a3360075461178a565b610b46600754826117a8565b6007543373ffffffffffffffffffffffffffffffffffffffff16837f1e0408208af33f8dd6f3e2ffa933f7fa449ff6a994e0f232050a610fb2117e4d60405160405180910390a4600160076000828254610ba09190612d5f565b925050819055505050565b610bbd610bb66112fd565b838361181c565b5050565b610bd2610bcc6112fd565b836113be565b610c11576040517f08c379a0000000000000000000000000000000000000000000000000000000008152600401610c0890612c12565b60405180910390fd5b610c1d84848484611989565b50505050565b6060610c2e826112b2565b6000600660008481526020019081526020016000208054610c4e90612a4a565b80601f0160208091040260200160405190810160405280929190818152602001828054610c7a90612a4a565b8015610cc75780601f10610c9c57610100808354040283529160200191610cc7565b820191906000526020600020905b815481529060010190602001808311610caa57829003601f168201915b505050505090506000610cd86119e5565b9050600081511415610cee578192505050610d31565b600082511115610d23578082604051602001610d0b929190612e25565b60405160208183030381529060405292505050610d31565b610d2c846119fc565b925050505b919050565b6001600754610d459190612db5565b811115610d7e576040517fbc10bcea00000000000000000000000000000000000000000000000000000000815260040160405180910390fd5b60001515600a600083815260200190815260200160002060003373ffffffffffffffffffffffffffffffffffffffff1673ffffffffffffffffffffffffffffffffffffffff16815260200190815260200160002060009054906101000a900460ff1615151415610e1a576040517f1dddd0eb00000000000000000000000000000000000000000000000000000000815260040160405180910390fd5b6000600a600083815260200190815260200160002060003373ffffffffffffffffffffffffffffffffffffffff1673ffffffffffffffffffffffffffffffffffffffff16815260200190815260200160002060006101000a81548160ff0219169083151502179055506000600960008381526020019081526020016000205490506000600182610eaa9190612db5565b905080600960008581526020019081526020016000208190555080833373ffffffffffffffffffffffffffffffffffffffff167fe2396e9054558aff00ad7c3bc6edd310667fafbc7ea91ff20712760b7832873660405160405180910390a4505050565b60096020528060005260406000206000915090505481565b60006001600754610f379190612db5565b831115610f70576040517fbc10bcea00000000000000000000000000000000000000000000000000000000815260040160405180910390fd5b600a600084815260200190815260200160002060008373ffffffffffffffffffffffffffffffffffffffff1673ffffffffffffffffffffffffffffffffffffffff16815260200190815260200160002060009054906101000a900460ff16905092915050565b6001600754610fe59190612db5565b81111561101e576040517fbc10bcea00000000000000000000000000000000000000000000000000000000815260040160405180910390fd5b60011515600a600083815260200190815260200160002060003373ffffffffffffffffffffffffffffffffffffffff1673ffffffffffffffffffffffffffffffffffffffff16815260200190815260200160002060009054906101000a900460ff16151514156110ba576040517f4a2f422100000000000000000000000000000000000000000000000000000000815260040160405180910390fd5b6001600a600083815260200190815260200160002060003373ffffffffffffffffffffffffffffffffffffffff1673ffffffffffffffffffffffffffffffffffffffff16815260200190815260200160002060006101000a81548160ff021916908315150217905550600060096000838152602001908152602001600020549050600060018261114a9190612d5f565b905080600960008581526020019081526020016000208190555080833373ffffffffffffffffffffffffffffffffffffffff167f88bb3938380c70e543fd5f4cbd8a7642dad94b8242d9dd9130759c4c52fc23b560405160405180910390a4505050565b6000600560008473ffffffffffffffffffffffffffffffffffffffff1673ffffffffffffffffffffffffffffffffffffffff16815260200190815260200160002060008373ffffffffffffffffffffffffffffffffffffffff1673ffffffffffffffffffffffffffffffffffffffff16815260200190815260200160002060009054906101000a900460ff16905092915050565b60085481565b60007f01ffc9a7000000000000000000000000000000000000000000000000000000007bffffffffffffffffffffffffffffffffffffffffffffffffffffffff1916827bffffffffffffffffffffffffffffffffffffffffffffffffffffffff1916149050919050565b6112bb81611a64565b6112fa576040517f08c379a00000000000000000000000000000000000000000000000000000000081526004016112f190612c7e565b60405180910390fd5b50565b600033905090565b816004600083815260200190815260200160002060006101000a81548173ffffffffffffffffffffffffffffffffffffffff021916908373ffffffffffffffffffffffffffffffffffffffff160217905550808273ffffffffffffffffffffffffffffffffffffffff1661137883610844565b73ffffffffffffffffffffffffffffffffffffffff167f8c5be1e5ebec7d5bd14f71427d1e84f3dd0314c0f7b2291e5b200ac8c7c3b92560405160405180910390a45050565b6000806113ca83610844565b90508073ffffffffffffffffffffffffffffffffffffffff168473ffffffffffffffffffffffffffffffffffffffff16148061140c575061140b81856111ae565b5b8061144a57508373ffffffffffffffffffffffffffffffffffffffff1661143284610643565b73ffffffffffffffffffffffffffffffffffffffff16145b91505092915050565b8273ffffffffffffffffffffffffffffffffffffffff1661147382610844565b73ffffffffffffffffffffffffffffffffffffffff16146114c9576040517f08c379a00000000000000000000000000000000000000000000000000000000081526004016114c090612ebb565b60405180910390fd5b600073ffffffffffffffffffffffffffffffffffffffff168273ffffffffffffffffffffffffffffffffffffffff161415611539576040517f08c379a000000000000000000000000000000000000000000000000000000000815260040161153090612f4d565b60405180910390fd5b6115468383836001611aa5565b8273ffffffffffffffffffffffffffffffffffffffff1661156682610844565b73ffffffffffffffffffffffffffffffffffffffff16146115bc576040517f08c379a00000000000000000000000000000000000000000000000000000000081526004016115b390612ebb565b60405180910390fd5b6004600082815260200190815260200160002060006101000a81549073ffffffffffffffffffffffffffffffffffffffff02191690556001600360008573ffffffffffffffffffffffffffffffffffffffff1673ffffffffffffffffffffffffffffffffffffffff168152602001908152602001600020600082825403925050819055506001600360008473ffffffffffffffffffffffffffffffffffffffff1673ffffffffffffffffffffffffffffffffffffffff16815260200190815260200160002060008282540192505081905550816002600083815260200190815260200160002060006101000a81548173ffffffffffffffffffffffffffffffffffffffff021916908373ffffffffffffffffffffffffffffffffffffffff160217905550808273ffffffffffffffffffffffffffffffffffffffff168473ffffffffffffffffffffffffffffffffffffffff167fddf252ad1be2c89b69c2b068fc378daa952ba7f163c4a11628f55a4df523b3ef60405160405180910390a46117488383836001611bcb565b505050565b60006002600083815260200190815260200160002060009054906101000a900473ffffffffffffffffffffffffffffffffffffffff169050919050565b6117a4828260405180602001604052806000815250611bd1565b5050565b6117b182611a64565b6117f0576040517f08c379a00000000000000000000000000000000000000000000000000000000081526004016117e790612fdf565b60405180910390fd5b8060066000848152602001908152602001600020908051906020019061181792919061222f565b505050565b8173ffffffffffffffffffffffffffffffffffffffff168373ffffffffffffffffffffffffffffffffffffffff16141561188b576040517f08c379a00000000000000000000000000000000000000000000000000000000081526004016118829061304b565b60405180910390fd5b80600560008573ffffffffffffffffffffffffffffffffffffffff1673ffffffffffffffffffffffffffffffffffffffff16815260200190815260200160002060008473ffffffffffffffffffffffffffffffffffffffff1673ffffffffffffffffffffffffffffffffffffffff16815260200190815260200160002060006101000a81548160ff0219169083151502179055508173ffffffffffffffffffffffffffffffffffffffff168373ffffffffffffffffffffffffffffffffffffffff167f17307eab39ab6107e8899845ad3d59bd9653f200f220920489ca2b5937696c318360405161197c9190612386565b60405180910390a3505050565b611994848484611453565b6119a084848484611c2c565b6119df576040517f08c379a00000000000000000000000000000000000000000000000000000000081526004016119d6906130dd565b60405180910390fd5b50505050565b606060405180602001604052806000815250905090565b6060611a07826112b2565b6000611a116119e5565b90506000815111611a315760405180602001604052806000815250611a5c565b80611a3b84611dc3565b604051602001611a4c929190612e25565b6040516020818303038152906040525b915050919050565b60008073ffffffffffffffffffffffffffffffffffffffff16611a868361174d565b73ffffffffffffffffffffffffffffffffffffffff1614159050919050565b6001811115611bc557600073ffffffffffffffffffffffffffffffffffffffff168473ffffffffffffffffffffffffffffffffffffffff1614611b395780600360008673ffffffffffffffffffffffffffffffffffffffff1673ffffffffffffffffffffffffffffffffffffffff1681526020019081526020016000206000828254611b319190612db5565b925050819055505b600073ffffffffffffffffffffffffffffffffffffffff168373ffffffffffffffffffffffffffffffffffffffff1614611bc45780600360008573ffffffffffffffffffffffffffffffffffffffff1673ffffffffffffffffffffffffffffffffffffffff1681526020019081526020016000206000828254611bbc9190612d5f565b925050819055505b5b50505050565b50505050565b611bdb8383611e9b565b611be86000848484611c2c565b611c27576040517f08c379a0000000000000000000000000000000000000000000000000000000008152600401611c1e906130dd565b60405180910390fd5b505050565b6000611c4d8473ffffffffffffffffffffffffffffffffffffffff166120b9565b15611db6578373ffffffffffffffffffffffffffffffffffffffff1663150b7a02611c766112fd565b8786866040518563ffffffff1660e01b8152600401611c989493929190613152565b602060405180830381600087803b158015611cb257600080fd5b505af1925050508015611ce357506040513d601f19601f82011682018060405250810190611ce091906131b3565b60015b611d66573d8060008114611d13576040519150601f19603f3d011682016040523d82523d6000602084013e611d18565b606091505b50600081511415611d5e576040517f08c379a0000000000000000000000000000000000000000000000000000000008152600401611d55906130dd565b60405180910390fd5b805181602001fd5b63150b7a0260e01b7bffffffffffffffffffffffffffffffffffffffffffffffffffffffff1916817bffffffffffffffffffffffffffffffffffffffffffffffffffffffff191614915050611dbb565b600190505b949350505050565b606060006001611dd2846120dc565b01905060008167ffffffffffffffff811115611df157611df061267b565b5b6040519080825280601f01601f191660200182016040528015611e235781602001600182028036833780820191505090505b509050600082602001820190505b600115611e90578080600190039150507f3031323334353637383961626364656600000000000000000000000000000000600a86061a8153600a8581611e7a57611e796131e0565b5b0494506000851415611e8b57611e90565b611e31565b819350505050919050565b600073ffffffffffffffffffffffffffffffffffffffff168273ffffffffffffffffffffffffffffffffffffffff161415611f0b576040517f08c379a0000000000000000000000000000000000000000000000000000000008152600401611f029061325b565b60405180910390fd5b611f1481611a64565b15611f54576040517f08c379a0000000000000000000000000000000000000000000000000000000008152600401611f4b906132c7565b60405180910390fd5b611f62600083836001611aa5565b611f6b81611a64565b15611fab576040517f08c379a0000000000000000000000000000000000000000000000000000000008152600401611fa2906132c7565b60405180910390fd5b6001600360008473ffffffffffffffffffffffffffffffffffffffff1673ffffffffffffffffffffffffffffffffffffffff16815260200190815260200160002060008282540192505081905550816002600083815260200190815260200160002060006101000a81548173ffffffffffffffffffffffffffffffffffffffff021916908373ffffffffffffffffffffffffffffffffffffffff160217905550808273ffffffffffffffffffffffffffffffffffffffff16600073ffffffffffffffffffffffffffffffffffffffff167fddf252ad1be2c89b69c2b068fc378daa952ba7f163c4a11628f55a4df523b3ef60405160405180910390a46120b5600083836001611bcb565b5050565b6000808273ffffffffffffffffffffffffffffffffffffffff163b119050919050565b600080600090507a184f03e93ff9f4daa797ed6e38ed64bf6a1f010000000000000000831061213a577a184f03e93ff9f4daa797ed6e38ed64bf6a1f01000000000000000083816121305761212f6131e0565b5b0492506040810190505b6d04ee2d6d415b85acef81000000008310612177576d04ee2d6d415b85acef8100000000838161216d5761216c6131e0565b5b0492506020810190505b662386f26fc1000083106121a657662386f26fc10000838161219c5761219b6131e0565b5b0492506010810190505b6305f5e10083106121cf576305f5e10083816121c5576121c46131e0565b5b0492506008810190505b61271083106121f45761271083816121ea576121e96131e0565b5b0492506004810190505b60648310612217576064838161220d5761220c6131e0565b5b0492506002810190505b600a8310612226576001810190505b80915050919050565b82805461223b90612a4a565b90600052602060002090601f01602090048101928261225d57600085556122a4565b82601f1061227657805160ff19168380011785556122a4565b828001600101855582156122a4579182015b828111156122a3578251825591602001919060010190612288565b5b5090506122b191906122b5565b5090565b5b808211156122ce5760008160009055506001016122b6565b5090565b6000604051905090565b600080fd5b600080fd5b60007fffffffff0000000000000000000000000000000000000000000000000000000082169050919050565b61231b816122e6565b811461232657600080fd5b50565b60008135905061233881612312565b92915050565b600060208284031215612354576123536122dc565b5b600061236284828501612329565b91505092915050565b60008115159050919050565b6123808161236b565b82525050565b600060208201905061239b6000830184612377565b92915050565b600081519050919050565b600082825260208201905092915050565b60005b838110156123db5780820151818401526020810190506123c0565b838111156123ea576000848401525b50505050565b6000601f19601f8301169050919050565b600061240c826123a1565b61241681856123ac565b93506124268185602086016123bd565b61242f816123f0565b840191505092915050565b600060208201905081810360008301526124548184612401565b905092915050565b6000819050919050565b61246f8161245c565b811461247a57600080fd5b50565b60008135905061248c81612466565b92915050565b6000602082840312156124a8576124a76122dc565b5b60006124b68482850161247d565b91505092915050565b600073ffffffffffffffffffffffffffffffffffffffff82169050919050565b60006124ea826124bf565b9050919050565b6124fa816124df565b82525050565b600060208201905061251560008301846124f1565b92915050565b612524816124df565b811461252f57600080fd5b50565b6000813590506125418161251b565b92915050565b6000806040838503121561255e5761255d6122dc565b5b600061256c85828601612532565b925050602061257d8582860161247d565b9150509250929050565b6125908161245c565b82525050565b60006020820190506125ab6000830184612587565b92915050565b6000806000606084860312156125ca576125c96122dc565b5b60006125d886828701612532565b93505060206125e986828701612532565b92505060406125fa8682870161247d565b9150509250925092565b6000806040838503121561261b5761261a6122dc565b5b60006126298582860161247d565b925050602061263a85828601612532565b9150509250929050565b60006020828403121561265a576126596122dc565b5b600061266884828501612532565b91505092915050565b600080fd5b600080fd5b7f4e487b7100000000000000000000000000000000000000000000000000000000600052604160045260246000fd5b6126b3826123f0565b810181811067ffffffffffffffff821117156126d2576126d161267b565b5b80604052505050565b60006126e56122d2565b90506126f182826126aa565b919050565b600067ffffffffffffffff8211156127115761271061267b565b5b61271a826123f0565b9050602081019050919050565b82818337600083830152505050565b6000612749612744846126f6565b6126db565b90508281526020810184848401111561276557612764612676565b5b612770848285612727565b509392505050565b600082601f83011261278d5761278c612671565b5b813561279d848260208601612736565b91505092915050565b6000602082840312156127bc576127bb6122dc565b5b600082013567ffffffffffffffff8111156127da576127d96122e1565b5b6127e684828501612778565b91505092915050565b60008060408385031215612806576128056122dc565b5b60006128148582860161247d565b925050602083013567ffffffffffffffff811115612835576128346122e1565b5b61284185828601612778565b9150509250929050565b6128548161236b565b811461285f57600080fd5b50565b6000813590506128718161284b565b92915050565b6000806040838503121561288e5761288d6122dc565b5b600061289c85828601612532565b92505060206128ad85828601612862565b9150509250929050565b600067ffffffffffffffff8211156128d2576128d161267b565b5b6128db826123f0565b9050602081019050919050565b60006128fb6128f6846128b7565b6126db565b90508281526020810184848401111561291757612916612676565b5b612922848285612727565b509392505050565b600082601f83011261293f5761293e612671565b5b813561294f8482602086016128e8565b91505092915050565b60008060008060808587031215612972576129716122dc565b5b600061298087828801612532565b945050602061299187828801612532565b93505060406129a28782880161247d565b925050606085013567ffffffffffffffff8111156129c3576129c26122e1565b5b6129cf8782880161292a565b91505092959194509250565b600080604083850312156129f2576129f16122dc565b5b6000612a0085828601612532565b9250506020612a1185828601612532565b9150509250929050565b7f4e487b7100000000000000000000000000000000000000000000000000000000600052602260045260246000fd5b60006002820490506001821680612a6257607f821691505b60208210811415612a7657612a75612a1b565b5b50919050565b7f4552433732313a20617070726f76616c20746f2063757272656e74206f776e6560008201527f7200000000000000000000000000000000000000000000000000000000000000602082015250565b6000612ad86021836123ac565b9150612ae382612a7c565b604082019050919050565b60006020820190508181036000830152612b0781612acb565b9050919050565b7f4552433732313a20617070726f76652063616c6c6572206973206e6f7420746f60008201527f6b656e206f776e6572206f7220617070726f76656420666f7220616c6c000000602082015250565b6000612b6a603d836123ac565b9150612b7582612b0e565b604082019050919050565b60006020820190508181036000830152612b9981612b5d565b9050919050565b7f4552433732313a2063616c6c6572206973206e6f7420746f6b656e206f776e6560008201527f72206f7220617070726f76656400000000000000000000000000000000000000602082015250565b6000612bfc602d836123ac565b9150612c0782612ba0565b604082019050919050565b60006020820190508181036000830152612c2b81612bef565b9050919050565b7f4552433732313a20696e76616c696420746f6b656e2049440000000000000000600082015250565b6000612c686018836123ac565b9150612c7382612c32565b602082019050919050565b60006020820190508181036000830152612c9781612c5b565b9050919050565b7f4552433732313a2061646472657373207a65726f206973206e6f74206120766160008201527f6c6964206f776e65720000000000000000000000000000000000000000000000602082015250565b6000612cfa6029836123ac565b9150612d0582612c9e565b604082019050919050565b60006020820190508181036000830152612d2981612ced565b9050919050565b7f4e487b7100000000000000000000000000000000000000000000000000000000600052601160045260246000fd5b6000612d6a8261245c565b9150612d758361245c565b9250827fffffffffffffffffffffffffffffffffffffffffffffffffffffffffffffffff03821115612daa57612da9612d30565b5b828201905092915050565b6000612dc08261245c565b9150612dcb8361245c565b925082821015612dde57612ddd612d30565b5b828203905092915050565b600081905092915050565b6000612dff826123a1565b612e098185612de9565b9350612e198185602086016123bd565b80840191505092915050565b6000612e318285612df4565b9150612e3d8284612df4565b91508190509392505050565b7f4552433732313a207472616e736665722066726f6d20696e636f72726563742060008201527f6f776e6572000000000000000000000000000000000000000000000000000000602082015250565b6000612ea56025836123ac565b9150612eb082612e49565b604082019050919050565b60006020820190508181036000830152612ed481612e98565b9050919050565b7f4552433732313a207472616e7366657220746f20746865207a65726f2061646460008201527f7265737300000000000000000000000000000000000000000000000000000000602082015250565b6000612f376024836123ac565b9150612f4282612edb565b604082019050919050565b60006020820190508181036000830152612f6681612f2a565b9050919050565b7f45524337323155524953746f726167653a2055524920736574206f66206e6f6e60008201527f6578697374656e7420746f6b656e000000000000000000000000000000000000602082015250565b6000612fc9602e836123ac565b9150612fd482612f6d565b604082019050919050565b60006020820190508181036000830152612ff881612fbc565b9050919050565b7f4552433732313a20617070726f766520746f2063616c6c657200000000000000600082015250565b60006130356019836123ac565b915061304082612fff565b602082019050919050565b6000602082019050818103600083015261306481613028565b9050919050565b7f4552433732313a207472616e7366657220746f206e6f6e20455243373231526560008201527f63656976657220696d706c656d656e7465720000000000000000000000000000602082015250565b60006130c76032836123ac565b91506130d28261306b565b604082019050919050565b600060208201905081810360008301526130f6816130ba565b9050919050565b600081519050919050565b600082825260208201905092915050565b6000613124826130fd565b61312e8185613108565b935061313e8185602086016123bd565b613147816123f0565b840191505092915050565b600060808201905061316760008301876124f1565b61317460208301866124f1565b6131816040830185612587565b81810360608301526131938184613119565b905095945050505050565b6000815190506131ad81612312565b92915050565b6000602082840312156131c9576131c86122dc565b5b60006131d78482850161319e565b91505092915050565b7f4e487b7100000000000000000000000000000000000000000000000000000000600052601260045260246000fd5b7f4552433732313a206d696e7420746f20746865207a65726f2061646472657373600082015250565b60006132456020836123ac565b91506132508261320f565b602082019050919050565b6000602082019050818103600083015261327481613238565b9050919050565b7f4552433732313a20746f6b656e20616c7265616479206d696e74656400000000600082015250565b60006132b1601c836123ac565b91506132bc8261327b565b602082019050919050565b600060208201905081810360008301526132e0816132a4565b905091905056fea2646970667358221220d078dc61b37c1bc8c7d9652799eb9794b8f58deab38f9f7c04e788fd70e9182d64736f6c63430008080033",
  "devdoc": {
    "kind": "dev",
    "methods": {
      "approve(address,uint256)": {
        "details": "See {IERC721-approve}."
      },
      "balanceOf(address)": {
        "details": "See {IERC721-balanceOf}."
      },
      "getApproved(uint256)": {
        "details": "See {IERC721-getApproved}."
      },
      "isApprovedForAll(address,address)": {
        "details": "See {IERC721-isApprovedForAll}."
      },
      "name()": {
        "details": "See {IERC721Metadata-name}."
      },
      "ownerOf(uint256)": {
        "details": "See {IERC721-ownerOf}."
      },
      "safeTransferFrom(address,address,uint256)": {
        "details": "See {IERC721-safeTransferFrom}."
      },
      "safeTransferFrom(address,address,uint256,bytes)": {
        "details": "See {IERC721-safeTransferFrom}."
      },
      "setApprovalForAll(address,bool)": {
        "details": "See {IERC721-setApprovalForAll}."
      },
      "supportsInterface(bytes4)": {
        "details": "See {IERC165-supportsInterface}."
      },
      "symbol()": {
        "details": "See {IERC721Metadata-symbol}."
      },
      "tokenURI(uint256)": {
        "details": "See {IERC721Metadata-tokenURI}."
      },
      "transferFrom(address,address,uint256)": {
        "details": "See {IERC721-transferFrom}."
      }
    },
    "version": 1
  },
  "userdoc": {
    "kind": "user",
    "methods": {},
    "version": 1
  },
  "storageLayout": {
    "storage": [
      {
        "astId": 25,
        "contract": "contracts/BlockSocial.sol:BlockSocial",
        "label": "_name",
        "offset": 0,
        "slot": "0",
        "type": "t_string_storage"
      },
      {
        "astId": 27,
        "contract": "contracts/BlockSocial.sol:BlockSocial",
        "label": "_symbol",
        "offset": 0,
        "slot": "1",
        "type": "t_string_storage"
      },
      {
        "astId": 31,
        "contract": "contracts/BlockSocial.sol:BlockSocial",
        "label": "_owners",
        "offset": 0,
        "slot": "2",
        "type": "t_mapping(t_uint256,t_address)"
      },
      {
        "astId": 35,
        "contract": "contracts/BlockSocial.sol:BlockSocial",
        "label": "_balances",
        "offset": 0,
        "slot": "3",
        "type": "t_mapping(t_address,t_uint256)"
      },
      {
        "astId": 39,
        "contract": "contracts/BlockSocial.sol:BlockSocial",
        "label": "_tokenApprovals",
        "offset": 0,
        "slot": "4",
        "type": "t_mapping(t_uint256,t_address)"
      },
      {
        "astId": 45,
        "contract": "contracts/BlockSocial.sol:BlockSocial",
        "label": "_operatorApprovals",
        "offset": 0,
        "slot": "5",
        "type": "t_mapping(t_address,t_mapping(t_address,t_bool))"
      },
      {
        "astId": 1091,
        "contract": "contracts/BlockSocial.sol:BlockSocial",
        "label": "_tokenURIs",
        "offset": 0,
        "slot": "6",
        "type": "t_mapping(t_uint256,t_string_storage)"
      },
      {
        "astId": 2671,
        "contract": "contracts/BlockSocial.sol:BlockSocial",
        "label": "s_tokenCounter",
        "offset": 0,
        "slot": "7",
        "type": "t_uint256"
      },
      {
        "astId": 2673,
        "contract": "contracts/BlockSocial.sol:BlockSocial",
        "label": "s_postCounter",
        "offset": 0,
        "slot": "8",
        "type": "t_uint256"
      },
      {
        "astId": 2677,
        "contract": "contracts/BlockSocial.sol:BlockSocial",
        "label": "s_tokenIdToLikeCount",
        "offset": 0,
        "slot": "9",
        "type": "t_mapping(t_uint256,t_uint256)"
      },
      {
        "astId": 2683,
        "contract": "contracts/BlockSocial.sol:BlockSocial",
        "label": "s_tokenIdToWhoLiked",
        "offset": 0,
        "slot": "10",
        "type": "t_mapping(t_uint256,t_mapping(t_address,t_bool))"
      }
    ],
    "types": {
      "t_address": {
        "encoding": "inplace",
        "label": "address",
        "numberOfBytes": "20"
      },
      "t_bool": {
        "encoding": "inplace",
        "label": "bool",
        "numberOfBytes": "1"
      },
      "t_mapping(t_address,t_bool)": {
        "encoding": "mapping",
        "key": "t_address",
        "label": "mapping(address => bool)",
        "numberOfBytes": "32",
        "value": "t_bool"
      },
      "t_mapping(t_address,t_mapping(t_address,t_bool))": {
        "encoding": "mapping",
        "key": "t_address",
        "label": "mapping(address => mapping(address => bool))",
        "numberOfBytes": "32",
        "value": "t_mapping(t_address,t_bool)"
      },
      "t_mapping(t_address,t_uint256)": {
        "encoding": "mapping",
        "key": "t_address",
        "label": "mapping(address => uint256)",
        "numberOfBytes": "32",
        "value": "t_uint256"
      },
      "t_mapping(t_uint256,t_address)": {
        "encoding": "mapping",
        "key": "t_uint256",
        "label": "mapping(uint256 => address)",
        "numberOfBytes": "32",
        "value": "t_address"
      },
      "t_mapping(t_uint256,t_mapping(t_address,t_bool))": {
        "encoding": "mapping",
        "key": "t_uint256",
        "label": "mapping(uint256 => mapping(address => bool))",
        "numberOfBytes": "32",
        "value": "t_mapping(t_address,t_bool)"
      },
      "t_mapping(t_uint256,t_string_storage)": {
        "encoding": "mapping",
        "key": "t_uint256",
        "label": "mapping(uint256 => string)",
        "numberOfBytes": "32",
        "value": "t_string_storage"
      },
      "t_mapping(t_uint256,t_uint256)": {
        "encoding": "mapping",
        "key": "t_uint256",
        "label": "mapping(uint256 => uint256)",
        "numberOfBytes": "32",
        "value": "t_uint256"
      },
      "t_string_storage": {
        "encoding": "bytes",
        "label": "string",
        "numberOfBytes": "32"
      },
      "t_uint256": {
        "encoding": "inplace",
        "label": "uint256",
        "numberOfBytes": "32"
      }
    }
  }
}