{
  "address": "0x5FbDB2315678afecb367f032d93F642f64180aa3",
  "abi": [
    {
      "inputs": [],
      "stateMutability": "nonpayable",
      "type": "constructor"
    },
    {
      "inputs": [],
      "name": "BLockSocial_TokenIdNotExist",
      "type": "error"
    },
    {
      "inputs": [],
      "name": "BlockSocial_AlreadyLiked",
      "type": "error"
    },
    {
      "inputs": [],
      "name": "BlockSocial_DidNotEvenLiked",
      "type": "error"
    },
    {
      "anonymous": false,
      "inputs": [
        {
          "indexed": true,
          "internalType": "address",
          "name": "owner",
          "type": "address"
        },
        {
          "indexed": true,
          "internalType": "address",
          "name": "approved",
          "type": "address"
        },
        {
          "indexed": true,
          "internalType": "uint256",
          "name": "tokenId",
          "type": "uint256"
        }
      ],
      "name": "Approval",
      "type": "event"
    },
    {
      "anonymous": false,
      "inputs": [
        {
          "indexed": true,
          "internalType": "address",
          "name": "owner",
          "type": "address"
        },
        {
          "indexed": true,
          "internalType": "address",
          "name": "operator",
          "type": "address"
        },
        {
          "indexed": false,
          "internalType": "bool",
          "name": "approved",
          "type": "bool"
        }
      ],
      "name": "ApprovalForAll",
      "type": "event"
    },
    {
      "anonymous": false,
      "inputs": [
        {
          "indexed": true,
          "internalType": "address",
          "name": "whoDidLike",
          "type": "address"
        },
        {
          "indexed": true,
          "internalType": "uint256",
          "name": "whichPostLiked",
          "type": "uint256"
        },
        {
          "indexed": true,
          "internalType": "uint256",
          "name": "overallLikeCountOfPost",
          "type": "uint256"
        }
      ],
      "name": "Liked",
      "type": "event"
    },
    {
      "anonymous": false,
      "inputs": [
        {
          "indexed": true,
          "internalType": "address",
          "name": "from",
          "type": "address"
        },
        {
          "indexed": true,
          "internalType": "uint256",
          "name": "tokenId",
          "type": "uint256"
        },
        {
          "indexed": true,
          "internalType": "address",
          "name": "nftAddress",
          "type": "address"
        }
      ],
      "name": "MintingFinished",
      "type": "event"
    },
    {
      "anonymous": false,
      "inputs": [
        {
          "indexed": true,
          "internalType": "address",
          "name": "from",
          "type": "address"
        },
        {
          "indexed": true,
          "internalType": "uint256",
          "name": "tokenId",
          "type": "uint256"
        },
        {
          "indexed": true,
          "internalType": "address",
          "name": "nftAddress",
          "type": "address"
        }
      ],
      "name": "MintingRequestReceived",
      "type": "event"
    },
    {
      "anonymous": false,
      "inputs": [
        {
          "indexed": true,
          "internalType": "address",
          "name": "from",
          "type": "address"
        },
        {
          "indexed": true,
          "internalType": "address",
          "name": "to",
          "type": "address"
        },
        {
          "indexed": true,
          "internalType": "uint256",
          "name": "tokenId",
          "type": "uint256"
        }
      ],
      "name": "Transfer",
      "type": "event"
    },
    {
      "anonymous": false,
      "inputs": [
        {
          "indexed": true,
          "internalType": "address",
          "name": "whoDidUnLike",
          "type": "address"
        },
        {
          "indexed": true,
          "internalType": "uint256",
          "name": "whichPostUnLiked",
          "type": "uint256"
        },
        {
          "indexed": true,
          "internalType": "uint256",
          "name": "overallLikeCountOfPost",
          "type": "uint256"
        }
      ],
      "name": "UnLiked",
      "type": "event"
    },
    {
      "inputs": [
        {
          "internalType": "address",
          "name": "to",
          "type": "address"
        },
        {
          "internalType": "uint256",
          "name": "tokenId",
          "type": "uint256"
        }
      ],
      "name": "approve",
      "outputs": [],
      "stateMutability": "nonpayable",
      "type": "function"
    },
    {
      "inputs": [
        {
          "internalType": "address",
          "name": "owner",
          "type": "address"
        }
      ],
      "name": "balanceOf",
      "outputs": [
        {
          "internalType": "uint256",
          "name": "",
          "type": "uint256"
        }
      ],
      "stateMutability": "view",
      "type": "function"
    },
    {
      "inputs": [
        {
          "internalType": "uint256",
          "name": "tokenId",
          "type": "uint256"
        }
      ],
      "name": "getApproved",
      "outputs": [
        {
          "internalType": "address",
          "name": "",
          "type": "address"
        }
      ],
      "stateMutability": "view",
      "type": "function"
    },
    {
      "inputs": [
        {
          "internalType": "uint256",
          "name": "_tokenId",
          "type": "uint256"
        }
      ],
      "name": "getLikeCount",
      "outputs": [
        {
          "internalType": "uint256",
          "name": "likeCount",
          "type": "uint256"
        }
      ],
      "stateMutability": "view",
      "type": "function"
    },
    {
      "inputs": [],
      "name": "getTokenCount",
      "outputs": [
        {
          "internalType": "uint256",
          "name": "tokenCount",
          "type": "uint256"
        }
      ],
      "stateMutability": "view",
      "type": "function"
    },
    {
      "inputs": [
        {
          "internalType": "address",
          "name": "owner",
          "type": "address"
        },
        {
          "internalType": "address",
          "name": "operator",
          "type": "address"
        }
      ],
      "name": "isApprovedForAll",
      "outputs": [
        {
          "internalType": "bool",
          "name": "",
          "type": "bool"
        }
      ],
      "stateMutability": "view",
      "type": "function"
    },
    {
      "inputs": [
        {
          "internalType": "uint256",
          "name": "_tokenId",
          "type": "uint256"
        }
      ],
      "name": "like",
      "outputs": [],
      "stateMutability": "nonpayable",
      "type": "function"
    },
    {
      "inputs": [
        {
          "internalType": "string",
          "name": "_uri",
          "type": "string"
        }
      ],
      "name": "minting",
      "outputs": [],
      "stateMutability": "nonpayable",
      "type": "function"
    },
    {
      "inputs": [],
      "name": "name",
      "outputs": [
        {
          "internalType": "string",
          "name": "",
          "type": "string"
        }
      ],
      "stateMutability": "view",
      "type": "function"
    },
    {
      "inputs": [
        {
          "internalType": "uint256",
          "name": "tokenId",
          "type": "uint256"
        }
      ],
      "name": "ownerOf",
      "outputs": [
        {
          "internalType": "address",
          "name": "",
          "type": "address"
        }
      ],
      "stateMutability": "view",
      "type": "function"
    },
    {
      "inputs": [],
      "name": "s_tokenCounter",
      "outputs": [
        {
          "internalType": "uint256",
          "name": "",
          "type": "uint256"
        }
      ],
      "stateMutability": "view",
      "type": "function"
    },
    {
      "inputs": [
        {
          "internalType": "uint256",
          "name": "",
          "type": "uint256"
        }
      ],
      "name": "s_tokenIdToLikeCount",
      "outputs": [
        {
          "internalType": "uint256",
          "name": "",
          "type": "uint256"
        }
      ],
      "stateMutability": "view",
      "type": "function"
    },
    {
      "inputs": [
        {
          "internalType": "uint256",
          "name": "",
          "type": "uint256"
        },
        {
          "internalType": "address",
          "name": "",
          "type": "address"
        }
      ],
      "name": "s_tokenIdToWhoLiked",
      "outputs": [
        {
          "internalType": "bool",
          "name": "",
          "type": "bool"
        }
      ],
      "stateMutability": "view",
      "type": "function"
    },
    {
      "inputs": [
        {
          "internalType": "address",
          "name": "from",
          "type": "address"
        },
        {
          "internalType": "address",
          "name": "to",
          "type": "address"
        },
        {
          "internalType": "uint256",
          "name": "tokenId",
          "type": "uint256"
        }
      ],
      "name": "safeTransferFrom",
      "outputs": [],
      "stateMutability": "nonpayable",
      "type": "function"
    },
    {
      "inputs": [
        {
          "internalType": "address",
          "name": "from",
          "type": "address"
        },
        {
          "internalType": "address",
          "name": "to",
          "type": "address"
        },
        {
          "internalType": "uint256",
          "name": "tokenId",
          "type": "uint256"
        },
        {
          "internalType": "bytes",
          "name": "data",
          "type": "bytes"
        }
      ],
      "name": "safeTransferFrom",
      "outputs": [],
      "stateMutability": "nonpayable",
      "type": "function"
    },
    {
      "inputs": [
        {
          "internalType": "address",
          "name": "operator",
          "type": "address"
        },
        {
          "internalType": "bool",
          "name": "approved",
          "type": "bool"
        }
      ],
      "name": "setApprovalForAll",
      "outputs": [],
      "stateMutability": "nonpayable",
      "type": "function"
    },
    {
      "inputs": [
        {
          "internalType": "bytes4",
          "name": "interfaceId",
          "type": "bytes4"
        }
      ],
      "name": "supportsInterface",
      "outputs": [
        {
          "internalType": "bool",
          "name": "",
          "type": "bool"
        }
      ],
      "stateMutability": "view",
      "type": "function"
    },
    {
      "inputs": [],
      "name": "symbol",
      "outputs": [
        {
          "internalType": "string",
          "name": "",
          "type": "string"
        }
      ],
      "stateMutability": "view",
      "type": "function"
    },
    {
      "inputs": [
        {
          "internalType": "uint256",
          "name": "tokenId",
          "type": "uint256"
        }
      ],
      "name": "tokenURI",
      "outputs": [
        {
          "internalType": "string",
          "name": "",
          "type": "string"
        }
      ],
      "stateMutability": "view",
      "type": "function"
    },
    {
      "inputs": [
        {
          "internalType": "address",
          "name": "from",
          "type": "address"
        },
        {
          "internalType": "address",
          "name": "to",
          "type": "address"
        },
        {
          "internalType": "uint256",
          "name": "tokenId",
          "type": "uint256"
        }
      ],
      "name": "transferFrom",
      "outputs": [],
      "stateMutability": "nonpayable",
      "type": "function"
    },
    {
      "inputs": [
        {
          "internalType": "uint256",
          "name": "_tokenId",
          "type": "uint256"
        }
      ],
      "name": "unLike",
      "outputs": [],
      "stateMutability": "nonpayable",
      "type": "function"
    }
  ],
  "transactionHash": "0x60bbf1fec4bc2ed25f0023b36476bf86a5547e67c74c22fd29729e4628198184",
  "args": [],
  "numDeployments": 1,
  "solcInputHash": "f2db5cfc2954f4d7314c7857ae5ef071",
  "bytecode": "0x60806040523480156200001157600080fd5b506040518060400160405280600b81526020017f426c6f636b536f6369616c0000000000000000000000000000000000000000008152506040518060400160405280600281526020017f4253000000000000000000000000000000000000000000000000000000000000815250816000908051906020019062000096929190620000c0565b508060019080519060200190620000af929190620000c0565b5050506000600781905550620001d5565b828054620000ce906200019f565b90600052602060002090601f016020900481019282620000f257600085556200013e565b82601f106200010d57805160ff19168380011785556200013e565b828001600101855582156200013e579182015b828111156200013d57825182559160200191906001019062000120565b5b5090506200014d919062000151565b5090565b5b808211156200016c57600081600090555060010162000152565b5090565b7f4e487b7100000000000000000000000000000000000000000000000000000000600052602260045260246000fd5b60006002820490506001821680620001b857607f821691505b60208210811415620001cf57620001ce62000170565b5b50919050565b61311280620001e56000396000f3fe608060405234801561001057600080fd5b50600436106101375760003560e01c806365413b54116100b8578063b88d4fde1161007c578063b88d4fde14610360578063c87b56dd1461037c578063db8461c0146103ac578063dc5d042c146103c8578063e82935da146103f8578063e985e9c51461041457610137565b806365413b54146102a857806370a08231146102d857806378a895671461030857806395d89b4114610326578063a22cb4651461034457610137565b80630bdc9008116100ff5780630bdc9008146101f457806323b872dd1461021057806342842e0e1461022c5780634ef576ad146102485780636352211e1461027857610137565b806301ffc9a71461013c57806306fdde031461016c578063081812fc1461018a578063095ea7b3146101ba5780630b21a83b146101d6575b600080fd5b6101566004803603810190610151919061218f565b610444565b60405161016391906121d7565b60405180910390f35b610174610526565b604051610181919061228b565b60405180910390f35b6101a4600480360381019061019f91906122e3565b6105b8565b6040516101b19190612351565b60405180910390f35b6101d460048036038101906101cf9190612398565b6105fe565b005b6101de610716565b6040516101eb91906123e7565b60405180910390f35b61020e60048036038101906102099190612537565b61071c565b005b61022a60048036038101906102259190612580565b61080b565b005b61024660048036038101906102419190612580565b61086b565b005b610262600480360381019061025d91906122e3565b61088b565b60405161026f91906123e7565b60405180910390f35b610292600480360381019061028d91906122e3565b6108a8565b60405161029f9190612351565b60405180910390f35b6102c260048036038101906102bd91906125d3565b61092f565b6040516102cf91906121d7565b60405180910390f35b6102f260048036038101906102ed9190612613565b61095e565b6040516102ff91906123e7565b60405180910390f35b610310610a16565b60405161031d91906123e7565b60405180910390f35b61032e610a20565b60405161033b919061228b565b60405180910390f35b61035e6004803603810190610359919061266c565b610ab2565b005b61037a6004803603810190610375919061274d565b610ac8565b005b610396600480360381019061039191906122e3565b610b2a565b6040516103a3919061228b565b60405180910390f35b6103c660048036038101906103c191906122e3565b610c3d565b005b6103e260048036038101906103dd91906122e3565b610e15565b6040516103ef91906123e7565b60405180910390f35b610412600480360381019061040d91906122e3565b610e2d565b005b61042e600480360381019061042991906127d0565b611005565b60405161043b91906121d7565b60405180910390f35b60007f80ac58cd000000000000000000000000000000000000000000000000000000007bffffffffffffffffffffffffffffffffffffffffffffffffffffffff1916827bffffffffffffffffffffffffffffffffffffffffffffffffffffffff1916148061050f57507f5b5e139f000000000000000000000000000000000000000000000000000000007bffffffffffffffffffffffffffffffffffffffffffffffffffffffff1916827bffffffffffffffffffffffffffffffffffffffffffffffffffffffff1916145b8061051f575061051e82611099565b5b9050919050565b6060600080546105359061283f565b80601f01602080910402602001604051908101604052809291908181526020018280546105619061283f565b80156105ae5780601f10610583576101008083540402835291602001916105ae565b820191906000526020600020905b81548152906001019060200180831161059157829003601f168201915b5050505050905090565b60006105c382611103565b6004600083815260200190815260200160002060009054906101000a900473ffffffffffffffffffffffffffffffffffffffff169050919050565b6000610609826108a8565b90508073ffffffffffffffffffffffffffffffffffffffff168373ffffffffffffffffffffffffffffffffffffffff16141561067a576040517f08c379a0000000000000000000000000000000000000000000000000000000008152600401610671906128e3565b60405180910390fd5b8073ffffffffffffffffffffffffffffffffffffffff1661069961114e565b73ffffffffffffffffffffffffffffffffffffffff1614806106c857506106c7816106c261114e565b611005565b5b610707576040517f08c379a00000000000000000000000000000000000000000000000000000000081526004016106fe90612975565b60405180910390fd5b6107118383611156565b505050565b60075481565b3073ffffffffffffffffffffffffffffffffffffffff166007543373ffffffffffffffffffffffffffffffffffffffff167fca65b2c6e61c29692187c659e9c6e6a3397b0c7f0a85418bb884819aee48f6a260405160405180910390a46107853360075461120f565b6107916007548261122d565b3073ffffffffffffffffffffffffffffffffffffffff166007543373ffffffffffffffffffffffffffffffffffffffff167f36a72fb95dbfe6a80cf4cb143d21a2c6939a8d2f2345d6f321ac2f6206b1f99b60405160405180910390a460016007600082825461080191906129c4565b9250508190555050565b61081c61081661114e565b826112a1565b61085b576040517f08c379a000000000000000000000000000000000000000000000000000000000815260040161085290612a8c565b60405180910390fd5b610866838383611336565b505050565b61088683838360405180602001604052806000815250610ac8565b505050565b600060086000838152602001908152602001600020549050919050565b6000806108b483611630565b9050600073ffffffffffffffffffffffffffffffffffffffff168173ffffffffffffffffffffffffffffffffffffffff161415610926576040517f08c379a000000000000000000000000000000000000000000000000000000000815260040161091d90612af8565b60405180910390fd5b80915050919050565b60096020528160005260406000206020528060005260406000206000915091509054906101000a900460ff1681565b60008073ffffffffffffffffffffffffffffffffffffffff168273ffffffffffffffffffffffffffffffffffffffff1614156109cf576040517f08c379a00000000000000000000000000000000000000000000000000000000081526004016109c690612b8a565b60405180910390fd5b600360008373ffffffffffffffffffffffffffffffffffffffff1673ffffffffffffffffffffffffffffffffffffffff168152602001908152602001600020549050919050565b6000600754905090565b606060018054610a2f9061283f565b80601f0160208091040260200160405190810160405280929190818152602001828054610a5b9061283f565b8015610aa85780601f10610a7d57610100808354040283529160200191610aa8565b820191906000526020600020905b815481529060010190602001808311610a8b57829003601f168201915b5050505050905090565b610ac4610abd61114e565b838361166d565b5050565b610ad9610ad361114e565b836112a1565b610b18576040517f08c379a0000000000000000000000000000000000000000000000000000000008152600401610b0f90612a8c565b60405180910390fd5b610b24848484846117da565b50505050565b6060610b3582611103565b6000600660008481526020019081526020016000208054610b559061283f565b80601f0160208091040260200160405190810160405280929190818152602001828054610b819061283f565b8015610bce5780601f10610ba357610100808354040283529160200191610bce565b820191906000526020600020905b815481529060010190602001808311610bb157829003601f168201915b505050505090506000610bdf611836565b9050600081511415610bf5578192505050610c38565b600082511115610c2a578082604051602001610c12929190612be6565b60405160208183030381529060405292505050610c38565b610c338461184d565b925050505b919050565b6001600754610c4c9190612c0a565b811115610c85576040517fbc10bcea00000000000000000000000000000000000000000000000000000000815260040160405180910390fd5b600015156009600083815260200190815260200160002060003373ffffffffffffffffffffffffffffffffffffffff1673ffffffffffffffffffffffffffffffffffffffff16815260200190815260200160002060009054906101000a900460ff1615151415610d21576040517f1dddd0eb00000000000000000000000000000000000000000000000000000000815260040160405180910390fd5b60006009600083815260200190815260200160002060003373ffffffffffffffffffffffffffffffffffffffff1673ffffffffffffffffffffffffffffffffffffffff16815260200190815260200160002060006101000a81548160ff0219169083151502179055506000600860008381526020019081526020016000205490506000600182610db19190612c0a565b905080600860008581526020019081526020016000208190555080833373ffffffffffffffffffffffffffffffffffffffff167fe2396e9054558aff00ad7c3bc6edd310667fafbc7ea91ff20712760b7832873660405160405180910390a4505050565b60086020528060005260406000206000915090505481565b6001600754610e3c9190612c0a565b811115610e75576040517fbc10bcea00000000000000000000000000000000000000000000000000000000815260040160405180910390fd5b600115156009600083815260200190815260200160002060003373ffffffffffffffffffffffffffffffffffffffff1673ffffffffffffffffffffffffffffffffffffffff16815260200190815260200160002060009054906101000a900460ff1615151415610f11576040517f4a2f422100000000000000000000000000000000000000000000000000000000815260040160405180910390fd5b60016009600083815260200190815260200160002060003373ffffffffffffffffffffffffffffffffffffffff1673ffffffffffffffffffffffffffffffffffffffff16815260200190815260200160002060006101000a81548160ff0219169083151502179055506000600860008381526020019081526020016000205490506000600182610fa191906129c4565b905080600860008581526020019081526020016000208190555080833373ffffffffffffffffffffffffffffffffffffffff167f88bb3938380c70e543fd5f4cbd8a7642dad94b8242d9dd9130759c4c52fc23b560405160405180910390a4505050565b6000600560008473ffffffffffffffffffffffffffffffffffffffff1673ffffffffffffffffffffffffffffffffffffffff16815260200190815260200160002060008373ffffffffffffffffffffffffffffffffffffffff1673ffffffffffffffffffffffffffffffffffffffff16815260200190815260200160002060009054906101000a900460ff16905092915050565b60007f01ffc9a7000000000000000000000000000000000000000000000000000000007bffffffffffffffffffffffffffffffffffffffffffffffffffffffff1916827bffffffffffffffffffffffffffffffffffffffffffffffffffffffff1916149050919050565b61110c816118b5565b61114b576040517f08c379a000000000000000000000000000000000000000000000000000000000815260040161114290612af8565b60405180910390fd5b50565b600033905090565b816004600083815260200190815260200160002060006101000a81548173ffffffffffffffffffffffffffffffffffffffff021916908373ffffffffffffffffffffffffffffffffffffffff160217905550808273ffffffffffffffffffffffffffffffffffffffff166111c9836108a8565b73ffffffffffffffffffffffffffffffffffffffff167f8c5be1e5ebec7d5bd14f71427d1e84f3dd0314c0f7b2291e5b200ac8c7c3b92560405160405180910390a45050565b6112298282604051806020016040528060008152506118f6565b5050565b611236826118b5565b611275576040517f08c379a000000000000000000000000000000000000000000000000000000000815260040161126c90612cb0565b60405180910390fd5b8060066000848152602001908152602001600020908051906020019061129c929190612080565b505050565b6000806112ad836108a8565b90508073ffffffffffffffffffffffffffffffffffffffff168473ffffffffffffffffffffffffffffffffffffffff1614806112ef57506112ee8185611005565b5b8061132d57508373ffffffffffffffffffffffffffffffffffffffff16611315846105b8565b73ffffffffffffffffffffffffffffffffffffffff16145b91505092915050565b8273ffffffffffffffffffffffffffffffffffffffff16611356826108a8565b73ffffffffffffffffffffffffffffffffffffffff16146113ac576040517f08c379a00000000000000000000000000000000000000000000000000000000081526004016113a390612d42565b60405180910390fd5b600073ffffffffffffffffffffffffffffffffffffffff168273ffffffffffffffffffffffffffffffffffffffff16141561141c576040517f08c379a000000000000000000000000000000000000000000000000000000000815260040161141390612dd4565b60405180910390fd5b6114298383836001611951565b8273ffffffffffffffffffffffffffffffffffffffff16611449826108a8565b73ffffffffffffffffffffffffffffffffffffffff161461149f576040517f08c379a000000000000000000000000000000000000000000000000000000000815260040161149690612d42565b60405180910390fd5b6004600082815260200190815260200160002060006101000a81549073ffffffffffffffffffffffffffffffffffffffff02191690556001600360008573ffffffffffffffffffffffffffffffffffffffff1673ffffffffffffffffffffffffffffffffffffffff168152602001908152602001600020600082825403925050819055506001600360008473ffffffffffffffffffffffffffffffffffffffff1673ffffffffffffffffffffffffffffffffffffffff16815260200190815260200160002060008282540192505081905550816002600083815260200190815260200160002060006101000a81548173ffffffffffffffffffffffffffffffffffffffff021916908373ffffffffffffffffffffffffffffffffffffffff160217905550808273ffffffffffffffffffffffffffffffffffffffff168473ffffffffffffffffffffffffffffffffffffffff167fddf252ad1be2c89b69c2b068fc378daa952ba7f163c4a11628f55a4df523b3ef60405160405180910390a461162b8383836001611a77565b505050565b60006002600083815260200190815260200160002060009054906101000a900473ffffffffffffffffffffffffffffffffffffffff169050919050565b8173ffffffffffffffffffffffffffffffffffffffff168373ffffffffffffffffffffffffffffffffffffffff1614156116dc576040517f08c379a00000000000000000000000000000000000000000000000000000000081526004016116d390612e40565b60405180910390fd5b80600560008573ffffffffffffffffffffffffffffffffffffffff1673ffffffffffffffffffffffffffffffffffffffff16815260200190815260200160002060008473ffffffffffffffffffffffffffffffffffffffff1673ffffffffffffffffffffffffffffffffffffffff16815260200190815260200160002060006101000a81548160ff0219169083151502179055508173ffffffffffffffffffffffffffffffffffffffff168373ffffffffffffffffffffffffffffffffffffffff167f17307eab39ab6107e8899845ad3d59bd9653f200f220920489ca2b5937696c31836040516117cd91906121d7565b60405180910390a3505050565b6117e5848484611336565b6117f184848484611a7d565b611830576040517f08c379a000000000000000000000000000000000000000000000000000000000815260040161182790612ed2565b60405180910390fd5b50505050565b606060405180602001604052806000815250905090565b606061185882611103565b6000611862611836565b9050600081511161188257604051806020016040528060008152506118ad565b8061188c84611c14565b60405160200161189d929190612be6565b6040516020818303038152906040525b915050919050565b60008073ffffffffffffffffffffffffffffffffffffffff166118d783611630565b73ffffffffffffffffffffffffffffffffffffffff1614159050919050565b6119008383611cec565b61190d6000848484611a7d565b61194c576040517f08c379a000000000000000000000000000000000000000000000000000000000815260040161194390612ed2565b60405180910390fd5b505050565b6001811115611a7157600073ffffffffffffffffffffffffffffffffffffffff168473ffffffffffffffffffffffffffffffffffffffff16146119e55780600360008673ffffffffffffffffffffffffffffffffffffffff1673ffffffffffffffffffffffffffffffffffffffff16815260200190815260200160002060008282546119dd9190612c0a565b925050819055505b600073ffffffffffffffffffffffffffffffffffffffff168373ffffffffffffffffffffffffffffffffffffffff1614611a705780600360008573ffffffffffffffffffffffffffffffffffffffff1673ffffffffffffffffffffffffffffffffffffffff1681526020019081526020016000206000828254611a6891906129c4565b925050819055505b5b50505050565b50505050565b6000611a9e8473ffffffffffffffffffffffffffffffffffffffff16611f0a565b15611c07578373ffffffffffffffffffffffffffffffffffffffff1663150b7a02611ac761114e565b8786866040518563ffffffff1660e01b8152600401611ae99493929190612f47565b602060405180830381600087803b158015611b0357600080fd5b505af1925050508015611b3457506040513d601f19601f82011682018060405250810190611b319190612fa8565b60015b611bb7573d8060008114611b64576040519150601f19603f3d011682016040523d82523d6000602084013e611b69565b606091505b50600081511415611baf576040517f08c379a0000000000000000000000000000000000000000000000000000000008152600401611ba690612ed2565b60405180910390fd5b805181602001fd5b63150b7a0260e01b7bffffffffffffffffffffffffffffffffffffffffffffffffffffffff1916817bffffffffffffffffffffffffffffffffffffffffffffffffffffffff191614915050611c0c565b600190505b949350505050565b606060006001611c2384611f2d565b01905060008167ffffffffffffffff811115611c4257611c4161240c565b5b6040519080825280601f01601f191660200182016040528015611c745781602001600182028036833780820191505090505b509050600082602001820190505b600115611ce1578080600190039150507f3031323334353637383961626364656600000000000000000000000000000000600a86061a8153600a8581611ccb57611cca612fd5565b5b0494506000851415611cdc57611ce1565b611c82565b819350505050919050565b600073ffffffffffffffffffffffffffffffffffffffff168273ffffffffffffffffffffffffffffffffffffffff161415611d5c576040517f08c379a0000000000000000000000000000000000000000000000000000000008152600401611d5390613050565b60405180910390fd5b611d65816118b5565b15611da5576040517f08c379a0000000000000000000000000000000000000000000000000000000008152600401611d9c906130bc565b60405180910390fd5b611db3600083836001611951565b611dbc816118b5565b15611dfc576040517f08c379a0000000000000000000000000000000000000000000000000000000008152600401611df3906130bc565b60405180910390fd5b6001600360008473ffffffffffffffffffffffffffffffffffffffff1673ffffffffffffffffffffffffffffffffffffffff16815260200190815260200160002060008282540192505081905550816002600083815260200190815260200160002060006101000a81548173ffffffffffffffffffffffffffffffffffffffff021916908373ffffffffffffffffffffffffffffffffffffffff160217905550808273ffffffffffffffffffffffffffffffffffffffff16600073ffffffffffffffffffffffffffffffffffffffff167fddf252ad1be2c89b69c2b068fc378daa952ba7f163c4a11628f55a4df523b3ef60405160405180910390a4611f06600083836001611a77565b5050565b6000808273ffffffffffffffffffffffffffffffffffffffff163b119050919050565b600080600090507a184f03e93ff9f4daa797ed6e38ed64bf6a1f0100000000000000008310611f8b577a184f03e93ff9f4daa797ed6e38ed64bf6a1f0100000000000000008381611f8157611f80612fd5565b5b0492506040810190505b6d04ee2d6d415b85acef81000000008310611fc8576d04ee2d6d415b85acef81000000008381611fbe57611fbd612fd5565b5b0492506020810190505b662386f26fc100008310611ff757662386f26fc100008381611fed57611fec612fd5565b5b0492506010810190505b6305f5e1008310612020576305f5e100838161201657612015612fd5565b5b0492506008810190505b612710831061204557612710838161203b5761203a612fd5565b5b0492506004810190505b60648310612068576064838161205e5761205d612fd5565b5b0492506002810190505b600a8310612077576001810190505b80915050919050565b82805461208c9061283f565b90600052602060002090601f0160209004810192826120ae57600085556120f5565b82601f106120c757805160ff19168380011785556120f5565b828001600101855582156120f5579182015b828111156120f45782518255916020019190600101906120d9565b5b5090506121029190612106565b5090565b5b8082111561211f576000816000905550600101612107565b5090565b6000604051905090565b600080fd5b600080fd5b60007fffffffff0000000000000000000000000000000000000000000000000000000082169050919050565b61216c81612137565b811461217757600080fd5b50565b60008135905061218981612163565b92915050565b6000602082840312156121a5576121a461212d565b5b60006121b38482850161217a565b91505092915050565b60008115159050919050565b6121d1816121bc565b82525050565b60006020820190506121ec60008301846121c8565b92915050565b600081519050919050565b600082825260208201905092915050565b60005b8381101561222c578082015181840152602081019050612211565b8381111561223b576000848401525b50505050565b6000601f19601f8301169050919050565b600061225d826121f2565b61226781856121fd565b935061227781856020860161220e565b61228081612241565b840191505092915050565b600060208201905081810360008301526122a58184612252565b905092915050565b6000819050919050565b6122c0816122ad565b81146122cb57600080fd5b50565b6000813590506122dd816122b7565b92915050565b6000602082840312156122f9576122f861212d565b5b6000612307848285016122ce565b91505092915050565b600073ffffffffffffffffffffffffffffffffffffffff82169050919050565b600061233b82612310565b9050919050565b61234b81612330565b82525050565b60006020820190506123666000830184612342565b92915050565b61237581612330565b811461238057600080fd5b50565b6000813590506123928161236c565b92915050565b600080604083850312156123af576123ae61212d565b5b60006123bd85828601612383565b92505060206123ce858286016122ce565b9150509250929050565b6123e1816122ad565b82525050565b60006020820190506123fc60008301846123d8565b92915050565b600080fd5b600080fd5b7f4e487b7100000000000000000000000000000000000000000000000000000000600052604160045260246000fd5b61244482612241565b810181811067ffffffffffffffff821117156124635761246261240c565b5b80604052505050565b6000612476612123565b9050612482828261243b565b919050565b600067ffffffffffffffff8211156124a2576124a161240c565b5b6124ab82612241565b9050602081019050919050565b82818337600083830152505050565b60006124da6124d584612487565b61246c565b9050828152602081018484840111156124f6576124f5612407565b5b6125018482856124b8565b509392505050565b600082601f83011261251e5761251d612402565b5b813561252e8482602086016124c7565b91505092915050565b60006020828403121561254d5761254c61212d565b5b600082013567ffffffffffffffff81111561256b5761256a612132565b5b61257784828501612509565b91505092915050565b6000806000606084860312156125995761259861212d565b5b60006125a786828701612383565b93505060206125b886828701612383565b92505060406125c9868287016122ce565b9150509250925092565b600080604083850312156125ea576125e961212d565b5b60006125f8858286016122ce565b925050602061260985828601612383565b9150509250929050565b6000602082840312156126295761262861212d565b5b600061263784828501612383565b91505092915050565b612649816121bc565b811461265457600080fd5b50565b60008135905061266681612640565b92915050565b600080604083850312156126835761268261212d565b5b600061269185828601612383565b92505060206126a285828601612657565b9150509250929050565b600067ffffffffffffffff8211156126c7576126c661240c565b5b6126d082612241565b9050602081019050919050565b60006126f06126eb846126ac565b61246c565b90508281526020810184848401111561270c5761270b612407565b5b6127178482856124b8565b509392505050565b600082601f83011261273457612733612402565b5b81356127448482602086016126dd565b91505092915050565b600080600080608085870312156127675761276661212d565b5b600061277587828801612383565b945050602061278687828801612383565b9350506040612797878288016122ce565b925050606085013567ffffffffffffffff8111156127b8576127b7612132565b5b6127c48782880161271f565b91505092959194509250565b600080604083850312156127e7576127e661212d565b5b60006127f585828601612383565b925050602061280685828601612383565b9150509250929050565b7f4e487b7100000000000000000000000000000000000000000000000000000000600052602260045260246000fd5b6000600282049050600182168061285757607f821691505b6020821081141561286b5761286a612810565b5b50919050565b7f4552433732313a20617070726f76616c20746f2063757272656e74206f776e6560008201527f7200000000000000000000000000000000000000000000000000000000000000602082015250565b60006128cd6021836121fd565b91506128d882612871565b604082019050919050565b600060208201905081810360008301526128fc816128c0565b9050919050565b7f4552433732313a20617070726f76652063616c6c6572206973206e6f7420746f60008201527f6b656e206f776e6572206f7220617070726f76656420666f7220616c6c000000602082015250565b600061295f603d836121fd565b915061296a82612903565b604082019050919050565b6000602082019050818103600083015261298e81612952565b9050919050565b7f4e487b7100000000000000000000000000000000000000000000000000000000600052601160045260246000fd5b60006129cf826122ad565b91506129da836122ad565b9250827fffffffffffffffffffffffffffffffffffffffffffffffffffffffffffffffff03821115612a0f57612a0e612995565b5b828201905092915050565b7f4552433732313a2063616c6c6572206973206e6f7420746f6b656e206f776e6560008201527f72206f7220617070726f76656400000000000000000000000000000000000000602082015250565b6000612a76602d836121fd565b9150612a8182612a1a565b604082019050919050565b60006020820190508181036000830152612aa581612a69565b9050919050565b7f4552433732313a20696e76616c696420746f6b656e2049440000000000000000600082015250565b6000612ae26018836121fd565b9150612aed82612aac565b602082019050919050565b60006020820190508181036000830152612b1181612ad5565b9050919050565b7f4552433732313a2061646472657373207a65726f206973206e6f74206120766160008201527f6c6964206f776e65720000000000000000000000000000000000000000000000602082015250565b6000612b746029836121fd565b9150612b7f82612b18565b604082019050919050565b60006020820190508181036000830152612ba381612b67565b9050919050565b600081905092915050565b6000612bc0826121f2565b612bca8185612baa565b9350612bda81856020860161220e565b80840191505092915050565b6000612bf28285612bb5565b9150612bfe8284612bb5565b91508190509392505050565b6000612c15826122ad565b9150612c20836122ad565b925082821015612c3357612c32612995565b5b828203905092915050565b7f45524337323155524953746f726167653a2055524920736574206f66206e6f6e60008201527f6578697374656e7420746f6b656e000000000000000000000000000000000000602082015250565b6000612c9a602e836121fd565b9150612ca582612c3e565b604082019050919050565b60006020820190508181036000830152612cc981612c8d565b9050919050565b7f4552433732313a207472616e736665722066726f6d20696e636f72726563742060008201527f6f776e6572000000000000000000000000000000000000000000000000000000602082015250565b6000612d2c6025836121fd565b9150612d3782612cd0565b604082019050919050565b60006020820190508181036000830152612d5b81612d1f565b9050919050565b7f4552433732313a207472616e7366657220746f20746865207a65726f2061646460008201527f7265737300000000000000000000000000000000000000000000000000000000602082015250565b6000612dbe6024836121fd565b9150612dc982612d62565b604082019050919050565b60006020820190508181036000830152612ded81612db1565b9050919050565b7f4552433732313a20617070726f766520746f2063616c6c657200000000000000600082015250565b6000612e2a6019836121fd565b9150612e3582612df4565b602082019050919050565b60006020820190508181036000830152612e5981612e1d565b9050919050565b7f4552433732313a207472616e7366657220746f206e6f6e20455243373231526560008201527f63656976657220696d706c656d656e7465720000000000000000000000000000602082015250565b6000612ebc6032836121fd565b9150612ec782612e60565b604082019050919050565b60006020820190508181036000830152612eeb81612eaf565b9050919050565b600081519050919050565b600082825260208201905092915050565b6000612f1982612ef2565b612f238185612efd565b9350612f3381856020860161220e565b612f3c81612241565b840191505092915050565b6000608082019050612f5c6000830187612342565b612f696020830186612342565b612f7660408301856123d8565b8181036060830152612f888184612f0e565b905095945050505050565b600081519050612fa281612163565b92915050565b600060208284031215612fbe57612fbd61212d565b5b6000612fcc84828501612f93565b91505092915050565b7f4e487b7100000000000000000000000000000000000000000000000000000000600052601260045260246000fd5b7f4552433732313a206d696e7420746f20746865207a65726f2061646472657373600082015250565b600061303a6020836121fd565b915061304582613004565b602082019050919050565b600060208201905081810360008301526130698161302d565b9050919050565b7f4552433732313a20746f6b656e20616c7265616479206d696e74656400000000600082015250565b60006130a6601c836121fd565b91506130b182613070565b602082019050919050565b600060208201905081810360008301526130d581613099565b905091905056fea26469706673582212200e3175dbe8b8f4c09775ec3b8cac00cd31287fe38f897d273591918010149c3864736f6c63430008080033",
  "devdoc": {
    "kind": "dev",
    "methods": {
      "approve(address,uint256)": {
        "details": "See {IERC721-approve}."
      },
      "balanceOf(address)": {
        "details": "See {IERC721-balanceOf}."
      },
      "getApproved(uint256)": {
        "details": "See {IERC721-getApproved}."
      },
      "isApprovedForAll(address,address)": {
        "details": "See {IERC721-isApprovedForAll}."
      },
      "name()": {
        "details": "See {IERC721Metadata-name}."
      },
      "ownerOf(uint256)": {
        "details": "See {IERC721-ownerOf}."
      },
      "safeTransferFrom(address,address,uint256)": {
        "details": "See {IERC721-safeTransferFrom}."
      },
      "safeTransferFrom(address,address,uint256,bytes)": {
        "details": "See {IERC721-safeTransferFrom}."
      },
      "setApprovalForAll(address,bool)": {
        "details": "See {IERC721-setApprovalForAll}."
      },
      "supportsInterface(bytes4)": {
        "details": "See {IERC165-supportsInterface}."
      },
      "symbol()": {
        "details": "See {IERC721Metadata-symbol}."
      },
      "tokenURI(uint256)": {
        "details": "See {IERC721Metadata-tokenURI}."
      },
      "transferFrom(address,address,uint256)": {
        "details": "See {IERC721-transferFrom}."
      }
    },
    "version": 1
  },
  "userdoc": {
    "kind": "user",
    "methods": {},
    "version": 1
  },
  "storageLayout": {
    "storage": [
      {
        "astId": 25,
        "contract": "contracts/BlockSocial.sol:BlockSocial",
        "label": "_name",
        "offset": 0,
        "slot": "0",
        "type": "t_string_storage"
      },
      {
        "astId": 27,
        "contract": "contracts/BlockSocial.sol:BlockSocial",
        "label": "_symbol",
        "offset": 0,
        "slot": "1",
        "type": "t_string_storage"
      },
      {
        "astId": 31,
        "contract": "contracts/BlockSocial.sol:BlockSocial",
        "label": "_owners",
        "offset": 0,
        "slot": "2",
        "type": "t_mapping(t_uint256,t_address)"
      },
      {
        "astId": 35,
        "contract": "contracts/BlockSocial.sol:BlockSocial",
        "label": "_balances",
        "offset": 0,
        "slot": "3",
        "type": "t_mapping(t_address,t_uint256)"
      },
      {
        "astId": 39,
        "contract": "contracts/BlockSocial.sol:BlockSocial",
        "label": "_tokenApprovals",
        "offset": 0,
        "slot": "4",
        "type": "t_mapping(t_uint256,t_address)"
      },
      {
        "astId": 45,
        "contract": "contracts/BlockSocial.sol:BlockSocial",
        "label": "_operatorApprovals",
        "offset": 0,
        "slot": "5",
        "type": "t_mapping(t_address,t_mapping(t_address,t_bool))"
      },
      {
        "astId": 1091,
        "contract": "contracts/BlockSocial.sol:BlockSocial",
        "label": "_tokenURIs",
        "offset": 0,
        "slot": "6",
        "type": "t_mapping(t_uint256,t_string_storage)"
      },
      {
        "astId": 2671,
        "contract": "contracts/BlockSocial.sol:BlockSocial",
        "label": "s_tokenCounter",
        "offset": 0,
        "slot": "7",
        "type": "t_uint256"
      },
      {
        "astId": 2675,
        "contract": "contracts/BlockSocial.sol:BlockSocial",
        "label": "s_tokenIdToLikeCount",
        "offset": 0,
        "slot": "8",
        "type": "t_mapping(t_uint256,t_uint256)"
      },
      {
        "astId": 2681,
        "contract": "contracts/BlockSocial.sol:BlockSocial",
        "label": "s_tokenIdToWhoLiked",
        "offset": 0,
        "slot": "9",
        "type": "t_mapping(t_uint256,t_mapping(t_address,t_bool))"
      }
    ],
    "types": {
      "t_address": {
        "encoding": "inplace",
        "label": "address",
        "numberOfBytes": "20"
      },
      "t_bool": {
        "encoding": "inplace",
        "label": "bool",
        "numberOfBytes": "1"
      },
      "t_mapping(t_address,t_bool)": {
        "encoding": "mapping",
        "key": "t_address",
        "label": "mapping(address => bool)",
        "numberOfBytes": "32",
        "value": "t_bool"
      },
      "t_mapping(t_address,t_mapping(t_address,t_bool))": {
        "encoding": "mapping",
        "key": "t_address",
        "label": "mapping(address => mapping(address => bool))",
        "numberOfBytes": "32",
        "value": "t_mapping(t_address,t_bool)"
      },
      "t_mapping(t_address,t_uint256)": {
        "encoding": "mapping",
        "key": "t_address",
        "label": "mapping(address => uint256)",
        "numberOfBytes": "32",
        "value": "t_uint256"
      },
      "t_mapping(t_uint256,t_address)": {
        "encoding": "mapping",
        "key": "t_uint256",
        "label": "mapping(uint256 => address)",
        "numberOfBytes": "32",
        "value": "t_address"
      },
      "t_mapping(t_uint256,t_mapping(t_address,t_bool))": {
        "encoding": "mapping",
        "key": "t_uint256",
        "label": "mapping(uint256 => mapping(address => bool))",
        "numberOfBytes": "32",
        "value": "t_mapping(t_address,t_bool)"
      },
      "t_mapping(t_uint256,t_string_storage)": {
        "encoding": "mapping",
        "key": "t_uint256",
        "label": "mapping(uint256 => string)",
        "numberOfBytes": "32",
        "value": "t_string_storage"
      },
      "t_mapping(t_uint256,t_uint256)": {
        "encoding": "mapping",
        "key": "t_uint256",
        "label": "mapping(uint256 => uint256)",
        "numberOfBytes": "32",
        "value": "t_uint256"
      },
      "t_string_storage": {
        "encoding": "bytes",
        "label": "string",
        "numberOfBytes": "32"
      },
      "t_uint256": {
        "encoding": "inplace",
        "label": "uint256",
        "numberOfBytes": "32"
      }
    }
  }
}