{
  "address": "0xC1f6818129f8791d35516a0FFD4eF8B586A6862D",
  "abi": [
    {
      "inputs": [],
      "stateMutability": "nonpayable",
      "type": "constructor"
    },
    {
      "inputs": [],
      "name": "BLockSocial_TokenIdNotExist",
      "type": "error"
    },
    {
      "inputs": [],
      "name": "BlockSocial_AlreadyLiked",
      "type": "error"
    },
    {
      "inputs": [],
      "name": "BlockSocial_DidNotEvenLiked",
      "type": "error"
    },
    {
      "anonymous": false,
      "inputs": [
        {
          "indexed": true,
          "internalType": "address",
          "name": "owner",
          "type": "address"
        },
        {
          "indexed": true,
          "internalType": "address",
          "name": "approved",
          "type": "address"
        },
        {
          "indexed": true,
          "internalType": "uint256",
          "name": "tokenId",
          "type": "uint256"
        }
      ],
      "name": "Approval",
      "type": "event"
    },
    {
      "anonymous": false,
      "inputs": [
        {
          "indexed": true,
          "internalType": "address",
          "name": "owner",
          "type": "address"
        },
        {
          "indexed": true,
          "internalType": "address",
          "name": "operator",
          "type": "address"
        },
        {
          "indexed": false,
          "internalType": "bool",
          "name": "approved",
          "type": "bool"
        }
      ],
      "name": "ApprovalForAll",
      "type": "event"
    },
    {
      "anonymous": false,
      "inputs": [
        {
          "indexed": true,
          "internalType": "address",
          "name": "whoDidLike",
          "type": "address"
        },
        {
          "indexed": true,
          "internalType": "uint256",
          "name": "whichPostLiked",
          "type": "uint256"
        },
        {
          "indexed": true,
          "internalType": "uint256",
          "name": "overallLikeCountOfPost",
          "type": "uint256"
        }
      ],
      "name": "Liked",
      "type": "event"
    },
    {
      "anonymous": false,
      "inputs": [
        {
          "indexed": true,
          "internalType": "address",
          "name": "from",
          "type": "address"
        },
        {
          "indexed": true,
          "internalType": "uint256",
          "name": "tokenId",
          "type": "uint256"
        },
        {
          "indexed": true,
          "internalType": "address",
          "name": "nftAddress",
          "type": "address"
        }
      ],
      "name": "MintingFinished",
      "type": "event"
    },
    {
      "anonymous": false,
      "inputs": [
        {
          "indexed": true,
          "internalType": "address",
          "name": "from",
          "type": "address"
        },
        {
          "indexed": true,
          "internalType": "uint256",
          "name": "tokenId",
          "type": "uint256"
        },
        {
          "indexed": true,
          "internalType": "address",
          "name": "nftAddress",
          "type": "address"
        }
      ],
      "name": "MintingRequestReceived",
      "type": "event"
    },
    {
      "anonymous": false,
      "inputs": [
        {
          "indexed": true,
          "internalType": "address",
          "name": "from",
          "type": "address"
        },
        {
          "indexed": true,
          "internalType": "address",
          "name": "to",
          "type": "address"
        },
        {
          "indexed": true,
          "internalType": "uint256",
          "name": "tokenId",
          "type": "uint256"
        }
      ],
      "name": "Transfer",
      "type": "event"
    },
    {
      "anonymous": false,
      "inputs": [
        {
          "indexed": true,
          "internalType": "address",
          "name": "whoDidUnLike",
          "type": "address"
        },
        {
          "indexed": true,
          "internalType": "uint256",
          "name": "whichPostUnLiked",
          "type": "uint256"
        },
        {
          "indexed": true,
          "internalType": "uint256",
          "name": "overallLikeCountOfPost",
          "type": "uint256"
        }
      ],
      "name": "UnLiked",
      "type": "event"
    },
    {
      "inputs": [
        {
          "internalType": "address",
          "name": "to",
          "type": "address"
        },
        {
          "internalType": "uint256",
          "name": "tokenId",
          "type": "uint256"
        }
      ],
      "name": "approve",
      "outputs": [],
      "stateMutability": "nonpayable",
      "type": "function"
    },
    {
      "inputs": [
        {
          "internalType": "address",
          "name": "owner",
          "type": "address"
        }
      ],
      "name": "balanceOf",
      "outputs": [
        {
          "internalType": "uint256",
          "name": "",
          "type": "uint256"
        }
      ],
      "stateMutability": "view",
      "type": "function"
    },
    {
      "inputs": [
        {
          "internalType": "uint256",
          "name": "tokenId",
          "type": "uint256"
        }
      ],
      "name": "getApproved",
      "outputs": [
        {
          "internalType": "address",
          "name": "",
          "type": "address"
        }
      ],
      "stateMutability": "view",
      "type": "function"
    },
    {
      "inputs": [
        {
          "internalType": "uint256",
          "name": "_tokenId",
          "type": "uint256"
        },
        {
          "internalType": "address",
          "name": "_personAddress",
          "type": "address"
        }
      ],
      "name": "getIsThisPersonLikedThisPost",
      "outputs": [
        {
          "internalType": "bool",
          "name": "",
          "type": "bool"
        }
      ],
      "stateMutability": "view",
      "type": "function"
    },
    {
      "inputs": [
        {
          "internalType": "uint256",
          "name": "_tokenId",
          "type": "uint256"
        }
      ],
      "name": "getLikeCount",
      "outputs": [
        {
          "internalType": "uint256",
          "name": "likeCount",
          "type": "uint256"
        }
      ],
      "stateMutability": "view",
      "type": "function"
    },
    {
      "inputs": [],
      "name": "getTokenCount",
      "outputs": [
        {
          "internalType": "uint256",
          "name": "tokenCount",
          "type": "uint256"
        }
      ],
      "stateMutability": "view",
      "type": "function"
    },
    {
      "inputs": [
        {
          "internalType": "address",
          "name": "owner",
          "type": "address"
        },
        {
          "internalType": "address",
          "name": "operator",
          "type": "address"
        }
      ],
      "name": "isApprovedForAll",
      "outputs": [
        {
          "internalType": "bool",
          "name": "",
          "type": "bool"
        }
      ],
      "stateMutability": "view",
      "type": "function"
    },
    {
      "inputs": [
        {
          "internalType": "uint256",
          "name": "_tokenId",
          "type": "uint256"
        }
      ],
      "name": "like",
      "outputs": [],
      "stateMutability": "nonpayable",
      "type": "function"
    },
    {
      "inputs": [
        {
          "internalType": "string",
          "name": "_uri",
          "type": "string"
        }
      ],
      "name": "minting",
      "outputs": [],
      "stateMutability": "nonpayable",
      "type": "function"
    },
    {
      "inputs": [],
      "name": "name",
      "outputs": [
        {
          "internalType": "string",
          "name": "",
          "type": "string"
        }
      ],
      "stateMutability": "view",
      "type": "function"
    },
    {
      "inputs": [
        {
          "internalType": "uint256",
          "name": "tokenId",
          "type": "uint256"
        }
      ],
      "name": "ownerOf",
      "outputs": [
        {
          "internalType": "address",
          "name": "",
          "type": "address"
        }
      ],
      "stateMutability": "view",
      "type": "function"
    },
    {
      "inputs": [],
      "name": "s_tokenCounter",
      "outputs": [
        {
          "internalType": "uint256",
          "name": "",
          "type": "uint256"
        }
      ],
      "stateMutability": "view",
      "type": "function"
    },
    {
      "inputs": [
        {
          "internalType": "uint256",
          "name": "",
          "type": "uint256"
        }
      ],
      "name": "s_tokenIdToLikeCount",
      "outputs": [
        {
          "internalType": "uint256",
          "name": "",
          "type": "uint256"
        }
      ],
      "stateMutability": "view",
      "type": "function"
    },
    {
      "inputs": [
        {
          "internalType": "uint256",
          "name": "",
          "type": "uint256"
        },
        {
          "internalType": "address",
          "name": "",
          "type": "address"
        }
      ],
      "name": "s_tokenIdToWhoLiked",
      "outputs": [
        {
          "internalType": "bool",
          "name": "",
          "type": "bool"
        }
      ],
      "stateMutability": "view",
      "type": "function"
    },
    {
      "inputs": [
        {
          "internalType": "address",
          "name": "from",
          "type": "address"
        },
        {
          "internalType": "address",
          "name": "to",
          "type": "address"
        },
        {
          "internalType": "uint256",
          "name": "tokenId",
          "type": "uint256"
        }
      ],
      "name": "safeTransferFrom",
      "outputs": [],
      "stateMutability": "nonpayable",
      "type": "function"
    },
    {
      "inputs": [
        {
          "internalType": "address",
          "name": "from",
          "type": "address"
        },
        {
          "internalType": "address",
          "name": "to",
          "type": "address"
        },
        {
          "internalType": "uint256",
          "name": "tokenId",
          "type": "uint256"
        },
        {
          "internalType": "bytes",
          "name": "data",
          "type": "bytes"
        }
      ],
      "name": "safeTransferFrom",
      "outputs": [],
      "stateMutability": "nonpayable",
      "type": "function"
    },
    {
      "inputs": [
        {
          "internalType": "address",
          "name": "operator",
          "type": "address"
        },
        {
          "internalType": "bool",
          "name": "approved",
          "type": "bool"
        }
      ],
      "name": "setApprovalForAll",
      "outputs": [],
      "stateMutability": "nonpayable",
      "type": "function"
    },
    {
      "inputs": [
        {
          "internalType": "bytes4",
          "name": "interfaceId",
          "type": "bytes4"
        }
      ],
      "name": "supportsInterface",
      "outputs": [
        {
          "internalType": "bool",
          "name": "",
          "type": "bool"
        }
      ],
      "stateMutability": "view",
      "type": "function"
    },
    {
      "inputs": [],
      "name": "symbol",
      "outputs": [
        {
          "internalType": "string",
          "name": "",
          "type": "string"
        }
      ],
      "stateMutability": "view",
      "type": "function"
    },
    {
      "inputs": [
        {
          "internalType": "uint256",
          "name": "tokenId",
          "type": "uint256"
        }
      ],
      "name": "tokenURI",
      "outputs": [
        {
          "internalType": "string",
          "name": "",
          "type": "string"
        }
      ],
      "stateMutability": "view",
      "type": "function"
    },
    {
      "inputs": [
        {
          "internalType": "address",
          "name": "from",
          "type": "address"
        },
        {
          "internalType": "address",
          "name": "to",
          "type": "address"
        },
        {
          "internalType": "uint256",
          "name": "tokenId",
          "type": "uint256"
        }
      ],
      "name": "transferFrom",
      "outputs": [],
      "stateMutability": "nonpayable",
      "type": "function"
    },
    {
      "inputs": [
        {
          "internalType": "uint256",
          "name": "_tokenId",
          "type": "uint256"
        }
      ],
      "name": "unLike",
      "outputs": [],
      "stateMutability": "nonpayable",
      "type": "function"
    }
  ],
  "transactionHash": "0xe6eb1a505acb3337ee78dba928c462e16b278daa8879f40e0a28d5e02f997cdc",
  "args": [],
  "numDeployments": 5,
  "solcInputHash": "c727bb8f68f744b40ac470a37ed6d94c",
  "bytecode": "0x60806040523480156200001157600080fd5b506040518060400160405280600b81526020017f426c6f636b536f6369616c0000000000000000000000000000000000000000008152506040518060400160405280600281526020017f4253000000000000000000000000000000000000000000000000000000000000815250816000908051906020019062000096929190620000c0565b508060019080519060200190620000af929190620000c0565b5050506000600781905550620001d5565b828054620000ce906200019f565b90600052602060002090601f016020900481019282620000f257600085556200013e565b82601f106200010d57805160ff19168380011785556200013e565b828001600101855582156200013e579182015b828111156200013d57825182559160200191906001019062000120565b5b5090506200014d919062000151565b5090565b5b808211156200016c57600081600090555060010162000152565b5090565b7f4e487b7100000000000000000000000000000000000000000000000000000000600052602260045260246000fd5b60006002820490506001821680620001b857607f821691505b60208210811415620001cf57620001ce62000170565b5b50919050565b6131fd80620001e56000396000f3fe608060405234801561001057600080fd5b50600436106101425760003560e01c806370a08231116100b8578063c87b56dd1161007c578063c87b56dd14610387578063db8461c0146103b7578063dc5d042c146103d3578063e1920e3a14610403578063e82935da14610433578063e985e9c51461044f57610142565b806370a08231146102e357806378a895671461031357806395d89b4114610331578063a22cb4651461034f578063b88d4fde1461036b57610142565b80630bdc90081161010a5780630bdc9008146101ff57806323b872dd1461021b57806342842e0e146102375780634ef576ad146102535780636352211e1461028357806365413b54146102b357610142565b806301ffc9a71461014757806306fdde0314610177578063081812fc14610195578063095ea7b3146101c55780630b21a83b146101e1575b600080fd5b610161600480360381019061015c919061227a565b61047f565b60405161016e91906122c2565b60405180910390f35b61017f610561565b60405161018c9190612376565b60405180910390f35b6101af60048036038101906101aa91906123ce565b6105f3565b6040516101bc919061243c565b60405180910390f35b6101df60048036038101906101da9190612483565b610639565b005b6101e9610751565b6040516101f691906124d2565b60405180910390f35b61021960048036038101906102149190612622565b610757565b005b6102356004803603810190610230919061266b565b610846565b005b610251600480360381019061024c919061266b565b6108a6565b005b61026d600480360381019061026891906123ce565b6108c6565b60405161027a91906124d2565b60405180910390f35b61029d600480360381019061029891906123ce565b6108e3565b6040516102aa919061243c565b60405180910390f35b6102cd60048036038101906102c891906126be565b61096a565b6040516102da91906122c2565b60405180910390f35b6102fd60048036038101906102f891906126fe565b610999565b60405161030a91906124d2565b60405180910390f35b61031b610a51565b60405161032891906124d2565b60405180910390f35b610339610a5b565b6040516103469190612376565b60405180910390f35b61036960048036038101906103649190612757565b610aed565b005b61038560048036038101906103809190612838565b610b03565b005b6103a1600480360381019061039c91906123ce565b610b65565b6040516103ae9190612376565b60405180910390f35b6103d160048036038101906103cc91906123ce565b610c78565b005b6103ed60048036038101906103e891906123ce565b610e50565b6040516103fa91906124d2565b60405180910390f35b61041d600480360381019061041891906126be565b610e68565b60405161042a91906122c2565b60405180910390f35b61044d600480360381019061044891906123ce565b610f18565b005b610469600480360381019061046491906128bb565b6110f0565b60405161047691906122c2565b60405180910390f35b60007f80ac58cd000000000000000000000000000000000000000000000000000000007bffffffffffffffffffffffffffffffffffffffffffffffffffffffff1916827bffffffffffffffffffffffffffffffffffffffffffffffffffffffff1916148061054a57507f5b5e139f000000000000000000000000000000000000000000000000000000007bffffffffffffffffffffffffffffffffffffffffffffffffffffffff1916827bffffffffffffffffffffffffffffffffffffffffffffffffffffffff1916145b8061055a575061055982611184565b5b9050919050565b6060600080546105709061292a565b80601f016020809104026020016040519081016040528092919081815260200182805461059c9061292a565b80156105e95780601f106105be576101008083540402835291602001916105e9565b820191906000526020600020905b8154815290600101906020018083116105cc57829003601f168201915b5050505050905090565b60006105fe826111ee565b6004600083815260200190815260200160002060009054906101000a900473ffffffffffffffffffffffffffffffffffffffff169050919050565b6000610644826108e3565b90508073ffffffffffffffffffffffffffffffffffffffff168373ffffffffffffffffffffffffffffffffffffffff1614156106b5576040517f08c379a00000000000000000000000000000000000000000000000000000000081526004016106ac906129ce565b60405180910390fd5b8073ffffffffffffffffffffffffffffffffffffffff166106d4611239565b73ffffffffffffffffffffffffffffffffffffffff1614806107035750610702816106fd611239565b6110f0565b5b610742576040517f08c379a000000000000000000000000000000000000000000000000000000000815260040161073990612a60565b60405180910390fd5b61074c8383611241565b505050565b60075481565b3073ffffffffffffffffffffffffffffffffffffffff166007543373ffffffffffffffffffffffffffffffffffffffff167fca65b2c6e61c29692187c659e9c6e6a3397b0c7f0a85418bb884819aee48f6a260405160405180910390a46107c0336007546112fa565b6107cc60075482611318565b3073ffffffffffffffffffffffffffffffffffffffff166007543373ffffffffffffffffffffffffffffffffffffffff167f36a72fb95dbfe6a80cf4cb143d21a2c6939a8d2f2345d6f321ac2f6206b1f99b60405160405180910390a460016007600082825461083c9190612aaf565b9250508190555050565b610857610851611239565b8261138c565b610896576040517f08c379a000000000000000000000000000000000000000000000000000000000815260040161088d90612b77565b60405180910390fd5b6108a1838383611421565b505050565b6108c183838360405180602001604052806000815250610b03565b505050565b600060086000838152602001908152602001600020549050919050565b6000806108ef8361171b565b9050600073ffffffffffffffffffffffffffffffffffffffff168173ffffffffffffffffffffffffffffffffffffffff161415610961576040517f08c379a000000000000000000000000000000000000000000000000000000000815260040161095890612be3565b60405180910390fd5b80915050919050565b60096020528160005260406000206020528060005260406000206000915091509054906101000a900460ff1681565b60008073ffffffffffffffffffffffffffffffffffffffff168273ffffffffffffffffffffffffffffffffffffffff161415610a0a576040517f08c379a0000000000000000000000000000000000000000000000000000000008152600401610a0190612c75565b60405180910390fd5b600360008373ffffffffffffffffffffffffffffffffffffffff1673ffffffffffffffffffffffffffffffffffffffff168152602001908152602001600020549050919050565b6000600754905090565b606060018054610a6a9061292a565b80601f0160208091040260200160405190810160405280929190818152602001828054610a969061292a565b8015610ae35780601f10610ab857610100808354040283529160200191610ae3565b820191906000526020600020905b815481529060010190602001808311610ac657829003601f168201915b5050505050905090565b610aff610af8611239565b8383611758565b5050565b610b14610b0e611239565b8361138c565b610b53576040517f08c379a0000000000000000000000000000000000000000000000000000000008152600401610b4a90612b77565b60405180910390fd5b610b5f848484846118c5565b50505050565b6060610b70826111ee565b6000600660008481526020019081526020016000208054610b909061292a565b80601f0160208091040260200160405190810160405280929190818152602001828054610bbc9061292a565b8015610c095780601f10610bde57610100808354040283529160200191610c09565b820191906000526020600020905b815481529060010190602001808311610bec57829003601f168201915b505050505090506000610c1a611921565b9050600081511415610c30578192505050610c73565b600082511115610c65578082604051602001610c4d929190612cd1565b60405160208183030381529060405292505050610c73565b610c6e84611938565b925050505b919050565b6001600754610c879190612cf5565b811115610cc0576040517fbc10bcea00000000000000000000000000000000000000000000000000000000815260040160405180910390fd5b600015156009600083815260200190815260200160002060003373ffffffffffffffffffffffffffffffffffffffff1673ffffffffffffffffffffffffffffffffffffffff16815260200190815260200160002060009054906101000a900460ff1615151415610d5c576040517f1dddd0eb00000000000000000000000000000000000000000000000000000000815260040160405180910390fd5b60006009600083815260200190815260200160002060003373ffffffffffffffffffffffffffffffffffffffff1673ffffffffffffffffffffffffffffffffffffffff16815260200190815260200160002060006101000a81548160ff0219169083151502179055506000600860008381526020019081526020016000205490506000600182610dec9190612cf5565b905080600860008581526020019081526020016000208190555080833373ffffffffffffffffffffffffffffffffffffffff167fe2396e9054558aff00ad7c3bc6edd310667fafbc7ea91ff20712760b7832873660405160405180910390a4505050565b60086020528060005260406000206000915090505481565b60006001600754610e799190612cf5565b831115610eb2576040517fbc10bcea00000000000000000000000000000000000000000000000000000000815260040160405180910390fd5b6009600084815260200190815260200160002060008373ffffffffffffffffffffffffffffffffffffffff1673ffffffffffffffffffffffffffffffffffffffff16815260200190815260200160002060009054906101000a900460ff16905092915050565b6001600754610f279190612cf5565b811115610f60576040517fbc10bcea00000000000000000000000000000000000000000000000000000000815260040160405180910390fd5b600115156009600083815260200190815260200160002060003373ffffffffffffffffffffffffffffffffffffffff1673ffffffffffffffffffffffffffffffffffffffff16815260200190815260200160002060009054906101000a900460ff1615151415610ffc576040517f4a2f422100000000000000000000000000000000000000000000000000000000815260040160405180910390fd5b60016009600083815260200190815260200160002060003373ffffffffffffffffffffffffffffffffffffffff1673ffffffffffffffffffffffffffffffffffffffff16815260200190815260200160002060006101000a81548160ff021916908315150217905550600060086000838152602001908152602001600020549050600060018261108c9190612aaf565b905080600860008581526020019081526020016000208190555080833373ffffffffffffffffffffffffffffffffffffffff167f88bb3938380c70e543fd5f4cbd8a7642dad94b8242d9dd9130759c4c52fc23b560405160405180910390a4505050565b6000600560008473ffffffffffffffffffffffffffffffffffffffff1673ffffffffffffffffffffffffffffffffffffffff16815260200190815260200160002060008373ffffffffffffffffffffffffffffffffffffffff1673ffffffffffffffffffffffffffffffffffffffff16815260200190815260200160002060009054906101000a900460ff16905092915050565b60007f01ffc9a7000000000000000000000000000000000000000000000000000000007bffffffffffffffffffffffffffffffffffffffffffffffffffffffff1916827bffffffffffffffffffffffffffffffffffffffffffffffffffffffff1916149050919050565b6111f7816119a0565b611236576040517f08c379a000000000000000000000000000000000000000000000000000000000815260040161122d90612be3565b60405180910390fd5b50565b600033905090565b816004600083815260200190815260200160002060006101000a81548173ffffffffffffffffffffffffffffffffffffffff021916908373ffffffffffffffffffffffffffffffffffffffff160217905550808273ffffffffffffffffffffffffffffffffffffffff166112b4836108e3565b73ffffffffffffffffffffffffffffffffffffffff167f8c5be1e5ebec7d5bd14f71427d1e84f3dd0314c0f7b2291e5b200ac8c7c3b92560405160405180910390a45050565b6113148282604051806020016040528060008152506119e1565b5050565b611321826119a0565b611360576040517f08c379a000000000000000000000000000000000000000000000000000000000815260040161135790612d9b565b60405180910390fd5b8060066000848152602001908152602001600020908051906020019061138792919061216b565b505050565b600080611398836108e3565b90508073ffffffffffffffffffffffffffffffffffffffff168473ffffffffffffffffffffffffffffffffffffffff1614806113da57506113d981856110f0565b5b8061141857508373ffffffffffffffffffffffffffffffffffffffff16611400846105f3565b73ffffffffffffffffffffffffffffffffffffffff16145b91505092915050565b8273ffffffffffffffffffffffffffffffffffffffff16611441826108e3565b73ffffffffffffffffffffffffffffffffffffffff1614611497576040517f08c379a000000000000000000000000000000000000000000000000000000000815260040161148e90612e2d565b60405180910390fd5b600073ffffffffffffffffffffffffffffffffffffffff168273ffffffffffffffffffffffffffffffffffffffff161415611507576040517f08c379a00000000000000000000000000000000000000000000000000000000081526004016114fe90612ebf565b60405180910390fd5b6115148383836001611a3c565b8273ffffffffffffffffffffffffffffffffffffffff16611534826108e3565b73ffffffffffffffffffffffffffffffffffffffff161461158a576040517f08c379a000000000000000000000000000000000000000000000000000000000815260040161158190612e2d565b60405180910390fd5b6004600082815260200190815260200160002060006101000a81549073ffffffffffffffffffffffffffffffffffffffff02191690556001600360008573ffffffffffffffffffffffffffffffffffffffff1673ffffffffffffffffffffffffffffffffffffffff168152602001908152602001600020600082825403925050819055506001600360008473ffffffffffffffffffffffffffffffffffffffff1673ffffffffffffffffffffffffffffffffffffffff16815260200190815260200160002060008282540192505081905550816002600083815260200190815260200160002060006101000a81548173ffffffffffffffffffffffffffffffffffffffff021916908373ffffffffffffffffffffffffffffffffffffffff160217905550808273ffffffffffffffffffffffffffffffffffffffff168473ffffffffffffffffffffffffffffffffffffffff167fddf252ad1be2c89b69c2b068fc378daa952ba7f163c4a11628f55a4df523b3ef60405160405180910390a46117168383836001611b62565b505050565b60006002600083815260200190815260200160002060009054906101000a900473ffffffffffffffffffffffffffffffffffffffff169050919050565b8173ffffffffffffffffffffffffffffffffffffffff168373ffffffffffffffffffffffffffffffffffffffff1614156117c7576040517f08c379a00000000000000000000000000000000000000000000000000000000081526004016117be90612f2b565b60405180910390fd5b80600560008573ffffffffffffffffffffffffffffffffffffffff1673ffffffffffffffffffffffffffffffffffffffff16815260200190815260200160002060008473ffffffffffffffffffffffffffffffffffffffff1673ffffffffffffffffffffffffffffffffffffffff16815260200190815260200160002060006101000a81548160ff0219169083151502179055508173ffffffffffffffffffffffffffffffffffffffff168373ffffffffffffffffffffffffffffffffffffffff167f17307eab39ab6107e8899845ad3d59bd9653f200f220920489ca2b5937696c31836040516118b891906122c2565b60405180910390a3505050565b6118d0848484611421565b6118dc84848484611b68565b61191b576040517f08c379a000000000000000000000000000000000000000000000000000000000815260040161191290612fbd565b60405180910390fd5b50505050565b606060405180602001604052806000815250905090565b6060611943826111ee565b600061194d611921565b9050600081511161196d5760405180602001604052806000815250611998565b8061197784611cff565b604051602001611988929190612cd1565b6040516020818303038152906040525b915050919050565b60008073ffffffffffffffffffffffffffffffffffffffff166119c28361171b565b73ffffffffffffffffffffffffffffffffffffffff1614159050919050565b6119eb8383611dd7565b6119f86000848484611b68565b611a37576040517f08c379a0000000000000000000000000000000000000000000000000000000008152600401611a2e90612fbd565b60405180910390fd5b505050565b6001811115611b5c57600073ffffffffffffffffffffffffffffffffffffffff168473ffffffffffffffffffffffffffffffffffffffff1614611ad05780600360008673ffffffffffffffffffffffffffffffffffffffff1673ffffffffffffffffffffffffffffffffffffffff1681526020019081526020016000206000828254611ac89190612cf5565b925050819055505b600073ffffffffffffffffffffffffffffffffffffffff168373ffffffffffffffffffffffffffffffffffffffff1614611b5b5780600360008573ffffffffffffffffffffffffffffffffffffffff1673ffffffffffffffffffffffffffffffffffffffff1681526020019081526020016000206000828254611b539190612aaf565b925050819055505b5b50505050565b50505050565b6000611b898473ffffffffffffffffffffffffffffffffffffffff16611ff5565b15611cf2578373ffffffffffffffffffffffffffffffffffffffff1663150b7a02611bb2611239565b8786866040518563ffffffff1660e01b8152600401611bd49493929190613032565b602060405180830381600087803b158015611bee57600080fd5b505af1925050508015611c1f57506040513d601f19601f82011682018060405250810190611c1c9190613093565b60015b611ca2573d8060008114611c4f576040519150601f19603f3d011682016040523d82523d6000602084013e611c54565b606091505b50600081511415611c9a576040517f08c379a0000000000000000000000000000000000000000000000000000000008152600401611c9190612fbd565b60405180910390fd5b805181602001fd5b63150b7a0260e01b7bffffffffffffffffffffffffffffffffffffffffffffffffffffffff1916817bffffffffffffffffffffffffffffffffffffffffffffffffffffffff191614915050611cf7565b600190505b949350505050565b606060006001611d0e84612018565b01905060008167ffffffffffffffff811115611d2d57611d2c6124f7565b5b6040519080825280601f01601f191660200182016040528015611d5f5781602001600182028036833780820191505090505b509050600082602001820190505b600115611dcc578080600190039150507f3031323334353637383961626364656600000000000000000000000000000000600a86061a8153600a8581611db657611db56130c0565b5b0494506000851415611dc757611dcc565b611d6d565b819350505050919050565b600073ffffffffffffffffffffffffffffffffffffffff168273ffffffffffffffffffffffffffffffffffffffff161415611e47576040517f08c379a0000000000000000000000000000000000000000000000000000000008152600401611e3e9061313b565b60405180910390fd5b611e50816119a0565b15611e90576040517f08c379a0000000000000000000000000000000000000000000000000000000008152600401611e87906131a7565b60405180910390fd5b611e9e600083836001611a3c565b611ea7816119a0565b15611ee7576040517f08c379a0000000000000000000000000000000000000000000000000000000008152600401611ede906131a7565b60405180910390fd5b6001600360008473ffffffffffffffffffffffffffffffffffffffff1673ffffffffffffffffffffffffffffffffffffffff16815260200190815260200160002060008282540192505081905550816002600083815260200190815260200160002060006101000a81548173ffffffffffffffffffffffffffffffffffffffff021916908373ffffffffffffffffffffffffffffffffffffffff160217905550808273ffffffffffffffffffffffffffffffffffffffff16600073ffffffffffffffffffffffffffffffffffffffff167fddf252ad1be2c89b69c2b068fc378daa952ba7f163c4a11628f55a4df523b3ef60405160405180910390a4611ff1600083836001611b62565b5050565b6000808273ffffffffffffffffffffffffffffffffffffffff163b119050919050565b600080600090507a184f03e93ff9f4daa797ed6e38ed64bf6a1f0100000000000000008310612076577a184f03e93ff9f4daa797ed6e38ed64bf6a1f010000000000000000838161206c5761206b6130c0565b5b0492506040810190505b6d04ee2d6d415b85acef810000000083106120b3576d04ee2d6d415b85acef810000000083816120a9576120a86130c0565b5b0492506020810190505b662386f26fc1000083106120e257662386f26fc1000083816120d8576120d76130c0565b5b0492506010810190505b6305f5e100831061210b576305f5e1008381612101576121006130c0565b5b0492506008810190505b6127108310612130576127108381612126576121256130c0565b5b0492506004810190505b606483106121535760648381612149576121486130c0565b5b0492506002810190505b600a8310612162576001810190505b80915050919050565b8280546121779061292a565b90600052602060002090601f01602090048101928261219957600085556121e0565b82601f106121b257805160ff19168380011785556121e0565b828001600101855582156121e0579182015b828111156121df5782518255916020019190600101906121c4565b5b5090506121ed91906121f1565b5090565b5b8082111561220a5760008160009055506001016121f2565b5090565b6000604051905090565b600080fd5b600080fd5b60007fffffffff0000000000000000000000000000000000000000000000000000000082169050919050565b61225781612222565b811461226257600080fd5b50565b6000813590506122748161224e565b92915050565b6000602082840312156122905761228f612218565b5b600061229e84828501612265565b91505092915050565b60008115159050919050565b6122bc816122a7565b82525050565b60006020820190506122d760008301846122b3565b92915050565b600081519050919050565b600082825260208201905092915050565b60005b838110156123175780820151818401526020810190506122fc565b83811115612326576000848401525b50505050565b6000601f19601f8301169050919050565b6000612348826122dd565b61235281856122e8565b93506123628185602086016122f9565b61236b8161232c565b840191505092915050565b60006020820190508181036000830152612390818461233d565b905092915050565b6000819050919050565b6123ab81612398565b81146123b657600080fd5b50565b6000813590506123c8816123a2565b92915050565b6000602082840312156123e4576123e3612218565b5b60006123f2848285016123b9565b91505092915050565b600073ffffffffffffffffffffffffffffffffffffffff82169050919050565b6000612426826123fb565b9050919050565b6124368161241b565b82525050565b6000602082019050612451600083018461242d565b92915050565b6124608161241b565b811461246b57600080fd5b50565b60008135905061247d81612457565b92915050565b6000806040838503121561249a57612499612218565b5b60006124a88582860161246e565b92505060206124b9858286016123b9565b9150509250929050565b6124cc81612398565b82525050565b60006020820190506124e760008301846124c3565b92915050565b600080fd5b600080fd5b7f4e487b7100000000000000000000000000000000000000000000000000000000600052604160045260246000fd5b61252f8261232c565b810181811067ffffffffffffffff8211171561254e5761254d6124f7565b5b80604052505050565b600061256161220e565b905061256d8282612526565b919050565b600067ffffffffffffffff82111561258d5761258c6124f7565b5b6125968261232c565b9050602081019050919050565b82818337600083830152505050565b60006125c56125c084612572565b612557565b9050828152602081018484840111156125e1576125e06124f2565b5b6125ec8482856125a3565b509392505050565b600082601f830112612609576126086124ed565b5b81356126198482602086016125b2565b91505092915050565b60006020828403121561263857612637612218565b5b600082013567ffffffffffffffff8111156126565761265561221d565b5b612662848285016125f4565b91505092915050565b60008060006060848603121561268457612683612218565b5b60006126928682870161246e565b93505060206126a38682870161246e565b92505060406126b4868287016123b9565b9150509250925092565b600080604083850312156126d5576126d4612218565b5b60006126e3858286016123b9565b92505060206126f48582860161246e565b9150509250929050565b60006020828403121561271457612713612218565b5b60006127228482850161246e565b91505092915050565b612734816122a7565b811461273f57600080fd5b50565b6000813590506127518161272b565b92915050565b6000806040838503121561276e5761276d612218565b5b600061277c8582860161246e565b925050602061278d85828601612742565b9150509250929050565b600067ffffffffffffffff8211156127b2576127b16124f7565b5b6127bb8261232c565b9050602081019050919050565b60006127db6127d684612797565b612557565b9050828152602081018484840111156127f7576127f66124f2565b5b6128028482856125a3565b509392505050565b600082601f83011261281f5761281e6124ed565b5b813561282f8482602086016127c8565b91505092915050565b6000806000806080858703121561285257612851612218565b5b60006128608782880161246e565b94505060206128718782880161246e565b9350506040612882878288016123b9565b925050606085013567ffffffffffffffff8111156128a3576128a261221d565b5b6128af8782880161280a565b91505092959194509250565b600080604083850312156128d2576128d1612218565b5b60006128e08582860161246e565b92505060206128f18582860161246e565b9150509250929050565b7f4e487b7100000000000000000000000000000000000000000000000000000000600052602260045260246000fd5b6000600282049050600182168061294257607f821691505b60208210811415612956576129556128fb565b5b50919050565b7f4552433732313a20617070726f76616c20746f2063757272656e74206f776e6560008201527f7200000000000000000000000000000000000000000000000000000000000000602082015250565b60006129b86021836122e8565b91506129c38261295c565b604082019050919050565b600060208201905081810360008301526129e7816129ab565b9050919050565b7f4552433732313a20617070726f76652063616c6c6572206973206e6f7420746f60008201527f6b656e206f776e6572206f7220617070726f76656420666f7220616c6c000000602082015250565b6000612a4a603d836122e8565b9150612a55826129ee565b604082019050919050565b60006020820190508181036000830152612a7981612a3d565b9050919050565b7f4e487b7100000000000000000000000000000000000000000000000000000000600052601160045260246000fd5b6000612aba82612398565b9150612ac583612398565b9250827fffffffffffffffffffffffffffffffffffffffffffffffffffffffffffffffff03821115612afa57612af9612a80565b5b828201905092915050565b7f4552433732313a2063616c6c6572206973206e6f7420746f6b656e206f776e6560008201527f72206f7220617070726f76656400000000000000000000000000000000000000602082015250565b6000612b61602d836122e8565b9150612b6c82612b05565b604082019050919050565b60006020820190508181036000830152612b9081612b54565b9050919050565b7f4552433732313a20696e76616c696420746f6b656e2049440000000000000000600082015250565b6000612bcd6018836122e8565b9150612bd882612b97565b602082019050919050565b60006020820190508181036000830152612bfc81612bc0565b9050919050565b7f4552433732313a2061646472657373207a65726f206973206e6f74206120766160008201527f6c6964206f776e65720000000000000000000000000000000000000000000000602082015250565b6000612c5f6029836122e8565b9150612c6a82612c03565b604082019050919050565b60006020820190508181036000830152612c8e81612c52565b9050919050565b600081905092915050565b6000612cab826122dd565b612cb58185612c95565b9350612cc58185602086016122f9565b80840191505092915050565b6000612cdd8285612ca0565b9150612ce98284612ca0565b91508190509392505050565b6000612d0082612398565b9150612d0b83612398565b925082821015612d1e57612d1d612a80565b5b828203905092915050565b7f45524337323155524953746f726167653a2055524920736574206f66206e6f6e60008201527f6578697374656e7420746f6b656e000000000000000000000000000000000000602082015250565b6000612d85602e836122e8565b9150612d9082612d29565b604082019050919050565b60006020820190508181036000830152612db481612d78565b9050919050565b7f4552433732313a207472616e736665722066726f6d20696e636f72726563742060008201527f6f776e6572000000000000000000000000000000000000000000000000000000602082015250565b6000612e176025836122e8565b9150612e2282612dbb565b604082019050919050565b60006020820190508181036000830152612e4681612e0a565b9050919050565b7f4552433732313a207472616e7366657220746f20746865207a65726f2061646460008201527f7265737300000000000000000000000000000000000000000000000000000000602082015250565b6000612ea96024836122e8565b9150612eb482612e4d565b604082019050919050565b60006020820190508181036000830152612ed881612e9c565b9050919050565b7f4552433732313a20617070726f766520746f2063616c6c657200000000000000600082015250565b6000612f156019836122e8565b9150612f2082612edf565b602082019050919050565b60006020820190508181036000830152612f4481612f08565b9050919050565b7f4552433732313a207472616e7366657220746f206e6f6e20455243373231526560008201527f63656976657220696d706c656d656e7465720000000000000000000000000000602082015250565b6000612fa76032836122e8565b9150612fb282612f4b565b604082019050919050565b60006020820190508181036000830152612fd681612f9a565b9050919050565b600081519050919050565b600082825260208201905092915050565b600061300482612fdd565b61300e8185612fe8565b935061301e8185602086016122f9565b6130278161232c565b840191505092915050565b6000608082019050613047600083018761242d565b613054602083018661242d565b61306160408301856124c3565b81810360608301526130738184612ff9565b905095945050505050565b60008151905061308d8161224e565b92915050565b6000602082840312156130a9576130a8612218565b5b60006130b78482850161307e565b91505092915050565b7f4e487b7100000000000000000000000000000000000000000000000000000000600052601260045260246000fd5b7f4552433732313a206d696e7420746f20746865207a65726f2061646472657373600082015250565b60006131256020836122e8565b9150613130826130ef565b602082019050919050565b6000602082019050818103600083015261315481613118565b9050919050565b7f4552433732313a20746f6b656e20616c7265616479206d696e74656400000000600082015250565b6000613191601c836122e8565b915061319c8261315b565b602082019050919050565b600060208201905081810360008301526131c081613184565b905091905056fea2646970667358221220e7662dcac93dde31a18e549522f6036d6ef7c5146ac441a8812cb055517786dd64736f6c63430008080033",
  "devdoc": {
    "kind": "dev",
    "methods": {
      "approve(address,uint256)": {
        "details": "See {IERC721-approve}."
      },
      "balanceOf(address)": {
        "details": "See {IERC721-balanceOf}."
      },
      "getApproved(uint256)": {
        "details": "See {IERC721-getApproved}."
      },
      "isApprovedForAll(address,address)": {
        "details": "See {IERC721-isApprovedForAll}."
      },
      "name()": {
        "details": "See {IERC721Metadata-name}."
      },
      "ownerOf(uint256)": {
        "details": "See {IERC721-ownerOf}."
      },
      "safeTransferFrom(address,address,uint256)": {
        "details": "See {IERC721-safeTransferFrom}."
      },
      "safeTransferFrom(address,address,uint256,bytes)": {
        "details": "See {IERC721-safeTransferFrom}."
      },
      "setApprovalForAll(address,bool)": {
        "details": "See {IERC721-setApprovalForAll}."
      },
      "supportsInterface(bytes4)": {
        "details": "See {IERC165-supportsInterface}."
      },
      "symbol()": {
        "details": "See {IERC721Metadata-symbol}."
      },
      "tokenURI(uint256)": {
        "details": "See {IERC721Metadata-tokenURI}."
      },
      "transferFrom(address,address,uint256)": {
        "details": "See {IERC721-transferFrom}."
      }
    },
    "version": 1
  },
  "userdoc": {
    "kind": "user",
    "methods": {},
    "version": 1
  },
  "storageLayout": {
    "storage": [
      {
        "astId": 25,
        "contract": "contracts/BlockSocial.sol:BlockSocial",
        "label": "_name",
        "offset": 0,
        "slot": "0",
        "type": "t_string_storage"
      },
      {
        "astId": 27,
        "contract": "contracts/BlockSocial.sol:BlockSocial",
        "label": "_symbol",
        "offset": 0,
        "slot": "1",
        "type": "t_string_storage"
      },
      {
        "astId": 31,
        "contract": "contracts/BlockSocial.sol:BlockSocial",
        "label": "_owners",
        "offset": 0,
        "slot": "2",
        "type": "t_mapping(t_uint256,t_address)"
      },
      {
        "astId": 35,
        "contract": "contracts/BlockSocial.sol:BlockSocial",
        "label": "_balances",
        "offset": 0,
        "slot": "3",
        "type": "t_mapping(t_address,t_uint256)"
      },
      {
        "astId": 39,
        "contract": "contracts/BlockSocial.sol:BlockSocial",
        "label": "_tokenApprovals",
        "offset": 0,
        "slot": "4",
        "type": "t_mapping(t_uint256,t_address)"
      },
      {
        "astId": 45,
        "contract": "contracts/BlockSocial.sol:BlockSocial",
        "label": "_operatorApprovals",
        "offset": 0,
        "slot": "5",
        "type": "t_mapping(t_address,t_mapping(t_address,t_bool))"
      },
      {
        "astId": 1091,
        "contract": "contracts/BlockSocial.sol:BlockSocial",
        "label": "_tokenURIs",
        "offset": 0,
        "slot": "6",
        "type": "t_mapping(t_uint256,t_string_storage)"
      },
      {
        "astId": 2671,
        "contract": "contracts/BlockSocial.sol:BlockSocial",
        "label": "s_tokenCounter",
        "offset": 0,
        "slot": "7",
        "type": "t_uint256"
      },
      {
        "astId": 2675,
        "contract": "contracts/BlockSocial.sol:BlockSocial",
        "label": "s_tokenIdToLikeCount",
        "offset": 0,
        "slot": "8",
        "type": "t_mapping(t_uint256,t_uint256)"
      },
      {
        "astId": 2681,
        "contract": "contracts/BlockSocial.sol:BlockSocial",
        "label": "s_tokenIdToWhoLiked",
        "offset": 0,
        "slot": "9",
        "type": "t_mapping(t_uint256,t_mapping(t_address,t_bool))"
      }
    ],
    "types": {
      "t_address": {
        "encoding": "inplace",
        "label": "address",
        "numberOfBytes": "20"
      },
      "t_bool": {
        "encoding": "inplace",
        "label": "bool",
        "numberOfBytes": "1"
      },
      "t_mapping(t_address,t_bool)": {
        "encoding": "mapping",
        "key": "t_address",
        "label": "mapping(address => bool)",
        "numberOfBytes": "32",
        "value": "t_bool"
      },
      "t_mapping(t_address,t_mapping(t_address,t_bool))": {
        "encoding": "mapping",
        "key": "t_address",
        "label": "mapping(address => mapping(address => bool))",
        "numberOfBytes": "32",
        "value": "t_mapping(t_address,t_bool)"
      },
      "t_mapping(t_address,t_uint256)": {
        "encoding": "mapping",
        "key": "t_address",
        "label": "mapping(address => uint256)",
        "numberOfBytes": "32",
        "value": "t_uint256"
      },
      "t_mapping(t_uint256,t_address)": {
        "encoding": "mapping",
        "key": "t_uint256",
        "label": "mapping(uint256 => address)",
        "numberOfBytes": "32",
        "value": "t_address"
      },
      "t_mapping(t_uint256,t_mapping(t_address,t_bool))": {
        "encoding": "mapping",
        "key": "t_uint256",
        "label": "mapping(uint256 => mapping(address => bool))",
        "numberOfBytes": "32",
        "value": "t_mapping(t_address,t_bool)"
      },
      "t_mapping(t_uint256,t_string_storage)": {
        "encoding": "mapping",
        "key": "t_uint256",
        "label": "mapping(uint256 => string)",
        "numberOfBytes": "32",
        "value": "t_string_storage"
      },
      "t_mapping(t_uint256,t_uint256)": {
        "encoding": "mapping",
        "key": "t_uint256",
        "label": "mapping(uint256 => uint256)",
        "numberOfBytes": "32",
        "value": "t_uint256"
      },
      "t_string_storage": {
        "encoding": "bytes",
        "label": "string",
        "numberOfBytes": "32"
      },
      "t_uint256": {
        "encoding": "inplace",
        "label": "uint256",
        "numberOfBytes": "32"
      }
    }
  }
}