{
  "address": "0x78084bf8FAE05b298677B7079eAa051256eFD90D",
  "abi": [
    {
      "inputs": [],
      "stateMutability": "nonpayable",
      "type": "constructor"
    },
    {
      "inputs": [],
      "name": "BLockSocial_TokenIdNotExist",
      "type": "error"
    },
    {
      "inputs": [],
      "name": "BlockSocial_AlreadyLiked",
      "type": "error"
    },
    {
      "inputs": [],
      "name": "BlockSocial_DidNotEvenLiked",
      "type": "error"
    },
    {
      "anonymous": false,
      "inputs": [
        {
          "indexed": true,
          "internalType": "address",
          "name": "owner",
          "type": "address"
        },
        {
          "indexed": true,
          "internalType": "address",
          "name": "approved",
          "type": "address"
        },
        {
          "indexed": true,
          "internalType": "uint256",
          "name": "tokenId",
          "type": "uint256"
        }
      ],
      "name": "Approval",
      "type": "event"
    },
    {
      "anonymous": false,
      "inputs": [
        {
          "indexed": true,
          "internalType": "address",
          "name": "owner",
          "type": "address"
        },
        {
          "indexed": true,
          "internalType": "address",
          "name": "operator",
          "type": "address"
        },
        {
          "indexed": false,
          "internalType": "bool",
          "name": "approved",
          "type": "bool"
        }
      ],
      "name": "ApprovalForAll",
      "type": "event"
    },
    {
      "anonymous": false,
      "inputs": [
        {
          "indexed": true,
          "internalType": "uint256",
          "name": "commentToTokenId",
          "type": "uint256"
        },
        {
          "indexed": false,
          "internalType": "address",
          "name": "from",
          "type": "address"
        },
        {
          "indexed": true,
          "internalType": "uint256",
          "name": "commentTokenId",
          "type": "uint256"
        }
      ],
      "name": "CommentMinted",
      "type": "event"
    },
    {
      "anonymous": false,
      "inputs": [
        {
          "indexed": true,
          "internalType": "address",
          "name": "whoDidLike",
          "type": "address"
        },
        {
          "indexed": true,
          "internalType": "uint256",
          "name": "whichPostLiked",
          "type": "uint256"
        },
        {
          "indexed": true,
          "internalType": "uint256",
          "name": "overallLikeCountOfPost",
          "type": "uint256"
        }
      ],
      "name": "Liked",
      "type": "event"
    },
    {
      "anonymous": false,
      "inputs": [
        {
          "indexed": true,
          "internalType": "address",
          "name": "from",
          "type": "address"
        },
        {
          "indexed": true,
          "internalType": "uint256",
          "name": "tokenId",
          "type": "uint256"
        },
        {
          "indexed": true,
          "internalType": "address",
          "name": "nftAddress",
          "type": "address"
        }
      ],
      "name": "MintingFinished",
      "type": "event"
    },
    {
      "anonymous": false,
      "inputs": [
        {
          "indexed": true,
          "internalType": "address",
          "name": "from",
          "type": "address"
        },
        {
          "indexed": true,
          "internalType": "uint256",
          "name": "tokenId",
          "type": "uint256"
        },
        {
          "indexed": true,
          "internalType": "address",
          "name": "nftAddress",
          "type": "address"
        }
      ],
      "name": "MintingRequestReceived",
      "type": "event"
    },
    {
      "anonymous": false,
      "inputs": [
        {
          "indexed": true,
          "internalType": "address",
          "name": "from",
          "type": "address"
        },
        {
          "indexed": true,
          "internalType": "address",
          "name": "to",
          "type": "address"
        },
        {
          "indexed": true,
          "internalType": "uint256",
          "name": "tokenId",
          "type": "uint256"
        }
      ],
      "name": "Transfer",
      "type": "event"
    },
    {
      "anonymous": false,
      "inputs": [
        {
          "indexed": true,
          "internalType": "address",
          "name": "whoDidUnLike",
          "type": "address"
        },
        {
          "indexed": true,
          "internalType": "uint256",
          "name": "whichPostUnLiked",
          "type": "uint256"
        },
        {
          "indexed": true,
          "internalType": "uint256",
          "name": "overallLikeCountOfPost",
          "type": "uint256"
        }
      ],
      "name": "UnLiked",
      "type": "event"
    },
    {
      "inputs": [
        {
          "internalType": "address",
          "name": "to",
          "type": "address"
        },
        {
          "internalType": "uint256",
          "name": "tokenId",
          "type": "uint256"
        }
      ],
      "name": "approve",
      "outputs": [],
      "stateMutability": "nonpayable",
      "type": "function"
    },
    {
      "inputs": [
        {
          "internalType": "address",
          "name": "owner",
          "type": "address"
        }
      ],
      "name": "balanceOf",
      "outputs": [
        {
          "internalType": "uint256",
          "name": "",
          "type": "uint256"
        }
      ],
      "stateMutability": "view",
      "type": "function"
    },
    {
      "inputs": [
        {
          "internalType": "uint256",
          "name": "tokenId",
          "type": "uint256"
        }
      ],
      "name": "getApproved",
      "outputs": [
        {
          "internalType": "address",
          "name": "",
          "type": "address"
        }
      ],
      "stateMutability": "view",
      "type": "function"
    },
    {
      "inputs": [
        {
          "internalType": "uint256",
          "name": "_tokenId",
          "type": "uint256"
        },
        {
          "internalType": "address",
          "name": "_personAddress",
          "type": "address"
        }
      ],
      "name": "getIsThisPersonLikedThisPost",
      "outputs": [
        {
          "internalType": "bool",
          "name": "",
          "type": "bool"
        }
      ],
      "stateMutability": "view",
      "type": "function"
    },
    {
      "inputs": [
        {
          "internalType": "uint256",
          "name": "_tokenId",
          "type": "uint256"
        }
      ],
      "name": "getLikeCount",
      "outputs": [
        {
          "internalType": "uint256",
          "name": "likeCount",
          "type": "uint256"
        }
      ],
      "stateMutability": "view",
      "type": "function"
    },
    {
      "inputs": [],
      "name": "getTokenCount",
      "outputs": [
        {
          "internalType": "uint256",
          "name": "tokenCount",
          "type": "uint256"
        }
      ],
      "stateMutability": "view",
      "type": "function"
    },
    {
      "inputs": [
        {
          "internalType": "address",
          "name": "owner",
          "type": "address"
        },
        {
          "internalType": "address",
          "name": "operator",
          "type": "address"
        }
      ],
      "name": "isApprovedForAll",
      "outputs": [
        {
          "internalType": "bool",
          "name": "",
          "type": "bool"
        }
      ],
      "stateMutability": "view",
      "type": "function"
    },
    {
      "inputs": [
        {
          "internalType": "uint256",
          "name": "_tokenId",
          "type": "uint256"
        }
      ],
      "name": "like",
      "outputs": [],
      "stateMutability": "nonpayable",
      "type": "function"
    },
    {
      "inputs": [
        {
          "internalType": "uint256",
          "name": "_tokenIdToComment",
          "type": "uint256"
        },
        {
          "internalType": "string",
          "name": "_uri",
          "type": "string"
        }
      ],
      "name": "mintComment",
      "outputs": [],
      "stateMutability": "nonpayable",
      "type": "function"
    },
    {
      "inputs": [
        {
          "internalType": "string",
          "name": "_uri",
          "type": "string"
        }
      ],
      "name": "mintingPost",
      "outputs": [],
      "stateMutability": "nonpayable",
      "type": "function"
    },
    {
      "inputs": [],
      "name": "name",
      "outputs": [
        {
          "internalType": "string",
          "name": "",
          "type": "string"
        }
      ],
      "stateMutability": "view",
      "type": "function"
    },
    {
      "inputs": [
        {
          "internalType": "uint256",
          "name": "tokenId",
          "type": "uint256"
        }
      ],
      "name": "ownerOf",
      "outputs": [
        {
          "internalType": "address",
          "name": "",
          "type": "address"
        }
      ],
      "stateMutability": "view",
      "type": "function"
    },
    {
      "inputs": [],
      "name": "s_tokenCounter",
      "outputs": [
        {
          "internalType": "uint256",
          "name": "",
          "type": "uint256"
        }
      ],
      "stateMutability": "view",
      "type": "function"
    },
    {
      "inputs": [
        {
          "internalType": "uint256",
          "name": "",
          "type": "uint256"
        }
      ],
      "name": "s_tokenIdToLikeCount",
      "outputs": [
        {
          "internalType": "uint256",
          "name": "",
          "type": "uint256"
        }
      ],
      "stateMutability": "view",
      "type": "function"
    },
    {
      "inputs": [
        {
          "internalType": "uint256",
          "name": "",
          "type": "uint256"
        },
        {
          "internalType": "address",
          "name": "",
          "type": "address"
        }
      ],
      "name": "s_tokenIdToWhoLiked",
      "outputs": [
        {
          "internalType": "bool",
          "name": "",
          "type": "bool"
        }
      ],
      "stateMutability": "view",
      "type": "function"
    },
    {
      "inputs": [
        {
          "internalType": "address",
          "name": "from",
          "type": "address"
        },
        {
          "internalType": "address",
          "name": "to",
          "type": "address"
        },
        {
          "internalType": "uint256",
          "name": "tokenId",
          "type": "uint256"
        }
      ],
      "name": "safeTransferFrom",
      "outputs": [],
      "stateMutability": "nonpayable",
      "type": "function"
    },
    {
      "inputs": [
        {
          "internalType": "address",
          "name": "from",
          "type": "address"
        },
        {
          "internalType": "address",
          "name": "to",
          "type": "address"
        },
        {
          "internalType": "uint256",
          "name": "tokenId",
          "type": "uint256"
        },
        {
          "internalType": "bytes",
          "name": "data",
          "type": "bytes"
        }
      ],
      "name": "safeTransferFrom",
      "outputs": [],
      "stateMutability": "nonpayable",
      "type": "function"
    },
    {
      "inputs": [
        {
          "internalType": "address",
          "name": "operator",
          "type": "address"
        },
        {
          "internalType": "bool",
          "name": "approved",
          "type": "bool"
        }
      ],
      "name": "setApprovalForAll",
      "outputs": [],
      "stateMutability": "nonpayable",
      "type": "function"
    },
    {
      "inputs": [
        {
          "internalType": "bytes4",
          "name": "interfaceId",
          "type": "bytes4"
        }
      ],
      "name": "supportsInterface",
      "outputs": [
        {
          "internalType": "bool",
          "name": "",
          "type": "bool"
        }
      ],
      "stateMutability": "view",
      "type": "function"
    },
    {
      "inputs": [],
      "name": "symbol",
      "outputs": [
        {
          "internalType": "string",
          "name": "",
          "type": "string"
        }
      ],
      "stateMutability": "view",
      "type": "function"
    },
    {
      "inputs": [
        {
          "internalType": "uint256",
          "name": "tokenId",
          "type": "uint256"
        }
      ],
      "name": "tokenURI",
      "outputs": [
        {
          "internalType": "string",
          "name": "",
          "type": "string"
        }
      ],
      "stateMutability": "view",
      "type": "function"
    },
    {
      "inputs": [
        {
          "internalType": "address",
          "name": "from",
          "type": "address"
        },
        {
          "internalType": "address",
          "name": "to",
          "type": "address"
        },
        {
          "internalType": "uint256",
          "name": "tokenId",
          "type": "uint256"
        }
      ],
      "name": "transferFrom",
      "outputs": [],
      "stateMutability": "nonpayable",
      "type": "function"
    },
    {
      "inputs": [
        {
          "internalType": "uint256",
          "name": "_tokenId",
          "type": "uint256"
        }
      ],
      "name": "unLike",
      "outputs": [],
      "stateMutability": "nonpayable",
      "type": "function"
    }
  ],
  "transactionHash": "0xfc06b114d5c120ae55b3710fe780af791e314410c2a380e55913cd632bc450ae",
  "args": [],
  "numDeployments": 6,
  "solcInputHash": "e10db41f2447315f76c41b5c64e98ced",
  "bytecode": "0x60806040523480156200001157600080fd5b506040518060400160405280600b81526020017f426c6f636b536f6369616c0000000000000000000000000000000000000000008152506040518060400160405280600281526020017f4253000000000000000000000000000000000000000000000000000000000000815250816000908051906020019062000096929190620000c0565b508060019080519060200190620000af929190620000c0565b5050506000600781905550620001d5565b828054620000ce906200019f565b90600052602060002090601f016020900481019282620000f257600085556200013e565b82601f106200010d57805160ff19168380011785556200013e565b828001600101855582156200013e579182015b828111156200013d57825182559160200191906001019062000120565b5b5090506200014d919062000151565b5090565b5b808211156200016c57600081600090555060010162000152565b5090565b7f4e487b7100000000000000000000000000000000000000000000000000000000600052602260045260246000fd5b60006002820490506001821680620001b857607f821691505b60208210811415620001cf57620001ce62000170565b5b50919050565b61333980620001e56000396000f3fe608060405234801561001057600080fd5b506004361061014d5760003560e01c806378a89567116100c3578063c87b56dd1161007c578063c87b56dd146103ae578063db8461c0146103de578063dc5d042c146103fa578063e1920e3a1461042a578063e82935da1461045a578063e985e9c5146104765761014d565b806378a895671461030257806395d89b4114610320578063968719531461033e578063988de00b1461035a578063a22cb46514610376578063b88d4fde146103925761014d565b806323b872dd1161011557806323b872dd1461020a57806342842e0e146102265780634ef576ad146102425780636352211e1461027257806365413b54146102a257806370a08231146102d25761014d565b806301ffc9a71461015257806306fdde0314610182578063081812fc146101a0578063095ea7b3146101d05780630b21a83b146101ec575b600080fd5b61016c6004803603810190610167919061235a565b6104a6565b60405161017991906123a2565b60405180910390f35b61018a610588565b6040516101979190612456565b60405180910390f35b6101ba60048036038101906101b591906124ae565b61061a565b6040516101c7919061251c565b60405180910390f35b6101ea60048036038101906101e59190612563565b610660565b005b6101f4610778565b60405161020191906125b2565b60405180910390f35b610224600480360381019061021f91906125cd565b61077e565b005b610240600480360381019061023b91906125cd565b6107de565b005b61025c600480360381019061025791906124ae565b6107fe565b60405161026991906125b2565b60405180910390f35b61028c600480360381019061028791906124ae565b61081b565b604051610299919061251c565b60405180910390f35b6102bc60048036038101906102b79190612620565b6108a2565b6040516102c991906123a2565b60405180910390f35b6102ec60048036038101906102e79190612660565b6108d1565b6040516102f991906125b2565b60405180910390f35b61030a610989565b60405161031791906125b2565b60405180910390f35b610328610993565b6040516103359190612456565b60405180910390f35b610358600480360381019061035391906127c2565b610a25565b005b610374600480360381019061036f919061280b565b610b14565b005b610390600480360381019061038b9190612893565b610bcd565b005b6103ac60048036038101906103a79190612974565b610be3565b005b6103c860048036038101906103c391906124ae565b610c45565b6040516103d59190612456565b60405180910390f35b6103f860048036038101906103f391906124ae565b610d58565b005b610414600480360381019061040f91906124ae565b610f30565b60405161042191906125b2565b60405180910390f35b610444600480360381019061043f9190612620565b610f48565b60405161045191906123a2565b60405180910390f35b610474600480360381019061046f91906124ae565b610ff8565b005b610490600480360381019061048b91906129f7565b6111d0565b60405161049d91906123a2565b60405180910390f35b60007f80ac58cd000000000000000000000000000000000000000000000000000000007bffffffffffffffffffffffffffffffffffffffffffffffffffffffff1916827bffffffffffffffffffffffffffffffffffffffffffffffffffffffff1916148061057157507f5b5e139f000000000000000000000000000000000000000000000000000000007bffffffffffffffffffffffffffffffffffffffffffffffffffffffff1916827bffffffffffffffffffffffffffffffffffffffffffffffffffffffff1916145b80610581575061058082611264565b5b9050919050565b60606000805461059790612a66565b80601f01602080910402602001604051908101604052809291908181526020018280546105c390612a66565b80156106105780601f106105e557610100808354040283529160200191610610565b820191906000526020600020905b8154815290600101906020018083116105f357829003601f168201915b5050505050905090565b6000610625826112ce565b6004600083815260200190815260200160002060009054906101000a900473ffffffffffffffffffffffffffffffffffffffff169050919050565b600061066b8261081b565b90508073ffffffffffffffffffffffffffffffffffffffff168373ffffffffffffffffffffffffffffffffffffffff1614156106dc576040517f08c379a00000000000000000000000000000000000000000000000000000000081526004016106d390612b0a565b60405180910390fd5b8073ffffffffffffffffffffffffffffffffffffffff166106fb611319565b73ffffffffffffffffffffffffffffffffffffffff16148061072a575061072981610724611319565b6111d0565b5b610769576040517f08c379a000000000000000000000000000000000000000000000000000000000815260040161076090612b9c565b60405180910390fd5b6107738383611321565b505050565b60075481565b61078f610789611319565b826113da565b6107ce576040517f08c379a00000000000000000000000000000000000000000000000000000000081526004016107c590612c2e565b60405180910390fd5b6107d983838361146f565b505050565b6107f983838360405180602001604052806000815250610be3565b505050565b600060086000838152602001908152602001600020549050919050565b60008061082783611769565b9050600073ffffffffffffffffffffffffffffffffffffffff168173ffffffffffffffffffffffffffffffffffffffff161415610899576040517f08c379a000000000000000000000000000000000000000000000000000000000815260040161089090612c9a565b60405180910390fd5b80915050919050565b60096020528160005260406000206020528060005260406000206000915091509054906101000a900460ff1681565b60008073ffffffffffffffffffffffffffffffffffffffff168273ffffffffffffffffffffffffffffffffffffffff161415610942576040517f08c379a000000000000000000000000000000000000000000000000000000000815260040161093990612d2c565b60405180910390fd5b600360008373ffffffffffffffffffffffffffffffffffffffff1673ffffffffffffffffffffffffffffffffffffffff168152602001908152602001600020549050919050565b6000600754905090565b6060600180546109a290612a66565b80601f01602080910402602001604051908101604052809291908181526020018280546109ce90612a66565b8015610a1b5780601f106109f057610100808354040283529160200191610a1b565b820191906000526020600020905b8154815290600101906020018083116109fe57829003601f168201915b5050505050905090565b3073ffffffffffffffffffffffffffffffffffffffff166007543373ffffffffffffffffffffffffffffffffffffffff167fca65b2c6e61c29692187c659e9c6e6a3397b0c7f0a85418bb884819aee48f6a260405160405180910390a4610a8e336007546117a6565b610a9a600754826117c4565b3073ffffffffffffffffffffffffffffffffffffffff166007543373ffffffffffffffffffffffffffffffffffffffff167f36a72fb95dbfe6a80cf4cb143d21a2c6939a8d2f2345d6f321ac2f6206b1f99b60405160405180910390a4600160076000828254610b0a9190612d7b565b9250508190555050565b6001600754610b239190612dd1565b821115610b5c576040517fbc10bcea00000000000000000000000000000000000000000000000000000000815260040160405180910390fd5b610b68336007546117a6565b610b74600754826117c4565b600754827f1e0408208af33f8dd6f3e2ffa933f7fa449ff6a994e0f232050a610fb2117e4d33604051610ba7919061251c565b60405180910390a3600160076000828254610bc29190612d7b565b925050819055505050565b610bdf610bd8611319565b8383611838565b5050565b610bf4610bee611319565b836113da565b610c33576040517f08c379a0000000000000000000000000000000000000000000000000000000008152600401610c2a90612c2e565b60405180910390fd5b610c3f848484846119a5565b50505050565b6060610c50826112ce565b6000600660008481526020019081526020016000208054610c7090612a66565b80601f0160208091040260200160405190810160405280929190818152602001828054610c9c90612a66565b8015610ce95780601f10610cbe57610100808354040283529160200191610ce9565b820191906000526020600020905b815481529060010190602001808311610ccc57829003601f168201915b505050505090506000610cfa611a01565b9050600081511415610d10578192505050610d53565b600082511115610d45578082604051602001610d2d929190612e41565b60405160208183030381529060405292505050610d53565b610d4e84611a18565b925050505b919050565b6001600754610d679190612dd1565b811115610da0576040517fbc10bcea00000000000000000000000000000000000000000000000000000000815260040160405180910390fd5b600015156009600083815260200190815260200160002060003373ffffffffffffffffffffffffffffffffffffffff1673ffffffffffffffffffffffffffffffffffffffff16815260200190815260200160002060009054906101000a900460ff1615151415610e3c576040517f1dddd0eb00000000000000000000000000000000000000000000000000000000815260040160405180910390fd5b60006009600083815260200190815260200160002060003373ffffffffffffffffffffffffffffffffffffffff1673ffffffffffffffffffffffffffffffffffffffff16815260200190815260200160002060006101000a81548160ff0219169083151502179055506000600860008381526020019081526020016000205490506000600182610ecc9190612dd1565b905080600860008581526020019081526020016000208190555080833373ffffffffffffffffffffffffffffffffffffffff167fe2396e9054558aff00ad7c3bc6edd310667fafbc7ea91ff20712760b7832873660405160405180910390a4505050565b60086020528060005260406000206000915090505481565b60006001600754610f599190612dd1565b831115610f92576040517fbc10bcea00000000000000000000000000000000000000000000000000000000815260040160405180910390fd5b6009600084815260200190815260200160002060008373ffffffffffffffffffffffffffffffffffffffff1673ffffffffffffffffffffffffffffffffffffffff16815260200190815260200160002060009054906101000a900460ff16905092915050565b60016007546110079190612dd1565b811115611040576040517fbc10bcea00000000000000000000000000000000000000000000000000000000815260040160405180910390fd5b600115156009600083815260200190815260200160002060003373ffffffffffffffffffffffffffffffffffffffff1673ffffffffffffffffffffffffffffffffffffffff16815260200190815260200160002060009054906101000a900460ff16151514156110dc576040517f4a2f422100000000000000000000000000000000000000000000000000000000815260040160405180910390fd5b60016009600083815260200190815260200160002060003373ffffffffffffffffffffffffffffffffffffffff1673ffffffffffffffffffffffffffffffffffffffff16815260200190815260200160002060006101000a81548160ff021916908315150217905550600060086000838152602001908152602001600020549050600060018261116c9190612d7b565b905080600860008581526020019081526020016000208190555080833373ffffffffffffffffffffffffffffffffffffffff167f88bb3938380c70e543fd5f4cbd8a7642dad94b8242d9dd9130759c4c52fc23b560405160405180910390a4505050565b6000600560008473ffffffffffffffffffffffffffffffffffffffff1673ffffffffffffffffffffffffffffffffffffffff16815260200190815260200160002060008373ffffffffffffffffffffffffffffffffffffffff1673ffffffffffffffffffffffffffffffffffffffff16815260200190815260200160002060009054906101000a900460ff16905092915050565b60007f01ffc9a7000000000000000000000000000000000000000000000000000000007bffffffffffffffffffffffffffffffffffffffffffffffffffffffff1916827bffffffffffffffffffffffffffffffffffffffffffffffffffffffff1916149050919050565b6112d781611a80565b611316576040517f08c379a000000000000000000000000000000000000000000000000000000000815260040161130d90612c9a565b60405180910390fd5b50565b600033905090565b816004600083815260200190815260200160002060006101000a81548173ffffffffffffffffffffffffffffffffffffffff021916908373ffffffffffffffffffffffffffffffffffffffff160217905550808273ffffffffffffffffffffffffffffffffffffffff166113948361081b565b73ffffffffffffffffffffffffffffffffffffffff167f8c5be1e5ebec7d5bd14f71427d1e84f3dd0314c0f7b2291e5b200ac8c7c3b92560405160405180910390a45050565b6000806113e68361081b565b90508073ffffffffffffffffffffffffffffffffffffffff168473ffffffffffffffffffffffffffffffffffffffff161480611428575061142781856111d0565b5b8061146657508373ffffffffffffffffffffffffffffffffffffffff1661144e8461061a565b73ffffffffffffffffffffffffffffffffffffffff16145b91505092915050565b8273ffffffffffffffffffffffffffffffffffffffff1661148f8261081b565b73ffffffffffffffffffffffffffffffffffffffff16146114e5576040517f08c379a00000000000000000000000000000000000000000000000000000000081526004016114dc90612ed7565b60405180910390fd5b600073ffffffffffffffffffffffffffffffffffffffff168273ffffffffffffffffffffffffffffffffffffffff161415611555576040517f08c379a000000000000000000000000000000000000000000000000000000000815260040161154c90612f69565b60405180910390fd5b6115628383836001611ac1565b8273ffffffffffffffffffffffffffffffffffffffff166115828261081b565b73ffffffffffffffffffffffffffffffffffffffff16146115d8576040517f08c379a00000000000000000000000000000000000000000000000000000000081526004016115cf90612ed7565b60405180910390fd5b6004600082815260200190815260200160002060006101000a81549073ffffffffffffffffffffffffffffffffffffffff02191690556001600360008573ffffffffffffffffffffffffffffffffffffffff1673ffffffffffffffffffffffffffffffffffffffff168152602001908152602001600020600082825403925050819055506001600360008473ffffffffffffffffffffffffffffffffffffffff1673ffffffffffffffffffffffffffffffffffffffff16815260200190815260200160002060008282540192505081905550816002600083815260200190815260200160002060006101000a81548173ffffffffffffffffffffffffffffffffffffffff021916908373ffffffffffffffffffffffffffffffffffffffff160217905550808273ffffffffffffffffffffffffffffffffffffffff168473ffffffffffffffffffffffffffffffffffffffff167fddf252ad1be2c89b69c2b068fc378daa952ba7f163c4a11628f55a4df523b3ef60405160405180910390a46117648383836001611be7565b505050565b60006002600083815260200190815260200160002060009054906101000a900473ffffffffffffffffffffffffffffffffffffffff169050919050565b6117c0828260405180602001604052806000815250611bed565b5050565b6117cd82611a80565b61180c576040517f08c379a000000000000000000000000000000000000000000000000000000000815260040161180390612ffb565b60405180910390fd5b8060066000848152602001908152602001600020908051906020019061183392919061224b565b505050565b8173ffffffffffffffffffffffffffffffffffffffff168373ffffffffffffffffffffffffffffffffffffffff1614156118a7576040517f08c379a000000000000000000000000000000000000000000000000000000000815260040161189e90613067565b60405180910390fd5b80600560008573ffffffffffffffffffffffffffffffffffffffff1673ffffffffffffffffffffffffffffffffffffffff16815260200190815260200160002060008473ffffffffffffffffffffffffffffffffffffffff1673ffffffffffffffffffffffffffffffffffffffff16815260200190815260200160002060006101000a81548160ff0219169083151502179055508173ffffffffffffffffffffffffffffffffffffffff168373ffffffffffffffffffffffffffffffffffffffff167f17307eab39ab6107e8899845ad3d59bd9653f200f220920489ca2b5937696c318360405161199891906123a2565b60405180910390a3505050565b6119b084848461146f565b6119bc84848484611c48565b6119fb576040517f08c379a00000000000000000000000000000000000000000000000000000000081526004016119f2906130f9565b60405180910390fd5b50505050565b606060405180602001604052806000815250905090565b6060611a23826112ce565b6000611a2d611a01565b90506000815111611a4d5760405180602001604052806000815250611a78565b80611a5784611ddf565b604051602001611a68929190612e41565b6040516020818303038152906040525b915050919050565b60008073ffffffffffffffffffffffffffffffffffffffff16611aa283611769565b73ffffffffffffffffffffffffffffffffffffffff1614159050919050565b6001811115611be157600073ffffffffffffffffffffffffffffffffffffffff168473ffffffffffffffffffffffffffffffffffffffff1614611b555780600360008673ffffffffffffffffffffffffffffffffffffffff1673ffffffffffffffffffffffffffffffffffffffff1681526020019081526020016000206000828254611b4d9190612dd1565b925050819055505b600073ffffffffffffffffffffffffffffffffffffffff168373ffffffffffffffffffffffffffffffffffffffff1614611be05780600360008573ffffffffffffffffffffffffffffffffffffffff1673ffffffffffffffffffffffffffffffffffffffff1681526020019081526020016000206000828254611bd89190612d7b565b925050819055505b5b50505050565b50505050565b611bf78383611eb7565b611c046000848484611c48565b611c43576040517f08c379a0000000000000000000000000000000000000000000000000000000008152600401611c3a906130f9565b60405180910390fd5b505050565b6000611c698473ffffffffffffffffffffffffffffffffffffffff166120d5565b15611dd2578373ffffffffffffffffffffffffffffffffffffffff1663150b7a02611c92611319565b8786866040518563ffffffff1660e01b8152600401611cb4949392919061316e565b602060405180830381600087803b158015611cce57600080fd5b505af1925050508015611cff57506040513d601f19601f82011682018060405250810190611cfc91906131cf565b60015b611d82573d8060008114611d2f576040519150601f19603f3d011682016040523d82523d6000602084013e611d34565b606091505b50600081511415611d7a576040517f08c379a0000000000000000000000000000000000000000000000000000000008152600401611d71906130f9565b60405180910390fd5b805181602001fd5b63150b7a0260e01b7bffffffffffffffffffffffffffffffffffffffffffffffffffffffff1916817bffffffffffffffffffffffffffffffffffffffffffffffffffffffff191614915050611dd7565b600190505b949350505050565b606060006001611dee846120f8565b01905060008167ffffffffffffffff811115611e0d57611e0c612697565b5b6040519080825280601f01601f191660200182016040528015611e3f5781602001600182028036833780820191505090505b509050600082602001820190505b600115611eac578080600190039150507f3031323334353637383961626364656600000000000000000000000000000000600a86061a8153600a8581611e9657611e956131fc565b5b0494506000851415611ea757611eac565b611e4d565b819350505050919050565b600073ffffffffffffffffffffffffffffffffffffffff168273ffffffffffffffffffffffffffffffffffffffff161415611f27576040517f08c379a0000000000000000000000000000000000000000000000000000000008152600401611f1e90613277565b60405180910390fd5b611f3081611a80565b15611f70576040517f08c379a0000000000000000000000000000000000000000000000000000000008152600401611f67906132e3565b60405180910390fd5b611f7e600083836001611ac1565b611f8781611a80565b15611fc7576040517f08c379a0000000000000000000000000000000000000000000000000000000008152600401611fbe906132e3565b60405180910390fd5b6001600360008473ffffffffffffffffffffffffffffffffffffffff1673ffffffffffffffffffffffffffffffffffffffff16815260200190815260200160002060008282540192505081905550816002600083815260200190815260200160002060006101000a81548173ffffffffffffffffffffffffffffffffffffffff021916908373ffffffffffffffffffffffffffffffffffffffff160217905550808273ffffffffffffffffffffffffffffffffffffffff16600073ffffffffffffffffffffffffffffffffffffffff167fddf252ad1be2c89b69c2b068fc378daa952ba7f163c4a11628f55a4df523b3ef60405160405180910390a46120d1600083836001611be7565b5050565b6000808273ffffffffffffffffffffffffffffffffffffffff163b119050919050565b600080600090507a184f03e93ff9f4daa797ed6e38ed64bf6a1f0100000000000000008310612156577a184f03e93ff9f4daa797ed6e38ed64bf6a1f010000000000000000838161214c5761214b6131fc565b5b0492506040810190505b6d04ee2d6d415b85acef81000000008310612193576d04ee2d6d415b85acef81000000008381612189576121886131fc565b5b0492506020810190505b662386f26fc1000083106121c257662386f26fc1000083816121b8576121b76131fc565b5b0492506010810190505b6305f5e10083106121eb576305f5e10083816121e1576121e06131fc565b5b0492506008810190505b6127108310612210576127108381612206576122056131fc565b5b0492506004810190505b606483106122335760648381612229576122286131fc565b5b0492506002810190505b600a8310612242576001810190505b80915050919050565b82805461225790612a66565b90600052602060002090601f01602090048101928261227957600085556122c0565b82601f1061229257805160ff19168380011785556122c0565b828001600101855582156122c0579182015b828111156122bf5782518255916020019190600101906122a4565b5b5090506122cd91906122d1565b5090565b5b808211156122ea5760008160009055506001016122d2565b5090565b6000604051905090565b600080fd5b600080fd5b60007fffffffff0000000000000000000000000000000000000000000000000000000082169050919050565b61233781612302565b811461234257600080fd5b50565b6000813590506123548161232e565b92915050565b6000602082840312156123705761236f6122f8565b5b600061237e84828501612345565b91505092915050565b60008115159050919050565b61239c81612387565b82525050565b60006020820190506123b76000830184612393565b92915050565b600081519050919050565b600082825260208201905092915050565b60005b838110156123f75780820151818401526020810190506123dc565b83811115612406576000848401525b50505050565b6000601f19601f8301169050919050565b6000612428826123bd565b61243281856123c8565b93506124428185602086016123d9565b61244b8161240c565b840191505092915050565b60006020820190508181036000830152612470818461241d565b905092915050565b6000819050919050565b61248b81612478565b811461249657600080fd5b50565b6000813590506124a881612482565b92915050565b6000602082840312156124c4576124c36122f8565b5b60006124d284828501612499565b91505092915050565b600073ffffffffffffffffffffffffffffffffffffffff82169050919050565b6000612506826124db565b9050919050565b612516816124fb565b82525050565b6000602082019050612531600083018461250d565b92915050565b612540816124fb565b811461254b57600080fd5b50565b60008135905061255d81612537565b92915050565b6000806040838503121561257a576125796122f8565b5b60006125888582860161254e565b925050602061259985828601612499565b9150509250929050565b6125ac81612478565b82525050565b60006020820190506125c760008301846125a3565b92915050565b6000806000606084860312156125e6576125e56122f8565b5b60006125f48682870161254e565b93505060206126058682870161254e565b925050604061261686828701612499565b9150509250925092565b60008060408385031215612637576126366122f8565b5b600061264585828601612499565b92505060206126568582860161254e565b9150509250929050565b600060208284031215612676576126756122f8565b5b60006126848482850161254e565b91505092915050565b600080fd5b600080fd5b7f4e487b7100000000000000000000000000000000000000000000000000000000600052604160045260246000fd5b6126cf8261240c565b810181811067ffffffffffffffff821117156126ee576126ed612697565b5b80604052505050565b60006127016122ee565b905061270d82826126c6565b919050565b600067ffffffffffffffff82111561272d5761272c612697565b5b6127368261240c565b9050602081019050919050565b82818337600083830152505050565b600061276561276084612712565b6126f7565b90508281526020810184848401111561278157612780612692565b5b61278c848285612743565b509392505050565b600082601f8301126127a9576127a861268d565b5b81356127b9848260208601612752565b91505092915050565b6000602082840312156127d8576127d76122f8565b5b600082013567ffffffffffffffff8111156127f6576127f56122fd565b5b61280284828501612794565b91505092915050565b60008060408385031215612822576128216122f8565b5b600061283085828601612499565b925050602083013567ffffffffffffffff811115612851576128506122fd565b5b61285d85828601612794565b9150509250929050565b61287081612387565b811461287b57600080fd5b50565b60008135905061288d81612867565b92915050565b600080604083850312156128aa576128a96122f8565b5b60006128b88582860161254e565b92505060206128c98582860161287e565b9150509250929050565b600067ffffffffffffffff8211156128ee576128ed612697565b5b6128f78261240c565b9050602081019050919050565b6000612917612912846128d3565b6126f7565b90508281526020810184848401111561293357612932612692565b5b61293e848285612743565b509392505050565b600082601f83011261295b5761295a61268d565b5b813561296b848260208601612904565b91505092915050565b6000806000806080858703121561298e5761298d6122f8565b5b600061299c8782880161254e565b94505060206129ad8782880161254e565b93505060406129be87828801612499565b925050606085013567ffffffffffffffff8111156129df576129de6122fd565b5b6129eb87828801612946565b91505092959194509250565b60008060408385031215612a0e57612a0d6122f8565b5b6000612a1c8582860161254e565b9250506020612a2d8582860161254e565b9150509250929050565b7f4e487b7100000000000000000000000000000000000000000000000000000000600052602260045260246000fd5b60006002820490506001821680612a7e57607f821691505b60208210811415612a9257612a91612a37565b5b50919050565b7f4552433732313a20617070726f76616c20746f2063757272656e74206f776e6560008201527f7200000000000000000000000000000000000000000000000000000000000000602082015250565b6000612af46021836123c8565b9150612aff82612a98565b604082019050919050565b60006020820190508181036000830152612b2381612ae7565b9050919050565b7f4552433732313a20617070726f76652063616c6c6572206973206e6f7420746f60008201527f6b656e206f776e6572206f7220617070726f76656420666f7220616c6c000000602082015250565b6000612b86603d836123c8565b9150612b9182612b2a565b604082019050919050565b60006020820190508181036000830152612bb581612b79565b9050919050565b7f4552433732313a2063616c6c6572206973206e6f7420746f6b656e206f776e6560008201527f72206f7220617070726f76656400000000000000000000000000000000000000602082015250565b6000612c18602d836123c8565b9150612c2382612bbc565b604082019050919050565b60006020820190508181036000830152612c4781612c0b565b9050919050565b7f4552433732313a20696e76616c696420746f6b656e2049440000000000000000600082015250565b6000612c846018836123c8565b9150612c8f82612c4e565b602082019050919050565b60006020820190508181036000830152612cb381612c77565b9050919050565b7f4552433732313a2061646472657373207a65726f206973206e6f74206120766160008201527f6c6964206f776e65720000000000000000000000000000000000000000000000602082015250565b6000612d166029836123c8565b9150612d2182612cba565b604082019050919050565b60006020820190508181036000830152612d4581612d09565b9050919050565b7f4e487b7100000000000000000000000000000000000000000000000000000000600052601160045260246000fd5b6000612d8682612478565b9150612d9183612478565b9250827fffffffffffffffffffffffffffffffffffffffffffffffffffffffffffffffff03821115612dc657612dc5612d4c565b5b828201905092915050565b6000612ddc82612478565b9150612de783612478565b925082821015612dfa57612df9612d4c565b5b828203905092915050565b600081905092915050565b6000612e1b826123bd565b612e258185612e05565b9350612e358185602086016123d9565b80840191505092915050565b6000612e4d8285612e10565b9150612e598284612e10565b91508190509392505050565b7f4552433732313a207472616e736665722066726f6d20696e636f72726563742060008201527f6f776e6572000000000000000000000000000000000000000000000000000000602082015250565b6000612ec16025836123c8565b9150612ecc82612e65565b604082019050919050565b60006020820190508181036000830152612ef081612eb4565b9050919050565b7f4552433732313a207472616e7366657220746f20746865207a65726f2061646460008201527f7265737300000000000000000000000000000000000000000000000000000000602082015250565b6000612f536024836123c8565b9150612f5e82612ef7565b604082019050919050565b60006020820190508181036000830152612f8281612f46565b9050919050565b7f45524337323155524953746f726167653a2055524920736574206f66206e6f6e60008201527f6578697374656e7420746f6b656e000000000000000000000000000000000000602082015250565b6000612fe5602e836123c8565b9150612ff082612f89565b604082019050919050565b6000602082019050818103600083015261301481612fd8565b9050919050565b7f4552433732313a20617070726f766520746f2063616c6c657200000000000000600082015250565b60006130516019836123c8565b915061305c8261301b565b602082019050919050565b6000602082019050818103600083015261308081613044565b9050919050565b7f4552433732313a207472616e7366657220746f206e6f6e20455243373231526560008201527f63656976657220696d706c656d656e7465720000000000000000000000000000602082015250565b60006130e36032836123c8565b91506130ee82613087565b604082019050919050565b60006020820190508181036000830152613112816130d6565b9050919050565b600081519050919050565b600082825260208201905092915050565b600061314082613119565b61314a8185613124565b935061315a8185602086016123d9565b6131638161240c565b840191505092915050565b6000608082019050613183600083018761250d565b613190602083018661250d565b61319d60408301856125a3565b81810360608301526131af8184613135565b905095945050505050565b6000815190506131c98161232e565b92915050565b6000602082840312156131e5576131e46122f8565b5b60006131f3848285016131ba565b91505092915050565b7f4e487b7100000000000000000000000000000000000000000000000000000000600052601260045260246000fd5b7f4552433732313a206d696e7420746f20746865207a65726f2061646472657373600082015250565b60006132616020836123c8565b915061326c8261322b565b602082019050919050565b6000602082019050818103600083015261329081613254565b9050919050565b7f4552433732313a20746f6b656e20616c7265616479206d696e74656400000000600082015250565b60006132cd601c836123c8565b91506132d882613297565b602082019050919050565b600060208201905081810360008301526132fc816132c0565b905091905056fea264697066735822122028c4f38547c8b1c6ddd4e2fe2332aa3a3d6d36a64ca54a9756e0a6b1ea3bb31c64736f6c63430008080033",
  "devdoc": {
    "kind": "dev",
    "methods": {
      "approve(address,uint256)": {
        "details": "See {IERC721-approve}."
      },
      "balanceOf(address)": {
        "details": "See {IERC721-balanceOf}."
      },
      "getApproved(uint256)": {
        "details": "See {IERC721-getApproved}."
      },
      "isApprovedForAll(address,address)": {
        "details": "See {IERC721-isApprovedForAll}."
      },
      "name()": {
        "details": "See {IERC721Metadata-name}."
      },
      "ownerOf(uint256)": {
        "details": "See {IERC721-ownerOf}."
      },
      "safeTransferFrom(address,address,uint256)": {
        "details": "See {IERC721-safeTransferFrom}."
      },
      "safeTransferFrom(address,address,uint256,bytes)": {
        "details": "See {IERC721-safeTransferFrom}."
      },
      "setApprovalForAll(address,bool)": {
        "details": "See {IERC721-setApprovalForAll}."
      },
      "supportsInterface(bytes4)": {
        "details": "See {IERC165-supportsInterface}."
      },
      "symbol()": {
        "details": "See {IERC721Metadata-symbol}."
      },
      "tokenURI(uint256)": {
        "details": "See {IERC721Metadata-tokenURI}."
      },
      "transferFrom(address,address,uint256)": {
        "details": "See {IERC721-transferFrom}."
      }
    },
    "version": 1
  },
  "userdoc": {
    "kind": "user",
    "methods": {},
    "version": 1
  },
  "storageLayout": {
    "storage": [
      {
        "astId": 25,
        "contract": "contracts/BlockSocial.sol:BlockSocial",
        "label": "_name",
        "offset": 0,
        "slot": "0",
        "type": "t_string_storage"
      },
      {
        "astId": 27,
        "contract": "contracts/BlockSocial.sol:BlockSocial",
        "label": "_symbol",
        "offset": 0,
        "slot": "1",
        "type": "t_string_storage"
      },
      {
        "astId": 31,
        "contract": "contracts/BlockSocial.sol:BlockSocial",
        "label": "_owners",
        "offset": 0,
        "slot": "2",
        "type": "t_mapping(t_uint256,t_address)"
      },
      {
        "astId": 35,
        "contract": "contracts/BlockSocial.sol:BlockSocial",
        "label": "_balances",
        "offset": 0,
        "slot": "3",
        "type": "t_mapping(t_address,t_uint256)"
      },
      {
        "astId": 39,
        "contract": "contracts/BlockSocial.sol:BlockSocial",
        "label": "_tokenApprovals",
        "offset": 0,
        "slot": "4",
        "type": "t_mapping(t_uint256,t_address)"
      },
      {
        "astId": 45,
        "contract": "contracts/BlockSocial.sol:BlockSocial",
        "label": "_operatorApprovals",
        "offset": 0,
        "slot": "5",
        "type": "t_mapping(t_address,t_mapping(t_address,t_bool))"
      },
      {
        "astId": 1091,
        "contract": "contracts/BlockSocial.sol:BlockSocial",
        "label": "_tokenURIs",
        "offset": 0,
        "slot": "6",
        "type": "t_mapping(t_uint256,t_string_storage)"
      },
      {
        "astId": 2671,
        "contract": "contracts/BlockSocial.sol:BlockSocial",
        "label": "s_tokenCounter",
        "offset": 0,
        "slot": "7",
        "type": "t_uint256"
      },
      {
        "astId": 2675,
        "contract": "contracts/BlockSocial.sol:BlockSocial",
        "label": "s_tokenIdToLikeCount",
        "offset": 0,
        "slot": "8",
        "type": "t_mapping(t_uint256,t_uint256)"
      },
      {
        "astId": 2681,
        "contract": "contracts/BlockSocial.sol:BlockSocial",
        "label": "s_tokenIdToWhoLiked",
        "offset": 0,
        "slot": "9",
        "type": "t_mapping(t_uint256,t_mapping(t_address,t_bool))"
      }
    ],
    "types": {
      "t_address": {
        "encoding": "inplace",
        "label": "address",
        "numberOfBytes": "20"
      },
      "t_bool": {
        "encoding": "inplace",
        "label": "bool",
        "numberOfBytes": "1"
      },
      "t_mapping(t_address,t_bool)": {
        "encoding": "mapping",
        "key": "t_address",
        "label": "mapping(address => bool)",
        "numberOfBytes": "32",
        "value": "t_bool"
      },
      "t_mapping(t_address,t_mapping(t_address,t_bool))": {
        "encoding": "mapping",
        "key": "t_address",
        "label": "mapping(address => mapping(address => bool))",
        "numberOfBytes": "32",
        "value": "t_mapping(t_address,t_bool)"
      },
      "t_mapping(t_address,t_uint256)": {
        "encoding": "mapping",
        "key": "t_address",
        "label": "mapping(address => uint256)",
        "numberOfBytes": "32",
        "value": "t_uint256"
      },
      "t_mapping(t_uint256,t_address)": {
        "encoding": "mapping",
        "key": "t_uint256",
        "label": "mapping(uint256 => address)",
        "numberOfBytes": "32",
        "value": "t_address"
      },
      "t_mapping(t_uint256,t_mapping(t_address,t_bool))": {
        "encoding": "mapping",
        "key": "t_uint256",
        "label": "mapping(uint256 => mapping(address => bool))",
        "numberOfBytes": "32",
        "value": "t_mapping(t_address,t_bool)"
      },
      "t_mapping(t_uint256,t_string_storage)": {
        "encoding": "mapping",
        "key": "t_uint256",
        "label": "mapping(uint256 => string)",
        "numberOfBytes": "32",
        "value": "t_string_storage"
      },
      "t_mapping(t_uint256,t_uint256)": {
        "encoding": "mapping",
        "key": "t_uint256",
        "label": "mapping(uint256 => uint256)",
        "numberOfBytes": "32",
        "value": "t_uint256"
      },
      "t_string_storage": {
        "encoding": "bytes",
        "label": "string",
        "numberOfBytes": "32"
      },
      "t_uint256": {
        "encoding": "inplace",
        "label": "uint256",
        "numberOfBytes": "32"
      }
    }
  }
}