{
  "address": "0x89db716573Be5a11Bb752E7381634B7dE35479FE",
  "abi": [
    {
      "inputs": [],
      "stateMutability": "nonpayable",
      "type": "constructor"
    },
    {
      "inputs": [],
      "name": "BLockSocial_TokenIdNotExist",
      "type": "error"
    },
    {
      "inputs": [],
      "name": "BlockSocial_AlreadyLiked",
      "type": "error"
    },
    {
      "inputs": [],
      "name": "BlockSocial_DidNotEvenLiked",
      "type": "error"
    },
    {
      "anonymous": false,
      "inputs": [
        {
          "indexed": true,
          "internalType": "address",
          "name": "owner",
          "type": "address"
        },
        {
          "indexed": true,
          "internalType": "address",
          "name": "approved",
          "type": "address"
        },
        {
          "indexed": true,
          "internalType": "uint256",
          "name": "tokenId",
          "type": "uint256"
        }
      ],
      "name": "Approval",
      "type": "event"
    },
    {
      "anonymous": false,
      "inputs": [
        {
          "indexed": true,
          "internalType": "address",
          "name": "owner",
          "type": "address"
        },
        {
          "indexed": true,
          "internalType": "address",
          "name": "operator",
          "type": "address"
        },
        {
          "indexed": false,
          "internalType": "bool",
          "name": "approved",
          "type": "bool"
        }
      ],
      "name": "ApprovalForAll",
      "type": "event"
    },
    {
      "anonymous": false,
      "inputs": [
        {
          "indexed": true,
          "internalType": "uint256",
          "name": "commentToTokenId",
          "type": "uint256"
        },
        {
          "indexed": true,
          "internalType": "address",
          "name": "from",
          "type": "address"
        },
        {
          "indexed": true,
          "internalType": "uint256",
          "name": "commentTokenId",
          "type": "uint256"
        }
      ],
      "name": "CommentMinted",
      "type": "event"
    },
    {
      "anonymous": false,
      "inputs": [
        {
          "indexed": true,
          "internalType": "address",
          "name": "whoDidLike",
          "type": "address"
        },
        {
          "indexed": true,
          "internalType": "uint256",
          "name": "whichPostLiked",
          "type": "uint256"
        },
        {
          "indexed": true,
          "internalType": "uint256",
          "name": "overallLikeCountOfPost",
          "type": "uint256"
        }
      ],
      "name": "Liked",
      "type": "event"
    },
    {
      "anonymous": false,
      "inputs": [
        {
          "indexed": true,
          "internalType": "address",
          "name": "from",
          "type": "address"
        },
        {
          "indexed": true,
          "internalType": "uint256",
          "name": "tokenId",
          "type": "uint256"
        },
        {
          "indexed": true,
          "internalType": "uint256",
          "name": "postNumber",
          "type": "uint256"
        }
      ],
      "name": "PostMinted",
      "type": "event"
    },
    {
      "anonymous": false,
      "inputs": [
        {
          "indexed": true,
          "internalType": "address",
          "name": "from",
          "type": "address"
        },
        {
          "indexed": true,
          "internalType": "address",
          "name": "to",
          "type": "address"
        },
        {
          "indexed": true,
          "internalType": "uint256",
          "name": "tokenId",
          "type": "uint256"
        }
      ],
      "name": "Transfer",
      "type": "event"
    },
    {
      "anonymous": false,
      "inputs": [
        {
          "indexed": true,
          "internalType": "address",
          "name": "whoDidUnLike",
          "type": "address"
        },
        {
          "indexed": true,
          "internalType": "uint256",
          "name": "whichPostUnLiked",
          "type": "uint256"
        },
        {
          "indexed": true,
          "internalType": "uint256",
          "name": "overallLikeCountOfPost",
          "type": "uint256"
        }
      ],
      "name": "UnLiked",
      "type": "event"
    },
    {
      "inputs": [
        {
          "internalType": "address",
          "name": "to",
          "type": "address"
        },
        {
          "internalType": "uint256",
          "name": "tokenId",
          "type": "uint256"
        }
      ],
      "name": "approve",
      "outputs": [],
      "stateMutability": "nonpayable",
      "type": "function"
    },
    {
      "inputs": [
        {
          "internalType": "address",
          "name": "owner",
          "type": "address"
        }
      ],
      "name": "balanceOf",
      "outputs": [
        {
          "internalType": "uint256",
          "name": "",
          "type": "uint256"
        }
      ],
      "stateMutability": "view",
      "type": "function"
    },
    {
      "inputs": [
        {
          "internalType": "uint256",
          "name": "tokenId",
          "type": "uint256"
        }
      ],
      "name": "getApproved",
      "outputs": [
        {
          "internalType": "address",
          "name": "",
          "type": "address"
        }
      ],
      "stateMutability": "view",
      "type": "function"
    },
    {
      "inputs": [
        {
          "internalType": "uint256",
          "name": "_tokenId",
          "type": "uint256"
        },
        {
          "internalType": "address",
          "name": "_personAddress",
          "type": "address"
        }
      ],
      "name": "getIsThisPersonLikedThisPost",
      "outputs": [
        {
          "internalType": "bool",
          "name": "",
          "type": "bool"
        }
      ],
      "stateMutability": "view",
      "type": "function"
    },
    {
      "inputs": [
        {
          "internalType": "uint256",
          "name": "_tokenId",
          "type": "uint256"
        }
      ],
      "name": "getLikeCount",
      "outputs": [
        {
          "internalType": "uint256",
          "name": "likeCount",
          "type": "uint256"
        }
      ],
      "stateMutability": "view",
      "type": "function"
    },
    {
      "inputs": [],
      "name": "getPostCount",
      "outputs": [
        {
          "internalType": "uint256",
          "name": "postCount",
          "type": "uint256"
        }
      ],
      "stateMutability": "view",
      "type": "function"
    },
    {
      "inputs": [],
      "name": "getTokenCount",
      "outputs": [
        {
          "internalType": "uint256",
          "name": "tokenCount",
          "type": "uint256"
        }
      ],
      "stateMutability": "view",
      "type": "function"
    },
    {
      "inputs": [
        {
          "internalType": "address",
          "name": "owner",
          "type": "address"
        },
        {
          "internalType": "address",
          "name": "operator",
          "type": "address"
        }
      ],
      "name": "isApprovedForAll",
      "outputs": [
        {
          "internalType": "bool",
          "name": "",
          "type": "bool"
        }
      ],
      "stateMutability": "view",
      "type": "function"
    },
    {
      "inputs": [
        {
          "internalType": "uint256",
          "name": "_tokenId",
          "type": "uint256"
        }
      ],
      "name": "like",
      "outputs": [],
      "stateMutability": "nonpayable",
      "type": "function"
    },
    {
      "inputs": [
        {
          "internalType": "uint256",
          "name": "_tokenIdToComment",
          "type": "uint256"
        },
        {
          "internalType": "string",
          "name": "_uri",
          "type": "string"
        }
      ],
      "name": "mintComment",
      "outputs": [],
      "stateMutability": "nonpayable",
      "type": "function"
    },
    {
      "inputs": [
        {
          "internalType": "string",
          "name": "_uri",
          "type": "string"
        }
      ],
      "name": "mintingPost",
      "outputs": [],
      "stateMutability": "nonpayable",
      "type": "function"
    },
    {
      "inputs": [],
      "name": "name",
      "outputs": [
        {
          "internalType": "string",
          "name": "",
          "type": "string"
        }
      ],
      "stateMutability": "view",
      "type": "function"
    },
    {
      "inputs": [
        {
          "internalType": "uint256",
          "name": "tokenId",
          "type": "uint256"
        }
      ],
      "name": "ownerOf",
      "outputs": [
        {
          "internalType": "address",
          "name": "",
          "type": "address"
        }
      ],
      "stateMutability": "view",
      "type": "function"
    },
    {
      "inputs": [],
      "name": "s_postCounter",
      "outputs": [
        {
          "internalType": "uint256",
          "name": "",
          "type": "uint256"
        }
      ],
      "stateMutability": "view",
      "type": "function"
    },
    {
      "inputs": [],
      "name": "s_tokenCounter",
      "outputs": [
        {
          "internalType": "uint256",
          "name": "",
          "type": "uint256"
        }
      ],
      "stateMutability": "view",
      "type": "function"
    },
    {
      "inputs": [
        {
          "internalType": "uint256",
          "name": "",
          "type": "uint256"
        }
      ],
      "name": "s_tokenIdToLikeCount",
      "outputs": [
        {
          "internalType": "uint256",
          "name": "",
          "type": "uint256"
        }
      ],
      "stateMutability": "view",
      "type": "function"
    },
    {
      "inputs": [
        {
          "internalType": "uint256",
          "name": "",
          "type": "uint256"
        },
        {
          "internalType": "address",
          "name": "",
          "type": "address"
        }
      ],
      "name": "s_tokenIdToWhoLiked",
      "outputs": [
        {
          "internalType": "bool",
          "name": "",
          "type": "bool"
        }
      ],
      "stateMutability": "view",
      "type": "function"
    },
    {
      "inputs": [
        {
          "internalType": "address",
          "name": "from",
          "type": "address"
        },
        {
          "internalType": "address",
          "name": "to",
          "type": "address"
        },
        {
          "internalType": "uint256",
          "name": "tokenId",
          "type": "uint256"
        }
      ],
      "name": "safeTransferFrom",
      "outputs": [],
      "stateMutability": "nonpayable",
      "type": "function"
    },
    {
      "inputs": [
        {
          "internalType": "address",
          "name": "from",
          "type": "address"
        },
        {
          "internalType": "address",
          "name": "to",
          "type": "address"
        },
        {
          "internalType": "uint256",
          "name": "tokenId",
          "type": "uint256"
        },
        {
          "internalType": "bytes",
          "name": "data",
          "type": "bytes"
        }
      ],
      "name": "safeTransferFrom",
      "outputs": [],
      "stateMutability": "nonpayable",
      "type": "function"
    },
    {
      "inputs": [
        {
          "internalType": "address",
          "name": "operator",
          "type": "address"
        },
        {
          "internalType": "bool",
          "name": "approved",
          "type": "bool"
        }
      ],
      "name": "setApprovalForAll",
      "outputs": [],
      "stateMutability": "nonpayable",
      "type": "function"
    },
    {
      "inputs": [
        {
          "internalType": "bytes4",
          "name": "interfaceId",
          "type": "bytes4"
        }
      ],
      "name": "supportsInterface",
      "outputs": [
        {
          "internalType": "bool",
          "name": "",
          "type": "bool"
        }
      ],
      "stateMutability": "view",
      "type": "function"
    },
    {
      "inputs": [],
      "name": "symbol",
      "outputs": [
        {
          "internalType": "string",
          "name": "",
          "type": "string"
        }
      ],
      "stateMutability": "view",
      "type": "function"
    },
    {
      "inputs": [
        {
          "internalType": "uint256",
          "name": "tokenId",
          "type": "uint256"
        }
      ],
      "name": "tokenURI",
      "outputs": [
        {
          "internalType": "string",
          "name": "",
          "type": "string"
        }
      ],
      "stateMutability": "view",
      "type": "function"
    },
    {
      "inputs": [
        {
          "internalType": "address",
          "name": "from",
          "type": "address"
        },
        {
          "internalType": "address",
          "name": "to",
          "type": "address"
        },
        {
          "internalType": "uint256",
          "name": "tokenId",
          "type": "uint256"
        }
      ],
      "name": "transferFrom",
      "outputs": [],
      "stateMutability": "nonpayable",
      "type": "function"
    },
    {
      "inputs": [
        {
          "internalType": "uint256",
          "name": "_tokenId",
          "type": "uint256"
        }
      ],
      "name": "unLike",
      "outputs": [],
      "stateMutability": "nonpayable",
      "type": "function"
    }
  ],
  "transactionHash": "0xc603008acd74d1c146e815fe5d356038c4366d4149ecefd64247034e2e89a660",
  "args": [],
  "numDeployments": 7,
  "solcInputHash": "03ba72ffd77e4480bf14f761c8fb03d7",
  "bytecode": "0x60806040523480156200001157600080fd5b506040518060400160405280600b81526020017f426c6f636b536f6369616c0000000000000000000000000000000000000000008152506040518060400160405280600281526020017f4253000000000000000000000000000000000000000000000000000000000000815250816000908051906020019062000096929190620000c8565b508060019080519060200190620000af929190620000c8565b50505060006007819055506000600881905550620001dd565b828054620000d690620001a7565b90600052602060002090601f016020900481019282620000fa576000855562000146565b82601f106200011557805160ff191683800117855562000146565b8280016001018555821562000146579182015b828111156200014557825182559160200191906001019062000128565b5b50905062000155919062000159565b5090565b5b80821115620001745760008160009055506001016200015a565b5090565b7f4e487b7100000000000000000000000000000000000000000000000000000000600052602260045260246000fd5b60006002820490506001821680620001c057607f821691505b60208210811415620001d757620001d662000178565b5b50919050565b61336080620001ed6000396000f3fe608060405234801561001057600080fd5b50600436106101735760003560e01c806395d89b41116100de578063c87b56dd11610097578063e1920e3a11610071578063e1920e3a1461046e578063e82935da1461049e578063e985e9c5146104ba578063fc705b11146104ea57610173565b8063c87b56dd146103f2578063db8461c014610422578063dc5d042c1461043e57610173565b806395d89b41146103465780639687195314610364578063988de00b14610380578063a22cb4651461039c578063b88d4fde146103b8578063bcc95407146103d457610173565b806342842e0e1161013057806342842e0e1461024c5780634ef576ad146102685780636352211e1461029857806365413b54146102c857806370a08231146102f857806378a895671461032857610173565b806301ffc9a71461017857806306fdde03146101a8578063081812fc146101c6578063095ea7b3146101f65780630b21a83b1461021257806323b872dd14610230575b600080fd5b610192600480360381019061018d9190612381565b610508565b60405161019f91906123c9565b60405180910390f35b6101b06105ea565b6040516101bd919061247d565b60405180910390f35b6101e060048036038101906101db91906124d5565b61067c565b6040516101ed9190612543565b60405180910390f35b610210600480360381019061020b919061258a565b6106c2565b005b61021a6107da565b60405161022791906125d9565b60405180910390f35b61024a600480360381019061024591906125f4565b6107e0565b005b610266600480360381019061026191906125f4565b610840565b005b610282600480360381019061027d91906124d5565b610860565b60405161028f91906125d9565b60405180910390f35b6102b260048036038101906102ad91906124d5565b61087d565b6040516102bf9190612543565b60405180910390f35b6102e260048036038101906102dd9190612647565b610904565b6040516102ef91906123c9565b60405180910390f35b610312600480360381019061030d9190612687565b610933565b60405161031f91906125d9565b60405180910390f35b6103306109eb565b60405161033d91906125d9565b60405180910390f35b61034e6109f5565b60405161035b919061247d565b60405180910390f35b61037e600480360381019061037991906127e9565b610a87565b005b61039a60048036038101906103959190612832565b610b1f565b005b6103b660048036038101906103b191906128ba565b610be4565b005b6103d260048036038101906103cd919061299b565b610bfa565b005b6103dc610c5c565b6040516103e991906125d9565b60405180910390f35b61040c600480360381019061040791906124d5565b610c66565b604051610419919061247d565b60405180910390f35b61043c600480360381019061043791906124d5565b610d79565b005b610458600480360381019061045391906124d5565b610f51565b60405161046591906125d9565b60405180910390f35b61048860048036038101906104839190612647565b610f69565b60405161049591906123c9565b60405180910390f35b6104b860048036038101906104b391906124d5565b611019565b005b6104d460048036038101906104cf9190612a1e565b6111f1565b6040516104e191906123c9565b60405180910390f35b6104f2611285565b6040516104ff91906125d9565b60405180910390f35b60007f80ac58cd000000000000000000000000000000000000000000000000000000007bffffffffffffffffffffffffffffffffffffffffffffffffffffffff1916827bffffffffffffffffffffffffffffffffffffffffffffffffffffffff191614806105d357507f5b5e139f000000000000000000000000000000000000000000000000000000007bffffffffffffffffffffffffffffffffffffffffffffffffffffffff1916827bffffffffffffffffffffffffffffffffffffffffffffffffffffffff1916145b806105e357506105e28261128b565b5b9050919050565b6060600080546105f990612a8d565b80601f016020809104026020016040519081016040528092919081815260200182805461062590612a8d565b80156106725780601f1061064757610100808354040283529160200191610672565b820191906000526020600020905b81548152906001019060200180831161065557829003601f168201915b5050505050905090565b6000610687826112f5565b6004600083815260200190815260200160002060009054906101000a900473ffffffffffffffffffffffffffffffffffffffff169050919050565b60006106cd8261087d565b90508073ffffffffffffffffffffffffffffffffffffffff168373ffffffffffffffffffffffffffffffffffffffff16141561073e576040517f08c379a000000000000000000000000000000000000000000000000000000000815260040161073590612b31565b60405180910390fd5b8073ffffffffffffffffffffffffffffffffffffffff1661075d611340565b73ffffffffffffffffffffffffffffffffffffffff16148061078c575061078b81610786611340565b6111f1565b5b6107cb576040517f08c379a00000000000000000000000000000000000000000000000000000000081526004016107c290612bc3565b60405180910390fd5b6107d58383611348565b505050565b60075481565b6107f16107eb611340565b82611401565b610830576040517f08c379a000000000000000000000000000000000000000000000000000000000815260040161082790612c55565b60405180910390fd5b61083b838383611496565b505050565b61085b83838360405180602001604052806000815250610bfa565b505050565b600060096000838152602001908152602001600020549050919050565b60008061088983611790565b9050600073ffffffffffffffffffffffffffffffffffffffff168173ffffffffffffffffffffffffffffffffffffffff1614156108fb576040517f08c379a00000000000000000000000000000000000000000000000000000000081526004016108f290612cc1565b60405180910390fd5b80915050919050565b600a6020528160005260406000206020528060005260406000206000915091509054906101000a900460ff1681565b60008073ffffffffffffffffffffffffffffffffffffffff168273ffffffffffffffffffffffffffffffffffffffff1614156109a4576040517f08c379a000000000000000000000000000000000000000000000000000000000815260040161099b90612d53565b60405180910390fd5b600360008373ffffffffffffffffffffffffffffffffffffffff1673ffffffffffffffffffffffffffffffffffffffff168152602001908152602001600020549050919050565b6000600754905090565b606060018054610a0490612a8d565b80601f0160208091040260200160405190810160405280929190818152602001828054610a3090612a8d565b8015610a7d5780601f10610a5257610100808354040283529160200191610a7d565b820191906000526020600020905b815481529060010190602001808311610a6057829003601f168201915b5050505050905090565b610a93336007546117cd565b610a9f600754826117eb565b6008546007543373ffffffffffffffffffffffffffffffffffffffff167fba08d4a420ec7368989fc99a229ac75118557f6df7a06e35120821f8eddaa07360405160405180910390a4600160076000828254610afb9190612da2565b92505081905550600160086000828254610b159190612da2565b9250508190555050565b6001600754610b2e9190612df8565b821115610b67576040517fbc10bcea00000000000000000000000000000000000000000000000000000000815260040160405180910390fd5b610b73336007546117cd565b610b7f600754826117eb565b6007543373ffffffffffffffffffffffffffffffffffffffff16837f1e0408208af33f8dd6f3e2ffa933f7fa449ff6a994e0f232050a610fb2117e4d60405160405180910390a4600160076000828254610bd99190612da2565b925050819055505050565b610bf6610bef611340565b838361185f565b5050565b610c0b610c05611340565b83611401565b610c4a576040517f08c379a0000000000000000000000000000000000000000000000000000000008152600401610c4190612c55565b60405180910390fd5b610c56848484846119cc565b50505050565b6000600854905090565b6060610c71826112f5565b6000600660008481526020019081526020016000208054610c9190612a8d565b80601f0160208091040260200160405190810160405280929190818152602001828054610cbd90612a8d565b8015610d0a5780601f10610cdf57610100808354040283529160200191610d0a565b820191906000526020600020905b815481529060010190602001808311610ced57829003601f168201915b505050505090506000610d1b611a28565b9050600081511415610d31578192505050610d74565b600082511115610d66578082604051602001610d4e929190612e68565b60405160208183030381529060405292505050610d74565b610d6f84611a3f565b925050505b919050565b6001600754610d889190612df8565b811115610dc1576040517fbc10bcea00000000000000000000000000000000000000000000000000000000815260040160405180910390fd5b60001515600a600083815260200190815260200160002060003373ffffffffffffffffffffffffffffffffffffffff1673ffffffffffffffffffffffffffffffffffffffff16815260200190815260200160002060009054906101000a900460ff1615151415610e5d576040517f1dddd0eb00000000000000000000000000000000000000000000000000000000815260040160405180910390fd5b6000600a600083815260200190815260200160002060003373ffffffffffffffffffffffffffffffffffffffff1673ffffffffffffffffffffffffffffffffffffffff16815260200190815260200160002060006101000a81548160ff0219169083151502179055506000600960008381526020019081526020016000205490506000600182610eed9190612df8565b905080600960008581526020019081526020016000208190555080833373ffffffffffffffffffffffffffffffffffffffff167fe2396e9054558aff00ad7c3bc6edd310667fafbc7ea91ff20712760b7832873660405160405180910390a4505050565b60096020528060005260406000206000915090505481565b60006001600754610f7a9190612df8565b831115610fb3576040517fbc10bcea00000000000000000000000000000000000000000000000000000000815260040160405180910390fd5b600a600084815260200190815260200160002060008373ffffffffffffffffffffffffffffffffffffffff1673ffffffffffffffffffffffffffffffffffffffff16815260200190815260200160002060009054906101000a900460ff16905092915050565b60016007546110289190612df8565b811115611061576040517fbc10bcea00000000000000000000000000000000000000000000000000000000815260040160405180910390fd5b60011515600a600083815260200190815260200160002060003373ffffffffffffffffffffffffffffffffffffffff1673ffffffffffffffffffffffffffffffffffffffff16815260200190815260200160002060009054906101000a900460ff16151514156110fd576040517f4a2f422100000000000000000000000000000000000000000000000000000000815260040160405180910390fd5b6001600a600083815260200190815260200160002060003373ffffffffffffffffffffffffffffffffffffffff1673ffffffffffffffffffffffffffffffffffffffff16815260200190815260200160002060006101000a81548160ff021916908315150217905550600060096000838152602001908152602001600020549050600060018261118d9190612da2565b905080600960008581526020019081526020016000208190555080833373ffffffffffffffffffffffffffffffffffffffff167f88bb3938380c70e543fd5f4cbd8a7642dad94b8242d9dd9130759c4c52fc23b560405160405180910390a4505050565b6000600560008473ffffffffffffffffffffffffffffffffffffffff1673ffffffffffffffffffffffffffffffffffffffff16815260200190815260200160002060008373ffffffffffffffffffffffffffffffffffffffff1673ffffffffffffffffffffffffffffffffffffffff16815260200190815260200160002060009054906101000a900460ff16905092915050565b60085481565b60007f01ffc9a7000000000000000000000000000000000000000000000000000000007bffffffffffffffffffffffffffffffffffffffffffffffffffffffff1916827bffffffffffffffffffffffffffffffffffffffffffffffffffffffff1916149050919050565b6112fe81611aa7565b61133d576040517f08c379a000000000000000000000000000000000000000000000000000000000815260040161133490612cc1565b60405180910390fd5b50565b600033905090565b816004600083815260200190815260200160002060006101000a81548173ffffffffffffffffffffffffffffffffffffffff021916908373ffffffffffffffffffffffffffffffffffffffff160217905550808273ffffffffffffffffffffffffffffffffffffffff166113bb8361087d565b73ffffffffffffffffffffffffffffffffffffffff167f8c5be1e5ebec7d5bd14f71427d1e84f3dd0314c0f7b2291e5b200ac8c7c3b92560405160405180910390a45050565b60008061140d8361087d565b90508073ffffffffffffffffffffffffffffffffffffffff168473ffffffffffffffffffffffffffffffffffffffff16148061144f575061144e81856111f1565b5b8061148d57508373ffffffffffffffffffffffffffffffffffffffff166114758461067c565b73ffffffffffffffffffffffffffffffffffffffff16145b91505092915050565b8273ffffffffffffffffffffffffffffffffffffffff166114b68261087d565b73ffffffffffffffffffffffffffffffffffffffff161461150c576040517f08c379a000000000000000000000000000000000000000000000000000000000815260040161150390612efe565b60405180910390fd5b600073ffffffffffffffffffffffffffffffffffffffff168273ffffffffffffffffffffffffffffffffffffffff16141561157c576040517f08c379a000000000000000000000000000000000000000000000000000000000815260040161157390612f90565b60405180910390fd5b6115898383836001611ae8565b8273ffffffffffffffffffffffffffffffffffffffff166115a98261087d565b73ffffffffffffffffffffffffffffffffffffffff16146115ff576040517f08c379a00000000000000000000000000000000000000000000000000000000081526004016115f690612efe565b60405180910390fd5b6004600082815260200190815260200160002060006101000a81549073ffffffffffffffffffffffffffffffffffffffff02191690556001600360008573ffffffffffffffffffffffffffffffffffffffff1673ffffffffffffffffffffffffffffffffffffffff168152602001908152602001600020600082825403925050819055506001600360008473ffffffffffffffffffffffffffffffffffffffff1673ffffffffffffffffffffffffffffffffffffffff16815260200190815260200160002060008282540192505081905550816002600083815260200190815260200160002060006101000a81548173ffffffffffffffffffffffffffffffffffffffff021916908373ffffffffffffffffffffffffffffffffffffffff160217905550808273ffffffffffffffffffffffffffffffffffffffff168473ffffffffffffffffffffffffffffffffffffffff167fddf252ad1be2c89b69c2b068fc378daa952ba7f163c4a11628f55a4df523b3ef60405160405180910390a461178b8383836001611c0e565b505050565b60006002600083815260200190815260200160002060009054906101000a900473ffffffffffffffffffffffffffffffffffffffff169050919050565b6117e7828260405180602001604052806000815250611c14565b5050565b6117f482611aa7565b611833576040517f08c379a000000000000000000000000000000000000000000000000000000000815260040161182a90613022565b60405180910390fd5b8060066000848152602001908152602001600020908051906020019061185a929190612272565b505050565b8173ffffffffffffffffffffffffffffffffffffffff168373ffffffffffffffffffffffffffffffffffffffff1614156118ce576040517f08c379a00000000000000000000000000000000000000000000000000000000081526004016118c59061308e565b60405180910390fd5b80600560008573ffffffffffffffffffffffffffffffffffffffff1673ffffffffffffffffffffffffffffffffffffffff16815260200190815260200160002060008473ffffffffffffffffffffffffffffffffffffffff1673ffffffffffffffffffffffffffffffffffffffff16815260200190815260200160002060006101000a81548160ff0219169083151502179055508173ffffffffffffffffffffffffffffffffffffffff168373ffffffffffffffffffffffffffffffffffffffff167f17307eab39ab6107e8899845ad3d59bd9653f200f220920489ca2b5937696c31836040516119bf91906123c9565b60405180910390a3505050565b6119d7848484611496565b6119e384848484611c6f565b611a22576040517f08c379a0000000000000000000000000000000000000000000000000000000008152600401611a1990613120565b60405180910390fd5b50505050565b606060405180602001604052806000815250905090565b6060611a4a826112f5565b6000611a54611a28565b90506000815111611a745760405180602001604052806000815250611a9f565b80611a7e84611e06565b604051602001611a8f929190612e68565b6040516020818303038152906040525b915050919050565b60008073ffffffffffffffffffffffffffffffffffffffff16611ac983611790565b73ffffffffffffffffffffffffffffffffffffffff1614159050919050565b6001811115611c0857600073ffffffffffffffffffffffffffffffffffffffff168473ffffffffffffffffffffffffffffffffffffffff1614611b7c5780600360008673ffffffffffffffffffffffffffffffffffffffff1673ffffffffffffffffffffffffffffffffffffffff1681526020019081526020016000206000828254611b749190612df8565b925050819055505b600073ffffffffffffffffffffffffffffffffffffffff168373ffffffffffffffffffffffffffffffffffffffff1614611c075780600360008573ffffffffffffffffffffffffffffffffffffffff1673ffffffffffffffffffffffffffffffffffffffff1681526020019081526020016000206000828254611bff9190612da2565b925050819055505b5b50505050565b50505050565b611c1e8383611ede565b611c2b6000848484611c6f565b611c6a576040517f08c379a0000000000000000000000000000000000000000000000000000000008152600401611c6190613120565b60405180910390fd5b505050565b6000611c908473ffffffffffffffffffffffffffffffffffffffff166120fc565b15611df9578373ffffffffffffffffffffffffffffffffffffffff1663150b7a02611cb9611340565b8786866040518563ffffffff1660e01b8152600401611cdb9493929190613195565b602060405180830381600087803b158015611cf557600080fd5b505af1925050508015611d2657506040513d601f19601f82011682018060405250810190611d2391906131f6565b60015b611da9573d8060008114611d56576040519150601f19603f3d011682016040523d82523d6000602084013e611d5b565b606091505b50600081511415611da1576040517f08c379a0000000000000000000000000000000000000000000000000000000008152600401611d9890613120565b60405180910390fd5b805181602001fd5b63150b7a0260e01b7bffffffffffffffffffffffffffffffffffffffffffffffffffffffff1916817bffffffffffffffffffffffffffffffffffffffffffffffffffffffff191614915050611dfe565b600190505b949350505050565b606060006001611e158461211f565b01905060008167ffffffffffffffff811115611e3457611e336126be565b5b6040519080825280601f01601f191660200182016040528015611e665781602001600182028036833780820191505090505b509050600082602001820190505b600115611ed3578080600190039150507f3031323334353637383961626364656600000000000000000000000000000000600a86061a8153600a8581611ebd57611ebc613223565b5b0494506000851415611ece57611ed3565b611e74565b819350505050919050565b600073ffffffffffffffffffffffffffffffffffffffff168273ffffffffffffffffffffffffffffffffffffffff161415611f4e576040517f08c379a0000000000000000000000000000000000000000000000000000000008152600401611f459061329e565b60405180910390fd5b611f5781611aa7565b15611f97576040517f08c379a0000000000000000000000000000000000000000000000000000000008152600401611f8e9061330a565b60405180910390fd5b611fa5600083836001611ae8565b611fae81611aa7565b15611fee576040517f08c379a0000000000000000000000000000000000000000000000000000000008152600401611fe59061330a565b60405180910390fd5b6001600360008473ffffffffffffffffffffffffffffffffffffffff1673ffffffffffffffffffffffffffffffffffffffff16815260200190815260200160002060008282540192505081905550816002600083815260200190815260200160002060006101000a81548173ffffffffffffffffffffffffffffffffffffffff021916908373ffffffffffffffffffffffffffffffffffffffff160217905550808273ffffffffffffffffffffffffffffffffffffffff16600073ffffffffffffffffffffffffffffffffffffffff167fddf252ad1be2c89b69c2b068fc378daa952ba7f163c4a11628f55a4df523b3ef60405160405180910390a46120f8600083836001611c0e565b5050565b6000808273ffffffffffffffffffffffffffffffffffffffff163b119050919050565b600080600090507a184f03e93ff9f4daa797ed6e38ed64bf6a1f010000000000000000831061217d577a184f03e93ff9f4daa797ed6e38ed64bf6a1f010000000000000000838161217357612172613223565b5b0492506040810190505b6d04ee2d6d415b85acef810000000083106121ba576d04ee2d6d415b85acef810000000083816121b0576121af613223565b5b0492506020810190505b662386f26fc1000083106121e957662386f26fc1000083816121df576121de613223565b5b0492506010810190505b6305f5e1008310612212576305f5e100838161220857612207613223565b5b0492506008810190505b612710831061223757612710838161222d5761222c613223565b5b0492506004810190505b6064831061225a57606483816122505761224f613223565b5b0492506002810190505b600a8310612269576001810190505b80915050919050565b82805461227e90612a8d565b90600052602060002090601f0160209004810192826122a057600085556122e7565b82601f106122b957805160ff19168380011785556122e7565b828001600101855582156122e7579182015b828111156122e65782518255916020019190600101906122cb565b5b5090506122f491906122f8565b5090565b5b808211156123115760008160009055506001016122f9565b5090565b6000604051905090565b600080fd5b600080fd5b60007fffffffff0000000000000000000000000000000000000000000000000000000082169050919050565b61235e81612329565b811461236957600080fd5b50565b60008135905061237b81612355565b92915050565b6000602082840312156123975761239661231f565b5b60006123a58482850161236c565b91505092915050565b60008115159050919050565b6123c3816123ae565b82525050565b60006020820190506123de60008301846123ba565b92915050565b600081519050919050565b600082825260208201905092915050565b60005b8381101561241e578082015181840152602081019050612403565b8381111561242d576000848401525b50505050565b6000601f19601f8301169050919050565b600061244f826123e4565b61245981856123ef565b9350612469818560208601612400565b61247281612433565b840191505092915050565b600060208201905081810360008301526124978184612444565b905092915050565b6000819050919050565b6124b28161249f565b81146124bd57600080fd5b50565b6000813590506124cf816124a9565b92915050565b6000602082840312156124eb576124ea61231f565b5b60006124f9848285016124c0565b91505092915050565b600073ffffffffffffffffffffffffffffffffffffffff82169050919050565b600061252d82612502565b9050919050565b61253d81612522565b82525050565b60006020820190506125586000830184612534565b92915050565b61256781612522565b811461257257600080fd5b50565b6000813590506125848161255e565b92915050565b600080604083850312156125a1576125a061231f565b5b60006125af85828601612575565b92505060206125c0858286016124c0565b9150509250929050565b6125d38161249f565b82525050565b60006020820190506125ee60008301846125ca565b92915050565b60008060006060848603121561260d5761260c61231f565b5b600061261b86828701612575565b935050602061262c86828701612575565b925050604061263d868287016124c0565b9150509250925092565b6000806040838503121561265e5761265d61231f565b5b600061266c858286016124c0565b925050602061267d85828601612575565b9150509250929050565b60006020828403121561269d5761269c61231f565b5b60006126ab84828501612575565b91505092915050565b600080fd5b600080fd5b7f4e487b7100000000000000000000000000000000000000000000000000000000600052604160045260246000fd5b6126f682612433565b810181811067ffffffffffffffff82111715612715576127146126be565b5b80604052505050565b6000612728612315565b905061273482826126ed565b919050565b600067ffffffffffffffff821115612754576127536126be565b5b61275d82612433565b9050602081019050919050565b82818337600083830152505050565b600061278c61278784612739565b61271e565b9050828152602081018484840111156127a8576127a76126b9565b5b6127b384828561276a565b509392505050565b600082601f8301126127d0576127cf6126b4565b5b81356127e0848260208601612779565b91505092915050565b6000602082840312156127ff576127fe61231f565b5b600082013567ffffffffffffffff81111561281d5761281c612324565b5b612829848285016127bb565b91505092915050565b600080604083850312156128495761284861231f565b5b6000612857858286016124c0565b925050602083013567ffffffffffffffff81111561287857612877612324565b5b612884858286016127bb565b9150509250929050565b612897816123ae565b81146128a257600080fd5b50565b6000813590506128b48161288e565b92915050565b600080604083850312156128d1576128d061231f565b5b60006128df85828601612575565b92505060206128f0858286016128a5565b9150509250929050565b600067ffffffffffffffff821115612915576129146126be565b5b61291e82612433565b9050602081019050919050565b600061293e612939846128fa565b61271e565b90508281526020810184848401111561295a576129596126b9565b5b61296584828561276a565b509392505050565b600082601f830112612982576129816126b4565b5b813561299284826020860161292b565b91505092915050565b600080600080608085870312156129b5576129b461231f565b5b60006129c387828801612575565b94505060206129d487828801612575565b93505060406129e5878288016124c0565b925050606085013567ffffffffffffffff811115612a0657612a05612324565b5b612a128782880161296d565b91505092959194509250565b60008060408385031215612a3557612a3461231f565b5b6000612a4385828601612575565b9250506020612a5485828601612575565b9150509250929050565b7f4e487b7100000000000000000000000000000000000000000000000000000000600052602260045260246000fd5b60006002820490506001821680612aa557607f821691505b60208210811415612ab957612ab8612a5e565b5b50919050565b7f4552433732313a20617070726f76616c20746f2063757272656e74206f776e6560008201527f7200000000000000000000000000000000000000000000000000000000000000602082015250565b6000612b1b6021836123ef565b9150612b2682612abf565b604082019050919050565b60006020820190508181036000830152612b4a81612b0e565b9050919050565b7f4552433732313a20617070726f76652063616c6c6572206973206e6f7420746f60008201527f6b656e206f776e6572206f7220617070726f76656420666f7220616c6c000000602082015250565b6000612bad603d836123ef565b9150612bb882612b51565b604082019050919050565b60006020820190508181036000830152612bdc81612ba0565b9050919050565b7f4552433732313a2063616c6c6572206973206e6f7420746f6b656e206f776e6560008201527f72206f7220617070726f76656400000000000000000000000000000000000000602082015250565b6000612c3f602d836123ef565b9150612c4a82612be3565b604082019050919050565b60006020820190508181036000830152612c6e81612c32565b9050919050565b7f4552433732313a20696e76616c696420746f6b656e2049440000000000000000600082015250565b6000612cab6018836123ef565b9150612cb682612c75565b602082019050919050565b60006020820190508181036000830152612cda81612c9e565b9050919050565b7f4552433732313a2061646472657373207a65726f206973206e6f74206120766160008201527f6c6964206f776e65720000000000000000000000000000000000000000000000602082015250565b6000612d3d6029836123ef565b9150612d4882612ce1565b604082019050919050565b60006020820190508181036000830152612d6c81612d30565b9050919050565b7f4e487b7100000000000000000000000000000000000000000000000000000000600052601160045260246000fd5b6000612dad8261249f565b9150612db88361249f565b9250827fffffffffffffffffffffffffffffffffffffffffffffffffffffffffffffffff03821115612ded57612dec612d73565b5b828201905092915050565b6000612e038261249f565b9150612e0e8361249f565b925082821015612e2157612e20612d73565b5b828203905092915050565b600081905092915050565b6000612e42826123e4565b612e4c8185612e2c565b9350612e5c818560208601612400565b80840191505092915050565b6000612e748285612e37565b9150612e808284612e37565b91508190509392505050565b7f4552433732313a207472616e736665722066726f6d20696e636f72726563742060008201527f6f776e6572000000000000000000000000000000000000000000000000000000602082015250565b6000612ee86025836123ef565b9150612ef382612e8c565b604082019050919050565b60006020820190508181036000830152612f1781612edb565b9050919050565b7f4552433732313a207472616e7366657220746f20746865207a65726f2061646460008201527f7265737300000000000000000000000000000000000000000000000000000000602082015250565b6000612f7a6024836123ef565b9150612f8582612f1e565b604082019050919050565b60006020820190508181036000830152612fa981612f6d565b9050919050565b7f45524337323155524953746f726167653a2055524920736574206f66206e6f6e60008201527f6578697374656e7420746f6b656e000000000000000000000000000000000000602082015250565b600061300c602e836123ef565b915061301782612fb0565b604082019050919050565b6000602082019050818103600083015261303b81612fff565b9050919050565b7f4552433732313a20617070726f766520746f2063616c6c657200000000000000600082015250565b60006130786019836123ef565b915061308382613042565b602082019050919050565b600060208201905081810360008301526130a78161306b565b9050919050565b7f4552433732313a207472616e7366657220746f206e6f6e20455243373231526560008201527f63656976657220696d706c656d656e7465720000000000000000000000000000602082015250565b600061310a6032836123ef565b9150613115826130ae565b604082019050919050565b60006020820190508181036000830152613139816130fd565b9050919050565b600081519050919050565b600082825260208201905092915050565b600061316782613140565b613171818561314b565b9350613181818560208601612400565b61318a81612433565b840191505092915050565b60006080820190506131aa6000830187612534565b6131b76020830186612534565b6131c460408301856125ca565b81810360608301526131d6818461315c565b905095945050505050565b6000815190506131f081612355565b92915050565b60006020828403121561320c5761320b61231f565b5b600061321a848285016131e1565b91505092915050565b7f4e487b7100000000000000000000000000000000000000000000000000000000600052601260045260246000fd5b7f4552433732313a206d696e7420746f20746865207a65726f2061646472657373600082015250565b60006132886020836123ef565b915061329382613252565b602082019050919050565b600060208201905081810360008301526132b78161327b565b9050919050565b7f4552433732313a20746f6b656e20616c7265616479206d696e74656400000000600082015250565b60006132f4601c836123ef565b91506132ff826132be565b602082019050919050565b60006020820190508181036000830152613323816132e7565b905091905056fea2646970667358221220b87f544f08ae437d044443a34ec97a0af421402c92fe900d14e407df0292435a64736f6c63430008080033",
  "devdoc": {
    "kind": "dev",
    "methods": {
      "approve(address,uint256)": {
        "details": "See {IERC721-approve}."
      },
      "balanceOf(address)": {
        "details": "See {IERC721-balanceOf}."
      },
      "getApproved(uint256)": {
        "details": "See {IERC721-getApproved}."
      },
      "isApprovedForAll(address,address)": {
        "details": "See {IERC721-isApprovedForAll}."
      },
      "name()": {
        "details": "See {IERC721Metadata-name}."
      },
      "ownerOf(uint256)": {
        "details": "See {IERC721-ownerOf}."
      },
      "safeTransferFrom(address,address,uint256)": {
        "details": "See {IERC721-safeTransferFrom}."
      },
      "safeTransferFrom(address,address,uint256,bytes)": {
        "details": "See {IERC721-safeTransferFrom}."
      },
      "setApprovalForAll(address,bool)": {
        "details": "See {IERC721-setApprovalForAll}."
      },
      "supportsInterface(bytes4)": {
        "details": "See {IERC165-supportsInterface}."
      },
      "symbol()": {
        "details": "See {IERC721Metadata-symbol}."
      },
      "tokenURI(uint256)": {
        "details": "See {IERC721Metadata-tokenURI}."
      },
      "transferFrom(address,address,uint256)": {
        "details": "See {IERC721-transferFrom}."
      }
    },
    "version": 1
  },
  "userdoc": {
    "kind": "user",
    "methods": {},
    "version": 1
  },
  "storageLayout": {
    "storage": [
      {
        "astId": 25,
        "contract": "contracts/BlockSocial.sol:BlockSocial",
        "label": "_name",
        "offset": 0,
        "slot": "0",
        "type": "t_string_storage"
      },
      {
        "astId": 27,
        "contract": "contracts/BlockSocial.sol:BlockSocial",
        "label": "_symbol",
        "offset": 0,
        "slot": "1",
        "type": "t_string_storage"
      },
      {
        "astId": 31,
        "contract": "contracts/BlockSocial.sol:BlockSocial",
        "label": "_owners",
        "offset": 0,
        "slot": "2",
        "type": "t_mapping(t_uint256,t_address)"
      },
      {
        "astId": 35,
        "contract": "contracts/BlockSocial.sol:BlockSocial",
        "label": "_balances",
        "offset": 0,
        "slot": "3",
        "type": "t_mapping(t_address,t_uint256)"
      },
      {
        "astId": 39,
        "contract": "contracts/BlockSocial.sol:BlockSocial",
        "label": "_tokenApprovals",
        "offset": 0,
        "slot": "4",
        "type": "t_mapping(t_uint256,t_address)"
      },
      {
        "astId": 45,
        "contract": "contracts/BlockSocial.sol:BlockSocial",
        "label": "_operatorApprovals",
        "offset": 0,
        "slot": "5",
        "type": "t_mapping(t_address,t_mapping(t_address,t_bool))"
      },
      {
        "astId": 1091,
        "contract": "contracts/BlockSocial.sol:BlockSocial",
        "label": "_tokenURIs",
        "offset": 0,
        "slot": "6",
        "type": "t_mapping(t_uint256,t_string_storage)"
      },
      {
        "astId": 2671,
        "contract": "contracts/BlockSocial.sol:BlockSocial",
        "label": "s_tokenCounter",
        "offset": 0,
        "slot": "7",
        "type": "t_uint256"
      },
      {
        "astId": 2673,
        "contract": "contracts/BlockSocial.sol:BlockSocial",
        "label": "s_postCounter",
        "offset": 0,
        "slot": "8",
        "type": "t_uint256"
      },
      {
        "astId": 2677,
        "contract": "contracts/BlockSocial.sol:BlockSocial",
        "label": "s_tokenIdToLikeCount",
        "offset": 0,
        "slot": "9",
        "type": "t_mapping(t_uint256,t_uint256)"
      },
      {
        "astId": 2683,
        "contract": "contracts/BlockSocial.sol:BlockSocial",
        "label": "s_tokenIdToWhoLiked",
        "offset": 0,
        "slot": "10",
        "type": "t_mapping(t_uint256,t_mapping(t_address,t_bool))"
      }
    ],
    "types": {
      "t_address": {
        "encoding": "inplace",
        "label": "address",
        "numberOfBytes": "20"
      },
      "t_bool": {
        "encoding": "inplace",
        "label": "bool",
        "numberOfBytes": "1"
      },
      "t_mapping(t_address,t_bool)": {
        "encoding": "mapping",
        "key": "t_address",
        "label": "mapping(address => bool)",
        "numberOfBytes": "32",
        "value": "t_bool"
      },
      "t_mapping(t_address,t_mapping(t_address,t_bool))": {
        "encoding": "mapping",
        "key": "t_address",
        "label": "mapping(address => mapping(address => bool))",
        "numberOfBytes": "32",
        "value": "t_mapping(t_address,t_bool)"
      },
      "t_mapping(t_address,t_uint256)": {
        "encoding": "mapping",
        "key": "t_address",
        "label": "mapping(address => uint256)",
        "numberOfBytes": "32",
        "value": "t_uint256"
      },
      "t_mapping(t_uint256,t_address)": {
        "encoding": "mapping",
        "key": "t_uint256",
        "label": "mapping(uint256 => address)",
        "numberOfBytes": "32",
        "value": "t_address"
      },
      "t_mapping(t_uint256,t_mapping(t_address,t_bool))": {
        "encoding": "mapping",
        "key": "t_uint256",
        "label": "mapping(uint256 => mapping(address => bool))",
        "numberOfBytes": "32",
        "value": "t_mapping(t_address,t_bool)"
      },
      "t_mapping(t_uint256,t_string_storage)": {
        "encoding": "mapping",
        "key": "t_uint256",
        "label": "mapping(uint256 => string)",
        "numberOfBytes": "32",
        "value": "t_string_storage"
      },
      "t_mapping(t_uint256,t_uint256)": {
        "encoding": "mapping",
        "key": "t_uint256",
        "label": "mapping(uint256 => uint256)",
        "numberOfBytes": "32",
        "value": "t_uint256"
      },
      "t_string_storage": {
        "encoding": "bytes",
        "label": "string",
        "numberOfBytes": "32"
      },
      "t_uint256": {
        "encoding": "inplace",
        "label": "uint256",
        "numberOfBytes": "32"
      }
    }
  }
}